:020000040800F2
:1000000000000520B91D0008C51C0008C71C000819
:10001000C91C0008CB1C0008CD1C00080000000013
:10002000000000000000000000000000CF1C0008DD
:10003000D11C000800000000D31C0008D51C0008DB
:10004000091E0008091E0008091E0008091E0008F4
:10005000091E0008091E0008091E0008091E0008E4
:10006000091E0008091E0008091E0008091E0008D4
:10007000091E0008091E0008091E0008091E0008C4
:10008000091E0008091E0008091E0008091E0008B4
:10009000091E0008091E0008091E0008091E0008A4
:1000A000091E0008091E0008091E0008091E000894
:1000B000091E0008091E0008D91C0008091E0008B6
:1000C000091E0008091E0008091E0008091E000874
:1000D000091E0008091E0008091E0008091E000864
:1000E000091E0008091E0008091E0008091E000854
:1000F000091E0008091E0008091E0008091E000844
:10010000091E0008091E0008091E0008091E000833
:10011000091E0008091E0008E51C0008091E000849
:10012000091E0008091E0008091E0008091E000813
:10013000091E0008091E0008091E0008091E000803
:10014000091E0008091E0008091E0008091E0008F3
:10015000091E0008091E0008091E0008091E0008E3
:10016000091E0008091E0008091E0008091E0008D3
:10017000091E0008091E0008091E000800000000F2
:10018000091E0008091E0008091E0008091E0008B3
:10019000091E0008091E0008091E0008091E0008A3
:1001A000F11C0008091E0008FD1C0008091E0008BB
:1001B000091E0008091E0008091E0008091E000883
:0801C000091E0008091E0008D9
:1001D00010B5054C237833B9044B13B10448AFF381
:1001E00000800123237010BD1801002000000000D2
:1001F0008C12020808B5034B1BB103490348AFF347
:10020000008008BD000000001C0100208C120208C4
:1002100001F0FF01102A2BDB10F0070F08D010F8B7
:10022000013B013A8B422DD010F0070F42B3F6D1BB
:10023000F0B441EA012141EA014122F007047FF0D4
:1002400000070023F0E80256083C85EA010586EA2B
:10025000010685FA47F5A3FA87F586FA47F6A5FA67
:1002600087F68EB9EED1F0BC01F0FF0102F0070273
:1002700032B110F8013B013A83EA010313B1F8D11E
:100280000020704701387047002D06BF35460338FF
:10029000073815F0010F07D1013015F4807F02BF38
:1002A000013015F4C03F0130F0BC0138704700BF89
:1002B00070B54FF0FF0C4CF4E06C1CEA11541DBFFC
:1002C0001CEA135594EA0C0F95EA0C0F00F0DEF8C7
:1002D0002C4481EA030621EA4C5123EA4C5350EAAC
:1002E000013518BF52EA033541F4801143F48013FD
:1002F00038D0A0FB02CE4FF00005E1FB02E506F08E
:100300000042E0FB03E54FF00006E1FB03569CF0E2
:10031000000F18BF4EF0010EA4F1FF04B6F5007FE8
:1003200064F5407404D25FEA4E0E6D4146EB06065A
:1003300042EAC62141EA55514FEAC52040EA5E50E3
:100340004FEACE2EB4F1FD0C88BFBCF5E06F1ED88D
:10035000BEF1004F08BF5FEA500E50F1000041EBC4
:10036000045170BD06F0004646EA010140EA020071
:1003700081EA0301B4EB5C04C2BFD4EB0C0541EA93
:10038000045170BD41F480114FF0000E013C00F3A8
:10039000AB8014F1360FDEBF002001F0004170BDCC
:1003A000C4F10004203C35DA0C341BDC04F11404E5
:1003B000C4F1200500FA05F320FA04F001FA05F271
:1003C00040EA020001F0004221F0004110EBD3703E
:1003D00021FA04F642EB06015EEA430E08BF20EA6A
:1003E000D37070BDC4F10C04C4F1200500FA04F30D
:1003F00020FA05F001FA04F240EA020001F000419F
:1004000010EBD37041F100015EEA430E08BF20EA11
:10041000D37070BDC4F1200500FA05F24EEA020E59
:1004200020FA04F301FA05F243EA020321FA04F088
:1004300001F0004121FA04F220EA020000EBD3703F
:100440005EEA430E08BF20EAD37070BD94F0000F3F
:100450000FD101F00046400041EB010111F4801F73
:1004600008BF013CF7D041EA060195F0000F18BF24
:10047000704703F00046520043EB030313F4801F60
:1004800008BF013DF7D043EA0603704794EA0C0F1A
:100490000CEA135518BF95EA0C0F0CD050EA410630
:1004A00018BF52EA4306D1D181EA030101F00041AD
:1004B0004FF0000070BD50EA410606BF10461946D5
:1004C00052EA430619D094EA0C0F02D150EA0136E1
:1004D00013D195EA0C0F05D152EA03361CBF104622
:1004E00019460AD181EA030101F0004141F0FE41C1
:1004F00041F470014FF0000070BD41F0FE4141F445
:10050000780170BD81F0004102E000BF83F000433C
:1005100030B54FEA41044FEA430594EA050F08BF9E
:1005200090EA020F1FBF54EA000C55EA020C7FEA62
:10053000645C7FEA655C00F0E2804FEA5454D4EBDF
:100540005555B8BF6D420CDD2C4480EA020281EAA9
:10055000030382EA000083EA010180EA020281EAE1
:100560000303362D88BF30BD11F0004F4FEA013133
:100570004FF4801C4CEA113102D0404261EB410142
:1005800013F0004F4FEA03334CEA133302D05242C8
:1005900063EB430394EA050F00F0A780A4F1010484
:1005A000D5F1200E0DDB02FA0EFC22FA05F28018BE
:1005B00041F1000103FA0EF2801843FA05F35941A4
:1005C0000EE0A5F120050EF1200E012A03FA0EFC23
:1005D00028BF4CF0020C43FA05F3C01851EBE3714D
:1005E00001F0004507D54FF0000EDCF1000C7EEB6A
:1005F00000006EEB0101B1F5801F1BD3B1F5001FA8
:100600000CD349085FEA30004FEA3C0C04F10104C6
:100610004FEA445212F5800F80F09A80BCF1004FEF
:1006200008BF5FEA500C50F1000041EB045141EA71
:10063000050130BD5FEA4C0C404141EB0101013C3A
:1006400028BFB1F5801FE9D291F0000F04BF014629
:100650000020B1FA81F308BF2033A3F10B03B3F1FB
:1006600020020CDA0C3208DD02F1140CC2F10C028B
:1006700001FA0CF021FA02F10CE002F11402D8BFE9
:10068000C2F1200C01FA02F120FA0CFCDCBF41EAB5
:100690000C019040E41AA2BF01EB0451294330BD84
:1006A0006FEA04041F3C1CDA0C340EDC04F1140461
:1006B000C4F1200220FA04F001FA02F340EA030038
:1006C00021FA04F345EA030130BDC4F10C04C4F17E
:1006D000200220FA02F001FA04F340EA030029465E
:1006E00030BD21FA04F0294630BD94F0000F83F4A8
:1006F000801306BF81F480110134013D4EE77FEA8B
:10070000645C18BF7FEA655C29D094EA050F08BFD6
:1007100090EA020F05D054EA000C04BF19461046B7
:1007200030BD91EA030F1EBF0021002030BD5FEAFB
:10073000545C05D14000494128BF41F0004130BD23
:1007400014F580043CBF01F5801130BD01F0004577
:1007500045F0FE4141F470014FF0000030BD7FEAEA
:10076000645C1ABF194610467FEA655C1CBF0B46E5
:10077000024650EA013406BF52EA033591EA030FFC
:1007800041F4002130BD00BF90F0000F04BF0021F4
:10079000704730B54FF4806404F132044FF0000527
:1007A0004FF0000150E700BF90F0000F04BF0021A0
:1007B000704730B54FF4806404F1320410F0004506
:1007C00048BF40424FF000013EE700BF42004FEA01
:1007D000E2014FEA31014FEA02701FBF12F07F437E
:1007E00093F07F4F81F06051704732F07F4208BF35
:1007F000704793F07F4F04BF41F40021704730B53C
:100800004FF4607401F0004521F000411CE700BF87
:1008100050EA010208BF704730B54FF000050AE00A
:1008200050EA010208BF704730B511F0004502D50B
:10083000404261EB41014FF4806404F132045FEA0D
:10084000915C3FF4D8AE4FF003025FEADC0C18BFB6
:1008500003325FEADC0C18BF033202EBDC02C2F1A8
:10086000200300FA03FC20FA02F001FA03FE40EA3A
:100870000E0021FA02F11444BDE600BF4FF0FF3C28
:1008800006E000BF4FF0010C02E000BF4FF0010C8A
:100890004DF804CD4FEA410C7FEA6C5C4FEA430C03
:1008A00018BF7FEA6C5C1BD001B050EA410C0CBF52
:1008B00052EA430C91EA030F02BF90EA020F0020B4
:1008C000704710F1000F91EA030F58BF994208BF1B
:1008D00090422CBFD8176FEAE37040F001007047D8
:1008E0004FEA410C7FEA6C5C02D150EA013C07D12F
:1008F0004FEA430C7FEA6C5CD6D152EA033CD3D07A
:100900005DF8040B704700BF8446104662468C4673
:100910001946634600E000BF01B5FFF7B7FF0028A6
:1009200048BF10F1000F01BD4DF808EDFFF7F4FFCF
:100930000CBF012000205DF808FB00BF4DF808ED5A
:10094000FFF7EAFF34BF012000205DF808FB00BF7D
:100950004DF808EDFFF7E0FF94BF012000205DF89F
:1009600008FB00BF4DF808EDFFF7CEFF94BF012054
:1009700000205DF808FB00BF4DF808EDFFF7C4FF4D
:1009800034BF012000205DF808FB00BF4A0011D2EF
:1009900012F5001211D20DD56FF47873B3EB6252D9
:1009A0000ED44FEAC12343F0004343EA505323FAE5
:1009B00002F070474FF00000704750EA013002D15A
:1009C0004FF0FF3070474FF00000704753B94AB9FD
:1009D000002908BF00281CBF4FF0FF314FF0FF3047
:1009E00000F070B9ADF1080C6DE904CE00F006F826
:1009F000DDF804E0DDE9022304B070472DE9F0479B
:100A0000089E0D4604460F46002B4AD18A42944662
:100A100065D9B2FA82F343B102FA03FCC3F12002B2
:100A20009F4020FA02F217439C404FEA1C4E1FFAE7
:100A30008CF5B7FBFEF1220C0EFB117742EA074260
:100A400001FB05F090420AD91CEB020201F1FF37CD
:100A500080F01C81904240F2198102396244121ADE
:100A6000A4B2B2FBFEF00EFB102244EA024400FBEB
:100A700005F5A5420AD91CEB040400F1FF3280F011
:100A80000781A54240F204816444023840EA0140F3
:100A9000641B00211EB1DC400023C6E90043BDE811
:100AA000F0878B4208D9002E00F0ED800021C6E9C6
:100AB00000050846BDE8F087B3FA83F1002949D163
:100AC000AB4202D3824200F2F880841A65EB030243
:100AD00001201746002EE2D0C6E90047DFE702B941
:100AE000FFDEB2FA82F3002B40F090808A1A4FEAC0
:100AF0001C471FFA8CFE0121B2FBF7F507FB1520FE
:100B0000220C42EA00420EFB05F0904208D91CEB91
:100B1000020205F1FF3802D2904200F2CB80454636
:100B2000121AA4B2B2FBF7F007FB102244EA024407
:100B30000EFB00FEA64508D91CEB040400F1FF32B1
:100B400002D2A64500F2BB801046A4EB0E0440EA98
:100B500005409FE7C1F120078B4022FA07FC4CEAD1
:100B6000030C05FA01F420FA07F3FD404FEA1C4993
:100B70002343B5FBF9F81FFA8CFE09FB18551C0C32
:100B800044EA054408FB0EF5A54202FA01F200FA18
:100B900001F00BD91CEB040408F1FF3A80F08880C7
:100BA000A54240F28580A8F102086444641B9DB20E
:100BB000B4FBF9F309FB134445EA044403FB0EFEBE
:100BC000A64508D91CEB040403F1FF356CD2A645F9
:100BD0006AD9023B644443EA0843A3FB0295A4EBB1
:100BE0000E04AC42C846AE4656D353D056B1B0EB15
:100BF000080264EB0E0404FA07F7CA40CC4017431E
:100C0000C6E9007418460021BDE8F087C3F1200151
:100C100002FA03FC20FA01F225FA01F19D402A4371
:100C20004FEA1C471FFA8CFEB1FBF7F007FB1015CB
:100C3000110C41EA054100FB0EF58D4204FA03F464
:100C400008D91CEB010100F1FF382FD28D422DD9BC
:100C500002386144491B92B2B1FBF7F507FB15114D
:100C600042EA014205FB0EF1914208D91CEB020257
:100C700005F1FF3816D2914214D9023D6244521A4E
:100C800045EA004138E73146304608E73946E6E6AE
:100C90001046FBE64845A9D2B9EB020865EB0C0EFD
:100CA000013BA3E74546EAE72B4694E74046D1E7F8
:100CB000D0467BE7023D624432E708460AE76444D7
:100CC000023842E7704700BF10B594B010220021EF
:100CD00002240AA81FF0B7FC1422002103A81FF069
:100CE000B2FC1D4B192108A81A6C42F080521A64FC
:100CF0001B6C03F080530193019B184B1A6842F45C
:100D000040421A6001221B6803F440430293029B95
:100D10004FF48033CDE908234FF48003CDE90E432F
:100D20004FF4C873CDE91244CDE9101306F01AFB55
:100D300005F0C2FF0F2300200621CDE903344FF454
:100D4000A053CDE905034FF4805303A8079306F0A1
:100D5000F1FC14B010BD00BF00380240007000402C
:100D600030B5002289B001212E480F242E4D05F008
:100D70004BFA002202212B4805F046FA01220221FB
:100D8000284805F041FA4FF48041284605F036FA2C
:100D900000222DF814000221224805F035FA013C0A
:100DA000ECD201221F48114605F02EFABDF81C2096
:100DB000BDF81A30F5EE007A03EB4203BDF81820B7
:100DC00002EB4302BDF8163003EB4203BDF81420DA
:100DD00002EB4302BDF8123003EB4203BDF81020D2
:100DE00002EB4302BDF80E3003EB4203BDF80C20CA
:100DF00002EB4302BDF80A3003EB4203BDF80820C2
:100E000002EB4302BDF8063003EB420300EE103A5A
:100E1000064BB8EEC00A83ED000A20EE270A09B09F
:100E200030BD00BF0020024000040240AC11002091
:100E30000268034B9A4201D104F0EEBD704700BF37
:100E4000001000400000000000232DE9F04F1A467A
:100E50005F4D2DED028B83B0EA540133B3F57A6F09
:100E6000FAD15C4BB6EE007AB3EE086A5A4C1869B8
:100E7000F0EE478AD3ED035A07EE900AF8EE676A60
:100E8000F0EE467A2168E5EE877AF4EEE67AF1EE46
:100E900010FA57D989B2514A5F69C0B25180002116
:100EA000B9425CDB2168B6EE007AD3F81C80394485
:100EB00093ED066A07EE908A21602168F8EE675A82
:100EC00089B29180F0EE667AE6EE077AF4EEE57A82
:100ED000F1EE10FA48D921685FFA88F6186A002303
:100EE00089B2D18083425BDB23680021B6EE008AA1
:100EF000034423602368E95423680FF2CC0BDBE939
:100F000000AB9BB213814046FFF73EFC06460F46FE
:100F100018EE100AFFF75AFC52465B46FFF7C8F975
:100F200002460B4630463946FFF7F0FA00222C4BBA
:100F300006460F46FFF716FDB8BB03B0BDEC028BAB
:100F4000BDE8F08FFCEEE77A37EE287ACDED017A36
:100F50009DF804206A5422680132226090E72668D6
:100F60000E440131A8559BE7FCEEC77A2068B0EE2D
:100F7000665A37EE287ACDED017A9DF8041007EE17
:100F8000901AF8EEE77AA7EE865AFCEEC57ACDED18
:100F9000017A9DF80410295421680131216091E7FC
:100FA0002168194401336E549CE730463946FFF7F7
:100FB000EDFCD4F80090C0B238EE288A05F809009C
:100FC0002368013323609EE7CDCCCCCCCCCCFC3F56
:100FD0007201002018110020040000206801002088
:100FE00000003840C34EB36A822B2DE98048A5B07B
:100FF00014D04FF07C524FF0640982234FF09608D2
:10100000F260B261A022B362C6E90729BA4A32602F
:10101000BA4A7260BA4AC6E90438B260FFF714FFF0
:10102000B848336801210125002483617368C361D6
:10103000B36803621FF0C4F81022002117A81FF044
:1010400002FB04F071FD4FF0104EAF4B17A8ADF846
:101050005C501A94CDE918E304F084FD172317A817
:101060008DF85D508DF864308DF86A5004F07AFD8B
:10107000042004F067FDBFF34F8FBFF36F8FA34AC7
:10108000C2F85042BFF34F8FBFF36F8F536943F4E1
:1010900000335361BFF34F8FBFF36F8FC2F88440AB
:1010A000BFF34F8FD2F8803043F6E074C3F3C9002A
:1010B000C3F34E335B0103EA0407014647EA817537
:1010C0000139C2F86052F9D2203B13F1200FF2D15E
:1010D000BFF34F8F536943F480335361BFF34F8F96
:1010E000BFF36F8F04F086FC0024FFF7EDFD1422A0
:1010F000002117A81FF0A7FA854B082185481A6B15
:101100000127854D4FF0020942F010024FF0040A0A
:10111000DFF824B24FF010081A631A6B02F01002C5
:101120000292029A1A6B42F001021A631A6B02F0E1
:1011300001020392039A1A6B42F002021A631A6BBD
:1011400002F002020492049A1A6B42F040021A63FF
:101150001A6B02F040020592059A1A6B42F4007273
:101160001A631A6B02F400720692069A1A6B42F026
:1011700008021A631A6B02F008020792079A1A6BA8
:1011800042F480621A631A6B02F480620892089A31
:101190001A6B42F020021A631A6B02F020020992C5
:1011A000099A1A6B42F480721A631A6B02F4807205
:1011B0000A920A9A1A6B42F080021A631A6B02F0C2
:1011C00080020B920B9A1A6B42F004021A630122FE
:1011D0001B6B03F004030C930C9B05F015F8002225
:1011E00003214E4805F010F801224FF480514B487E
:1011F00005F00AF8082317A94648CDE91737CDE9C5
:10120000194404F079FE41F2030317A94348CDE9DC
:101210001737CDE9194404F06FFE4FF4804317A946
:101220003F481994CDE9173404F066FE3D483E4B23
:10123000848003600762C0E9054404F0BFFC3B4BB7
:101240002846C5E90A44C5E90C44C5E90034C5E9A6
:10125000024404F050FD39462846354D04F004FEA2
:10126000344B40224FF400612846AC60EC61AC6224
:10127000CDF87490C5E900344FF4C073C5E9052377
:101280004FF48053C5E90813072317A9CDE9179335
:10129000CDE919A30323C5E903A8CDE91B3906F05D
:1012A0009FFD59464FF6FF7228460194CBE9027420
:1012B000CBE9007806F0B4FD384604F0BFFB594690
:1012C0004FF6FF722846CBE90274CBE9009806F08E
:1012D000A7FD032359464FF6FF722846CBE9003895
:1012E0000823CBE9023406F09BFD4FF40C734FF654
:1012F000FF7223E01811002000005C43CDCC4C3D70
:1013000000005243440100201B00000300ED00E0F8
:1013100000380240002802406C11002000200240EA
:1013200000040240481100200030024000B002409A
:10133000F4120020400100A034010020594601931E
:101340002846019BCBF80870CBF80C30CBE900A8FD
:1013500006F066FD40F22B712846C74D06F07FFD72
:1013600043F2D2024FF02043C44840F2152B1A60DA
:10137000C34B2C62C5E900032846C5E90247C5E90D
:101380000444C5E9064405F0D6F82146284605F090
:10139000AFFA21462846BB4D05F0D0FA214634224B
:1013A00017A81FF050F9B84B4FF0280C4FF0350E2E
:1013B00040F23522AC8628462C6185F83640C5E9D6
:1013C00000340923C5E905C30B23C5E907E340F24F
:1013D0001B13C5E909B340F21D13C5E90244C5E971
:1013E0000B2305F053FBFF214FF480604FF4F072A4
:1013F0004FF488731794ADF88C4022938DF88E408B
:10140000CDE91C140521CDE91E014FF040412846CD
:101410001825CDE91824CDE92012224617A9CDE9D7
:101420001A3905F0FEFB9948994B0462C0E9003770
:101430004FF4A063974FC0E90453C0E90644C0E9E4
:1014400002A805F053FD944D04F052F904F096F80B
:101450005C2004F057FB21461C2210A80F94CDE914
:101460000D441FF0F0F82C22214617A81FF0EBF8CE
:101470004FF4FA432846AC60C5E900734FF47A7321
:10148000864FC5E90334C5E9054406F06DFF0DA993
:1014900028460F94CDE90D4407F08CF970232246BD
:1014A00010A928461694CDE91034CDE91244CDE9AF
:1014B000144406F0C1FF4FF4005317A928461B94AB
:1014C0001E942194CDE91C344FF00073CDE91744EC
:1014D000CDE91F34CDE9194407F0B8F9284600F0EA
:1014E00025FB4246214617A81FF0ADF8DFF8D4C10E
:1014F0004FF47A433846BC60BC611294C7E900C31C
:101500004FF4FA73CDE91044C7E9033406F0FCFE4A
:101510004FF4805317A93846179307F015F810A910
:1015200038461094129407F045F900F06EFC2146FD
:1015300028465B4C07F03CF95A4F2B680A225A6345
:1015400000F065FCFFF70CFC4FF4FA7084ED000A24
:1015500004F074FA544A3988138889B29BB29942CC
:1015600002D1524B012119607988138889B29BB24C
:10157000994202D14D4B02211960B988138889B272
:101580009BB2994202D1494B03211960F988138813
:1015900089B29BB2994202D1444B04211960398926
:1015A000138889B29BB2994202D1404B0521196040
:1015B0003F48D5F800C003783E49012BDFED3E6A75
:1015C00040F087801388DFF800E19BB21EF80330FB
:1015D0004FF0000ED4ED007A07EE103A374BB8EE1C
:1015E000C77A37EE677A83ED007A354B93ED036A5D
:1015F000D3ED017AD3ED005A66EE277A93ED025AC5
:1016000083ED037AE7EE257AD3ED045A83ED046A7D
:10161000E5EE257AD3ED055A77EEA57AF4EEE67A73
:10162000C3ED057AC1ED007AF1EE10FA04DDC1EDEB
:10163000006AC3F81CE006E0F5EEC07AF1EE10FA9D
:1016400044D5C1F800E0D1ED007AFCEEE77A17EE60
:10165000903A9BB2C3F57A73CCF8343013880133D7
:101660009BB213803989138889B29BB299427FF467
:1016700067AF0023037063E7B4110020005C0040F3
:10168000FFEAC0000012002000680140A8120020FC
:10169000001000A000000140281300207413002057
:1016A000B01100206801002014110020C413002094
:1016B000121100204411002000007A44C0130020C1
:1016C000440100200008004072010020D6F804E028
:1016D000AFE70023C1ED006A13804FF47A73CCF8B2
:1016E00034302DE7704700000A4B82B01A6C42F08C
:1016F00080521A641A6C02F080520092009A5A6C5E
:1017000042F480425A645B6C03F480430193019B72
:1017100002B0704700380240026882B0084B9A421B
:101720000BD1D3F8302803F5006342F480521A63DA
:101730001B6B03F480530193019B02B0704700BF01
:10174000003002400E4B07B502689A4215D1A3F54E
:10175000F04305215A201A6B42F400021A6300225A
:101760001B6B03F400030193019B04F08BF95A20D7
:1017700003B05DF804EB04F0B7B903B05DF804FB07
:1017800000B0024010B5A8B004461422002102A8FF
:101790001EF059FF8422002107A81EF054FF226882
:1017A000174B9A422AD14FF4803307A8079306F0CB
:1017B0008DF808B1FFF796FF124C4FF4C07201216B
:1017C0001148236B43F080032363236B03F08003F2
:1017D0000093009B1223CDE902230323CDE90413D8
:1017E000042302A9069304F087FB236C43F400034F
:1017F0002364236C03F400030193019B28B010BD04
:10180000005C004000380240001C0240026808B53D
:10181000094B9A420FD1094A80210948136C23F4DD
:101820000003136404F04AFC4FF480710448BDE8DF
:10183000084004F043BC08BD005C00400038024092
:10184000001C024070B5ACB004461422002106A86A
:101850001EF0F9FE842200210BA81EF0F4FE22687F
:10186000484B9A4240F08C800823052001240B93BA
:101870004FF4C07310930223CDE911304FF40033BD
:101880000BA8CDE9154306F021F808B1FFF72AFFB0
:101890003D4B002402250E265A6C06A93B4842F017
:1018A00080625A645A6C02F080620092009A1A6B4D
:1018B00042F010021A631A6B02F010020192019AB0
:1018C0001A6B42F400721A631A6B02F400720292ED
:1018D000029A1A6B42F480621A631A6B02F48062F5
:1018E0000392039A1A6B42F040021A631A6B02F0D9
:1018F00040020492049A1A6B42F480721A631B6BC2
:1019000003F480730593059B1023CDE90635CDE9DB
:1019100008440A9604F0F0FA4EF6FF7306A91C4834
:101920000A96CDE90635CDE9084404F0E5FAF72337
:1019300006A918480A96CDE90635CDE9084404F011
:10194000DBFA4FF4805306A91348CDE90635092385
:10195000CDE908440A9304F0CFFA4FF4464306A9B0
:101960000E480A96CDE90635CDE9084404F0C4FADC
:1019700058202246052104F085F8582004F0B4F8D8
:101980002CB070BD006801400038024000100240D9
:1019900000240240002802400018024000200240BB
:1019A000142200212DE9F0418AB004460DEB02001B
:1019B0001EF049FE22682C4B9A4251D12B4B022536
:1019C000032409269A6B4FF0040805A9284842F021
:1019D000020200279A639A6B02F002020192019AB6
:1019E0001A6B42F010021A631A6B02F01002029294
:1019F000029A1A6B42F002021A631A6B02F0020298
:101A00000392039A1A6B42F008021A631B6B03F0ED
:101A100008030493049BCDE90585CDE9084604F04D
:101A20006BFA402305A91348CDE905350A23CDE912
:101A30000774099304F060FA05A90E480996CDE9E8
:101A40000585CDE9077404F057FA4FF4605305A9F2
:101A500009480996CDE90535CDE9077404F04CFA3B
:101A60000AB0BDE8F08100BF001000A000380240BD
:101A70000010024000040240000C0240026808B559
:101A80000B4B9A4213D10B4A04210B48936B23F062
:101A90000203936304F012FB4421084804F00EFB98
:101AA0004FF460510648BDE8084004F007BB08BD8C
:101AB000001000A000380240001002400004024064
:101AC000000C0240026882B0074B9A420AD103F52B
:101AD0009C335A6C42F001025A645B6C03F00103C0
:101AE0000193019B02B07047000001400E4B07B507
:101AF00002689A4215D103F50C331E201A6C42F08D
:101B000004021A6400221B6C114603F004030193C3
:101B1000019B03F0B7FF1E2003B05DF804EB03F058
:101B2000E3BF03B05DF804FB0008004010B586B0C9
:101B300004461422002101A81EF085FD22680D4BE9
:101B40009A4215D103F59C3301A90B481A6B42F058
:101B500001021A634FF480721B6B03F001030093C0
:101B6000009B0223CDE901230123059304F0C4F96E
:101B700006B010BD0000014000000240F0B5002397
:101B800087B00393294B1E68002E4DD101220227F6
:101B900003250C241A6001A9254B26489A6B42F0B4
:101BA00001029A639B6B03F001030093009B4FF6C5
:101BB0008373CDE90454CDE9013704F09DF948F26F
:101BC000331301A91C480594CDE90137CDE903651C
:101BD00004F092F94CF2037301A918480594CDE979
:101BE0000137CDE9036504F087F94FF63F0301A9FA
:101BF00013480594CDE90137CDE9036504F07CF97C
:101C0000282301A90F480594CDE90137CDE90365E3
:101C100004F072F9082301A90B480594CDE90137B6
:101C2000CDE9036504F068F907B0F0BDC8130020E2
:101C3000003802400010024000180240000C024030
:101C400000140240001C02400008024010B501468A
:101C500088B00022362003F015FF362003F044FF41
:101C6000144B01A903A81A6C134C42F010021A6419
:101C70001B6C03F010030293029B05F009FE05F0B4
:101C8000F7FD0E4B4000236040F2E733E3600C4B5E
:101C9000B0FBF3F001380023606020462361A360AD
:101CA00006F032FB20B9204606F0D6F908B010BD88
:101CB0000120FBE700380240CC1300200010004058
:101CC00040420F007047FEE7FEE7FEE7FEE7704781
:101CD0007047704770470000014806F0FFB900BF29
:101CE00074130020014806F0F9B900BFCC1300209E
:101CF000014804F039BF00BF00120020014804F081
:101D000028B800BF6C1100200120704708B51EF0F4
:101D10003DFD162303604FF0FF3008BD08B51EF0EF
:101D200035FD16230360FEE770B50D4614460E46DA
:101D3000731B9C4201DC204670BDAFF3008006F8A7
:101D4000010BF5E770B50D4614460E46731B9C4219
:101D500001DC204670BD16F8010BAFF30080F5E7FB
:101D60004FF0FF3070474FF4005300204B60704736
:101D700001207047002070470B4A0346116810B5D8
:101D800009B90A491160106809490A4C0344091B42
:101D90008B4206D91EF0FAFC0C2303604FF0FF3093
:101DA00010BD1360FCE700BF1814002000DD002008
:101DB00000000520000A0000DFF834D0002103E015
:101DC0000C4B5B58435004310B480C4B42189A4261
:101DD000F6D30B4A02E0002342F8043B094B9A4237
:101DE000F9D303F01DFD1EF0D7FCFFF7FBF8704799
:101DF00000000520246202080000002018010020D5
:101E000018010020FCDC0020FEE700F01FBC00F001
:101E100091BC406870474160704700004FF0E0227D
:101E2000D2F8FC3D43F08073C2F8FC3D054B064AF6
:101E3000D3F8B01F0A43C3F8B02F1A6842F001026A
:101E40001A607047001000E055CEACC5511A01EB86
:101E50005301B1FBF3F07047014B5868704700BF66
:101E6000001000E0704710B504460C211EF0C9F9BF
:101E7000204610BD036810B51B69044631B1984770
:101E8000A26863689B1A1844606010BD9847A06000
:101E9000FBE70000024B7020024A1360DB68184722
:101EA000100000201C140020704710B504460421C7
:101EB0001EF0A7F9204610BD37B50A4D0C462B6819
:101EC00013B9002003B030BD1B6970200192984700
:101ED00001990028F5D02B68702022465B6998474D
:101EE0000120EFE71C1400207FB501238DF8172097
:101EF0004FF47A72CDE901320DF1170200920A46D1
:101F00000146054804F081FB10B1034804F064FB6E
:101F100007B05DF804FB00BFB41100207FB50023BB
:101F20000A464FF47A718DF817300123CDE901315B
:101F30000DF1170100910146054804F01DFC10B198
:101F4000034804F049FB9DF8170007B05DF804FB57
:101F5000B4110020704770477047012380F8741057
:101F600080F87530704700207047000041640039E8
:101F7000024B18BF01211970704700BFFBD8002029
:101F800000207047836B0BB10846184770474FF627
:101F9000FF707047406803689B69184770470000EE
:101FA00038B5044600F09EFC23682046D3F88850DC
:101FB000074BD4E90F12A8470023064D84F84A3096
:101FC0002846FFF72BFF0123256184F86C3038BDCC
:101FD000000000C02014002000F06CBC00F070BCB9
:101FE00070B500F0B3FC10490023C1F88430BFF392
:101FF0004F8FD1F8803043F6E074C3F3C900C3F3C8
:102000004E335B0103EA0406024646EA8275013A52
:10201000C1F87452F9D2203B13F1200FF2D1BFF373
:102020004F8FBFF36F8F70BD00ED00E000F09CBCE0
:1020300000F01CBC00F09ABC00F0A2BC00F020BC78
:1020400010B5044607F0ACFE23682046D3F8AC3048
:10205000BDE81040184707F021B810B504467C21B0
:102060001EF0CFF8204610BD90F877301BB14068C5
:1020700003681B68184718467047000090F8341032
:102080000D4B10B590F874401A788C4209D03AB9CB
:102090000A490B4A08881488108001220C801A70A3
:1020A00010BD002AFCD0064A0449148808880C8018
:1020B00010800022F3E700BFF4D80020F2D80020FF
:1020C000F0D8002070B50D46194635B9094B40F2DD
:1020D000BB21094A09481EF0C3F8C0E90F52003A73
:1020E000074B18BF01221A700368BDE87040D3F88F
:1020F0008C301847241302085C130208AA13020844
:10210000FAD8002008B5094B1B888B4203D8084B2E
:102110001B88934205D9074B9E21074A07481EF0AA
:102120009FF8074B1980074B1A8008BDF0D8002094
:10213000F2D80020EF13020852140208AA13020872
:10214000F6D80020F8D80020034B00225A609A608D
:10215000024A1A60704700BF20140020EC120208E7
:102160000023024A1360024A136070472C140020B7
:1021700030140020034B1A68002AFCD101221A6097
:10218000704700BF2C140020014B00221A607047DA
:102190002C140020014B01221A6070472C140020DF
:1021A000014B00221A6070472C140020014B0122C1
:1021B0001A60704730140020014B00221A607047EB
:1021C00030140020024B1868003818BF01207047F7
:1021D00030140020054B1A6832B100221A60044BFB
:1021E000186803681B6F1847704700BF3014002041
:1021F000FCD8002003685B6C184701207047036817
:102200009B6A18470D4B82B01A6B42F400021A63A6
:102210001A6B02F400020192019A1A6942F4000258
:102220001A611A6922F400021A61054B054A1A6103
:102230004FF08062044B9A6002B070470038024051
:102240006C1100208D22000800E100E040F2EF3028
:1022500070470000054B4FF080620360044BC3F8E9
:102260008820BFF34F8FBFF36F8F7047DC160208D3
:1022700000E100E010B504464FF45A61FFF7EAFFB1
:1022800020461DF0BEFF204610BD0000024B1B681B
:10229000586803685B691847FCD8002070B504468D
:1022A0000A4B0C300026254660226060267266725A
:1022B00045F8203B294607F0DBFE04F55A63EE6043
:1022C0002435AB42FBD1204670BD00BFDC160208AE
:1022D00008B50B290BD8DFE801F01206100A0A0A2C
:1022E0000A0808080808012008BD0520FCE7054B7E
:1022F0006621054A05481DF0B3FF0020F4E70220DF
:10230000F2E700BF701502088B150208D515020808
:1023100008B50A2909D8DFE801F010060E080808F8
:10232000080606060600012008BD054B8721054A60
:1023300005481DF095FF0020F6E70220F4E700BFF6
:10234000701502082F160208D51502082DE9F8436A
:1023500091F81D800C4607464146FFF7B9FF94F8F7
:102360001E90054638464946FFF7B2FF49460646E5
:102370003846FFF7CDFFA18A628B434B521A1A648D
:102380009A61228B521A1A61E28A586342EA014228
:1023900020695A646268D863DA602768802F28D081
:1023A000227F0FD8202F65D0402F63D0042F1AD062
:1023B00045EA0265344BC84545F40035DD615FD020
:1023C000324A44E0B7F5807F04D0B7F5007FEFD103
:1023D0002F4900E02F4941EA0262DA61E2681A629D
:1023E0005E62586132E045EA026242F40032DA612C
:1023F000F6E7A7683A1DDA62217F3A7845EA016577
:1024000045F40035DD615E62586142B1012A21D098
:10241000214B40F21111214A21481DF021FFDA69B8
:10242000798822F47F42013922F0100242EA012227
:102430000121DA61144BDA6942F02002DA61DA69CB
:102440009206FCD410229A600029B9D0154A1A606D
:10245000BDE8F883DA69FF39788822F47F4218BF33
:102460000121013822F0100242EA002242F010025B
:10247000DA61DFE745EA0262034B42F40032B6E775
:1024800040F20122E3E700BF00B002400102010078
:10249000090002000A0002007A16020894160208D7
:1024A000D51502080102020038B50C46897FFFF7F6
:1024B0002FFF174BA58AE28A586342EA0542216939
:1024C0005A64628BD963521B1A642568082D0ED199
:1024D0009A611A6158620F4A207F42EA0062DA610B
:1024E000E2681A620C4A5961D9601A6038BD00224C
:1024F000D8611A61E1680A0A4809C1F3C40102F40B
:10250000784200F4FC6002430A439A63034AECE712
:1025100000B00240090001000102020001020300B4
:10252000012070470C2070470C2303FB010008308A
:1025300070470C2303FB01000830704701207047EF
:102540004BF2E82070474BF2E82303FB0100083010
:1025500070474BF2E82303FB01000830704701206D
:1025600070471020704700EB01100830704700EBF7
:10257000011008307047084600F090BC034B10B5BE
:102580000446036006F0B4FA204610BD9417020812
:1025900010B50446FFF7F2FF142120461DF031FE6E
:1025A000204610BD034B10B50446036006F0A0FAA8
:1025B000204610BD6017020810B50446FFF7F2FF71
:1025C0004BF2F02120461DF01CFE204610BD0000FD
:1025D000034B10B50446036006F08AFA204610BD8E
:1025E0002C17020810B50446FFF7F2FF1821204609
:1025F0001DF007FE204610BD094B10B504460360D0
:1026000000F533401C30FFF7B9FF04F12C00FFF751
:10261000C9FF04F11400FFF7DBFF204610BD00BF27
:10262000C817020808B50248FFF7E6FF08BD00BF5B
:102630003814002010B50446FFF7DEFF4BF28C4142
:1026400020461DF0DEFD204610BD00002DE9F341BF
:1026500000F006FA0024054600F006FA234601467B
:1026600022462846009410F03FF8264B264A204682
:10267000264D1A6002F08CFD25480FF081FF2B6873
:10268000BFF35B8FDB0736D428461DF0BCFD90B34B
:10269000204C214F214B04F1140007F1180604F1DE
:1026A0002C0823606060C4F80880E760266106F0AB
:1026B00021FA1B4B4046636106F01CFA194B384661
:1026C000E36206F017FA04F53043174A03F54C703D
:1026D000C3F81C2302F0E2FD224607F11401304644
:1026E00002F0D2FD304600F0D9FB10481DF0D6FDB7
:1026F00028461DF094FD0E4802B0BDE8F041FFF7FA
:102700004FBC00BF78D90020E4D60020341400204C
:10271000080000203814002054C70020C817020801
:102720002C170208601702089417020825260008D3
:1027300068D6002008B5FFF745FD38B1044807F01A
:102740002FFB0348BDE8084006F01EBD08BD00BFD2
:1027500068D6002070B5234E234B244C3046244DC0
:102760002360FFF79BFD284613F06CF9214B0022F4
:102770004FF4807120481A861A6683F86C201A6715
:10278000DC60C3E912121D49C3E919124FF08071D0
:102790005967012183F8781019490B604FF4F071E3
:1027A0000180184801804FF488711748C3E904225A
:1027B000C3E90622C3E90822C3E90A22C3E90E22BB
:1027C000C3E91022C3E91422C3E91622C3E9016553
:1027D00001800E4883F8342001800D490A700D4AAB
:1027E0001A6070BDC8C8002014130208C4C80020B5
:1027F000E8D6002068D60020F0D8002001000001B3
:10280000FCD80020F6D80020F2D80020F8D800200C
:10281000F4D80020A01402080148FFF71BBD00BF38
:10282000C8C800201049002370B5C1F88430BFF338
:102830004F8FD1F8803043F6E074C3F3C900C3F37F
:102840004E335B0103EA0406024646EA8275013A0A
:10285000C1F87452F9D2203B13F1200FF2D1BFF32B
:102860004F8FBFF36F8F70BD00ED00E0034B9022E0
:1028700083F85A2383F85823704700BF00E100E033
:10288000094A0A49D3680A48C3F30A03013B9BB2C9
:102890000B801169C1F30A01013901801364536B84
:1028A00043F00103536370470068014064D7002080
:1028B00062D70020014BD3F8AC007047006801409C
:1028C000024B0122C3F8AC105A6270470068014005
:1028D000034B5B69DB0301D5FFF7A4BF704700BF63
:1028E00000ED00E070B5044606F02DFC23685D6E37
:1028F0000CF058FC01462046A84723682046D3F830
:1029000080309847236820469B6F98472368054A84
:102910002046D3F888500023A2F57F31AC46BDE8AD
:102920007040604700F807C006F0F4BB08B590F8A7
:102930004B3013B1044B01221A7006F0F7FBBDE8CF
:102940000840FFF739BC00BF60D7002008B506F08B
:10295000ABFB044B5B69DB0303D5BDE80840FFF725
:1029600061BF08BD00ED00E006F007BD034B4FF06E
:1029700080629A604FF080729A60704700E100E0D8
:10298000084B4FF08062C3F88820BFF34F8FBFF32E
:102990006F8F4FF08072C3F88820BFF34F8FBFF363
:1029A0006F8F704700E100E010B5144C236823B32B
:1029B000134B144A1B6C11888B4213D1124B19888C
:1029C00004F05CF9226892F86630013382F86630D0
:1029D000FFF7ECFB206807F0E3F90020BDE81040AA
:1029E000FFF7B8BA04F04AF9206803681B6A9847F1
:1029F0000020BDE81040FFF7AEBA10BDFCD80020A3
:102A00000068014064D7002062D70020704708B5F5
:102A100005291CD8DFE801F003070B0F131702F09C
:102A200003FC006808BD02F0FFFB4068FAE702F013
:102A3000FBFB8068F6E702F0F7FBC068F2E702F004
:102A4000F3FB0069EEE702F0EFFB4069EAE70020E4
:102A5000E8E710B5044604211DF0D3FB204610BD65
:102A600000487047E81702080620704713B5002495
:102A700051B1036801AA01948DF803409C680DF1DF
:102A80000303A04702B010BD0846FBE7408970472A
:102A9000808970478088704783798288981880B2CF
:102AA0007047C07900F07F007047C079C009704757
:102AB000704710B5044608211DF0A3FB204610BD49
:102AC0007047704700F596730868496803C37047FC
:102AD000704770474160704770470000064BC0F870
:102AE0004401C0F848310023C0F84C3100F5A07310
:102AF000C0F83C31704700BFED2C00080123037281
:102B000070477047704710B441680346C2689B68BD
:102B1000541001EB6200D20748BF0A595DF8044B1C
:102B200048BFD358184743682BB183682BB9C06896
:102B300000F001007047184670470120704710B53B
:102B400004460C211DF05DFB204610BD10B5044667
:102B500010211DF056FB204610BD10B504464FF461
:102B6000AC711DF04EFB204610BD08B50CF01AFBF1
:102B7000BDE808400CF0F4BE10B50446D0F83C01A6
:102B800058B10368DB68984738B1D4F83C01036852
:102B90009B6898470023C4F83C3110BD2DE9F14FE4
:102BA000D0E9545A0746A86803681B6A984740F260
:102BB0006363984205D8454BA321454A45481DF01B
:102BC0004FFB686803681B6A98470F2803D8424B7D
:102BD000A4213F4AF2E7E86803681B6A98470B287C
:102BE00003D83E4BA5213A4AE8E7DFF8F8900CF00D
:102BF000D9FA0CF0F3FAD9F8000010B10368DB68D9
:102C00009847D9F8000010B103681B689847DFF8AF
:102C1000D880D8F8000010B103685B699847D7F8EE
:102C2000380110B103685B689847D8F8000010B10C
:102C300003681B689847D7F8380110B103689B6890
:102C40009847E86800214FF0000B03685B6A9847DB
:102C5000234B0446C0F804B00360594680F808B01E
:102C6000A86803685B6A9847064602F01BFC686820
:102C7000594603685B6A98470546314602F0F8FBFF
:102C8000C9F80040C7F83851C8F80060E5B12B1DFD
:102C9000CAF8003030463368C5F808A0DB68F56331
:102CA00098472B6828461B689847214630460DF008
:102CB0003DFF236820461B699847236820465B69CF
:102CC00001B0BDE8F04F18472B46E1E77018020845
:102CD000FE180208021A0208491A0208EC1A020831
:102CE000001D02085CD9002058D900202DE9F14FC1
:102CF000D0E9545A0746A86803681B6A98474BF204
:102D0000E723984205D8454BA321454A45481DF085
:102D1000A7FA686803681B6A98470F2803D8424BD4
:102D2000A4213F4AF2E7E86803681B6A98470B282A
:102D300003D83E4BA5213A4AE8E7DFF8F8900CF0BB
:102D400031FA0CF04BFAD9F8000010B10368DB68D7
:102D50009847D9F8000010B103681B689847DFF85E
:102D6000D880D8F8000010B103685B699847D7F89D
:102D7000380110B103685B689847D8F8000010B1BB
:102D800003681B689847D7F8380110B103689B683F
:102D90009847E86800214FF0000B03685B6A98478A
:102DA000234B0446C0F804B00360594680F808B0CD
:102DB000A86803685B6A9847064602F027FB6868C4
:102DC000594603685B6A98470546314602F078FA2F
:102DD000C9F80040C7F83851C8F80060E5B12B1DAC
:102DE000CAF8003030463368C5F808A0DB68F563E0
:102DF00098472B6828461B689847214630460DF0B7
:102E000095FE236820461B699847236820465B6926
:102E100001B0BDE8F04F18472B46E1E770180208F3
:102E20008F1B0208021A0208491A0208EC1A02084B
:102E3000001D02085CD9002058D90020F8B50446CE
:102E400017460E460CF0E6F9104B00251C6029468B
:102E50000F4BC4E954760F4E236030680E4BC4E923
:102E60005255C4E950350368C4E94E559B689847EC
:102E7000284602F08DF9336893F876200AB1D86CB1
:102E800000B9986814F029FC2046F8BD68D90020E4
:102E9000B41C0208FCD800209C1C0208064BC0F899
:102EA0004401C0F848310023C0F84C3100F5A0734C
:102EB000C0F83C31704700BFED2C0008064BC0F84D
:102EC0004401C0F848310023C0F84C3100F5A0732C
:102ED000C0F83C31704700BF9D2B0008006A704766
:102EE000406A704770478B888069DB0A0A6850F82F
:102EF00023001044704710B5C2B1137BB3B1547BAB
:102F0000D27A240204F4E0641443C26998B202EB5A
:102F1000840213888B4202D192F9020010BD05D8B9
:102F20000138043280B20028F3D1F7E70020F5E73A
:102F300010B5044628211DF064F9204610BD00009C
:102F400030B589B00446BDF850500695BDF84C50D8
:102F500005959DF8405004959DF83C5003959DF8CB
:102F6000385002959DF8345001959DF830500095E9
:102F70000DF06AF9064B20462360119BA361129B5A
:102F8000E361159B2362169B636209B030BD00BFED
:102F9000241D02080020704781807047C18070475F
:102FA0000181704741817047704770477047704793
:102FB000704710B4C4880368121B84885B6D091BBA
:102FC00012B25DF8044B09B218474FF6FF738381C4
:102FD0004FF0FF3303621368C36110607047806A6B
:102FE00070477047704770477047704790F82520CA
:102FF0001AB190F8242002B11860704730B585B03E
:103000000368044601816D460146D3F884303C34A0
:103010002846984795E8070084E8070005B030BDCA
:1030200030B585B00368044641816D460146D3F84A
:1030300084303C342846984795E8070084E8070028
:1030400005B030BD0022028042808280C28070477D
:1030500080F836107047036870B504461B6B154640
:1030600098472368204629465B6EBDE870401847A4
:1030700000207047806C7047006B7047406B704752
:1030800080F82C10704710B40368046BD3F8A43098
:10309000624361435DF8044B1847D0ED0C7A036836
:1030A000F8EEE77A10B420EE270AD3F8A440B5EE84
:1030B000C00AF1EE10FA1ADBB6EE007A30EE070A1B
:1030C000BDEEC07A17EE101A60EEA70AF5EEC00A40
:1030D000F1EE10FA1EDBF6EE007A70EEA70AFDEEB6
:1030E000E07A17EE902A23465DF8044B1847BDEEB0
:1030F000C07AF8EEC76A17EE103A013B30EE660A66
:10310000F7EE086A30EE260ABDEEC00A10EE101A7D
:103110001944D9E7FDEEE07AB8EEE77A17EE903A77
:10312000013B70EEC70AB7EE087A70EE870AFDEE33
:10313000E00A10EE902A1A44D5E710B40368046B35
:10314000D3F8B03062435DF8044B1847D0ED0C7AE9
:103150000368F8EEE77A10B427EE800AD3F8B0409F
:10316000B5EEC00AF1EE10FA0BDBF6EE007A30EEA7
:10317000270AFDEEC07A17EE902A23465DF8044B2D
:103180001847FDEEC07AB8EEE77A17EE903A013BA9
:1031900030EE470AB7EE087A30EE070ABDEEC00AF5
:1031A00010EE102A1A44E8E710B40368446BD3F811
:1031B000BC30624361435DF8044B1847D0ED0D7A93
:1031C0000368F8EEE77A10B420EE270AD3F8BC4083
:1031D000B5EEC00AF1EE10FA1ADBB6EE007A30EE68
:1031E000070ABDEEC07A17EE101A60EEA70AF5EED8
:1031F000C00AF1EE10FA1EDBF6EE007A70EEA70AB6
:10320000FDEEE07A17EE902A23465DF8044B18474E
:10321000BDEEC07AF8EEC76A17EE103A013B30EE09
:10322000660AF7EE086A30EE260ABDEEC00A10EE16
:10323000101A1944D9E7FDEEE07AB8EEE77A17EEF6
:10324000903A013B70EEC70AB7EE087A70EE870A33
:10325000FDEEE00A10EE902A1A44D5E710B4036898
:10326000446BD3F8C03062435DF8044B1847D0ED8F
:103270000D7A0368F8EEE77A10B427EE800AD3F8E7
:10328000C040B5EEC00AF1EE10FA0BDBF6EE007AA4
:1032900030EE270AFDEEC07A17EE902A23465DF83D
:1032A000044B1847FDEEC07AB8EEE77A17EE903A75
:1032B000013B30EE470AB7EE087A30EE070ABDEE62
:1032C000C00A10EE102A1A44E8E7D0F82C31026B3D
:1032D000002B07DB02EB430090FBF2F000EBD07019
:1032E000401070476FF0010101FB0320013890FB93
:1032F000F2F000EBD070401040427047D0ED4B7AB6
:1033000090ED0C0AF8EEE77AB8EEC00A87EE800A74
:103310007047D0F82C017047D0F83031026B002B89
:1033200007DB02EB430090FBF2F000EBD0704010A3
:1033300070476FF0010101FB0320013890FBF2F0B0
:1033400000EBD070401040427047D0ED4C7A90EDC9
:103350000C0AF8EEE77AB8EEC00A87EE800A7047EA
:10336000D0F830017047D0F83431426B002B07DBC6
:1033700002EB430090FBF2F000EBD070401070477E
:103380006FF0010101FB0320013890FBF2F000EB2C
:10339000D070401040427047D0ED4D7A90ED0D0A4C
:1033A000F8EEE77AB8EEC00A87EE800A7047D0F8E8
:1033B00034017047D0F83831426B002B07DB02EB49
:1033C000430090FBF2F000EBD070401070476FF0BC
:1033D000010101FB0320013890FBF2F000EBD070FB
:1033E000401040427047D0ED4E7A90ED0D0AF8EE55
:1033F000E77AB8EEC00A87EE800A7047D0F8380145
:103400007047036870B50446D3F888300D461646F9
:1034100098472368324629462046D3F89030BDE8C5
:10342000704018470368D3F8943018470368D3F8FE
:10343000D43018470368D3F8E03018470368002AEF
:1034400010B4D3F8A430046B0EDB04EB420292FB01
:10345000F4F101EBD1714910B0F91E215DF8044B74
:10346000013A0A44494218476FF0010101FB024149
:10347000013991FBF4F101EBD17149104942EBE7BD
:103480000368D3F83C311847026B03685143D3F803
:10349000483118470368D3F844311847D0ED0C7A07
:1034A0000368F8EEE77AD3F8482127EE800AB5EEF4
:1034B000C00AF1EE10FA08DBF6EE007A30EE270AC9
:1034C000FDEEC07A17EE901A1047FDEEC07AB8EE06
:1034D000E77A17EE903A013B30EE470AB7EE087AEA
:1034E00030EE070ABDEEC00A10EE101A1944EBE7E1
:1034F000C0F83C1170470368D3F85031184703688F
:1035000010B5D3F85C31044698470028236B07DBDD
:1035100003EB400090FBF3F000EBD070401010BDC7
:103520006FF0010202FB0030013890FBF3F000EB7A
:10353000D07040104042F2E70368D3F85831184782
:10354000036810B5D3F85C310446984707EE900A3B
:10355000B8EEE70AD4ED0C7AF8EEE77A80EE270AA7
:1035600010BDD0F83C017047026B03685143D3F89B
:1035700068311847D0ED0C7A0368F8EEE77AD3F893
:10358000682127EE800AB5EEC00AF1EE10FA08DBDA
:10359000F6EE007A30EE270AFDEEC07A17EE901AAA
:1035A0001047FDEEC07AB8EEE77A17EE903A013B8D
:1035B00030EE470AB7EE087A30EE070ABDEEC00AD1
:1035C00010EE101A1944EBE7C0F840117047036879
:1035D00010B5D3F87431044698470028236B07DBF5
:1035E00003EB400090FBF3F000EBD070401010BDF7
:1035F0006FF0010202FB0030013890FBF3F000EBAA
:10360000D07040104042F2E7036810B5D3F874312F
:103610000446984707EE900AB8EEE70AD4ED0C7A14
:10362000F8EEE77A80EE270A10BDD0F84001704727
:103630000846704703680029026BD3F8843110B53F
:1036400004460EDB02EB410191FBF2F101EBD1717B
:10365000491009B220469847D4E94F2302FB0030B5
:1036600010BD6FF0010000FB0121013991FBF2F167
:1036700001EBD17149104942EBE7006B7047406B99
:1036800070470368D3F8483118470368D3F85C31B2
:103690001847026B03685143D3F814311847036885
:1036A00070B5D3F818510446D0F84461D3F880318E
:1036B00098472B4656F820102046BDE87040184722
:1036C00010467047D0F83C21036852F82110D3F817
:1036D00014311847D0F84021036852F82110D3F86C
:1036E00018311847D0F84831B0F91E011944081AAA
:1036F000704780F82610704790F8260070470163E5
:103700007047006B70470120704770477047006C2E
:1037100018B10368D3F8843018477047B2F81A110B
:1037200030B5B2F91441B2F940502144B2F8422008
:103730004480521A002185800180C28030BD10B5BE
:103740004280BDF90840BDF90C2004808280C3800E
:1037500010BD0B680846D3F8D43018470B680846EC
:10376000D3F8E0301847B1F914017047B1F81431BB
:10377000B1F81A21B1F842001344C01A00B27047E0
:10378000B1F916017047B1F81631B1F81821B1F846
:1037900040001344C01A00B270470B680846114637
:1037A000D3F8143118477047704770477047704717
:1037B000704770477047704730B444680346C2682A
:1037C0009B68551004EB6200D20748BF625930BCB9
:1037D00048BFD358184743682BB183682BB9C068DA
:1037E00000F001007047184670470120704700F54F
:1037F000E040A0F8481E704700F5E040B0F8480EE1
:10380000704710B504464C211CF0FBFC204610BD4F
:1038100010B5044644211CF0F4FC204610BD10B540
:10382000044641F20C411CF0ECFC204610BD10B5E2
:10383000044647F660611CF0E4FC204610BD10B55C
:10384000044610211CF0DDFC204610BD10B50446D6
:103850004BF2C0211CF0D5FC204610BD90F82C3056
:103860000BB105F085B9704713B503460846D3E997
:103870000D1403680191D3F88C30984701990246E2
:10388000204602B0BDE8104007F0FEBB90F82520AE
:1038900012B103685B691847704700000A1E10B533
:1038A00003DBB0F91E41944206DC084B40F2316163
:1038B000074A08481CF0D4FC0368D0F84441D3F808
:1038C0008031984754F8200010BD00BF741D0208D5
:1038D000971D0208E61D02080B1E10B5044603DB07
:1038E000B0F91E219A4206DC074B40F22B61074AD1
:1038F00007481CF0B5FC0368D3F884319847D4E935
:103900004F2302FB003010BD741D0208431E020845
:10391000E61D0208002908B503DBB0F91E318B4211
:1039200006DC064B40F2EB61054A06481CF098FCA9
:10393000D0F8403153F8210008BD00BF741D0208C3
:10394000921E0208E61D0208002908B503DBB0F943
:103950001E318B4206DC064B40F2DB61054A06480D
:103960001CF07EFCD0F83C3153F8210008BD00BFAC
:10397000741D0208E01E0208E61D02080368828D1D
:1039800070B55E6B0446114B8DB21B682BB9104BA2
:10399000AE21104A10481CF063FC1049098891427E
:1039A00003D80F4BAF210B4AF4E713F812200D4B4D
:1039B0001B6853F822000368DB6A9847281A3346CD
:1039C00001B22046BDE87040184700BF6CD9002006
:1039D0002E1F0208701F02089E1F020870D90020C7
:1039E000E51F020874D9002000F5154264329142A7
:1039F00010B504D103685B6BBDE81040184700F5B3
:103A00001542EC32914202D103681B6BF4E700F5DA
:103A100016433433994205D10BF0C4FBBDE8104086
:103A2000FFF74CBA10BD2DE9F04100F5E044064621
:103A300094F8443E002B54D0B4F8463EB4F8482ED7
:103A400001339BB29342A4F8463E4AD39B1AB4F882
:103A5000502ED4F8547E00219DB2B4F84C3ED21AB8
:103A60002846B4F84A3E12B2B847B4F84E3EB4F80D
:103A7000522E80460021D4F8587ED21A2846B4F837
:103A80004A3E12B2B847B4F84E3E1844B4F84C3E21
:103A900008EB030102B2304609B2FFF78AFAB4F824
:103AA000483EB4F84A1EB4F8462E0B449A4218D346
:103AB000002384F8443EA4F8463E0BF073FB3146E5
:103AC0000BF076FBD4F85C0E58B10368DB689847BE
:103AD00038B1D4F85C0E31460368BDE8F0419B680C
:103AE0001847BDE8F08100224FF0FF318260C0E945
:103AF00000217047036870B504461B6B1546984754
:103B00002368204629465B6BBDE87040184770B5B6
:103B100004461D46BDF91060FFF7ECFF23682946F7
:103B200020469B6B9847236831462046DB6BBDE8F7
:103B300070401847094A4FF4807102600022818466
:103B4000FF21826280F82610C0E90122C0E9032229
:103B5000C0E90522C0E90722704700BFC043020840
:103B60004FF48071002281840D49026381624FF617
:103B7000FF71028781854FF47F01C2634163094968
:103B8000826401604FF0FF31C0E90122C0E90322E5
:103B9000C0E90522C0E90722C0E91012704700BF42
:103BA000681802082821020837B501AB15460CF049
:103BB00047FC00282A4601994FEA40144FF02000A4
:103BC00004DB0CF05CFC204403B030BD0CF057FC6F
:103BD000201AF9E770B5B0F81A310E46B0F9144161
:103BE000B0F842502344ED1A2DB22C44691ED0E99E
:103BF0004D32013CD21AF01AFFF7D6FFC0EB441049
:103C000070BD38B504460846B4F81631B4F818113A
:103C10000B44B4F84010C91AD4E94B5209B2521BF4
:103C2000401B0139FFF7C0FFB4F9163100EB431018
:103C300038BD000070B50023FF22144E0446027206
:103C40004360134AC0E903333368026093F8762077
:103C50000AB1D86C00B998680368DB6A9847336882
:103C6000B0FA80F5D86C6D0930B10368DB6A98470B
:103C7000002808BF45F001052DB9064B2C21064A46
:103C800006481CF0EDFA204670BD00BFFCD80020AD
:103C9000203902082320020881200208BA200208E5
:103CA00010B5044606F03CFC0B4A00232046226077
:103CB0000122236384F84430A4F84630E364C4E965
:103CC0000D23064AE2634FF6FF72A4F840202E222D
:103CD000A4F8482010BD00BF2C4202086818020852
:103CE0001A4B73B51B880646018F8B422CD9184B93
:103CF0001B682BB9174BAE21174A18481CF0B0FAB5
:103D000013F81120164B1B6853F82250154B1868F6
:103D100001F07AFA2B68014601909B6A2846984781
:103D20002B68044601991B6C2846984714FB00F445
:103D30002B682846E4B201995B6A98472318DBB2E6
:103D400086F8453002B070BD0023F9E770D9002035
:103D50006CD900202E1F0208701F02089E1F020847
:103D600074D9002078D900202DE9F04F05460026AF
:103D70004FF00109DFF8F8B205F1E40A05F58057C4
:103D800005F5AE5805F510442DED0A8B95B008F1F8
:103D900018080CF01FFD2A46A44BEE6342F8403B86
:103DA000104609EE902AFFF7C5FE05F16C03184690
:103DB0000BEE903AFFF7BEFE05F1980318460AEEA7
:103DC000103AFFF7CDFE4FF49661504607F0EAF83F
:103DD000974B314640F2AF42C5F8E43005F50C731D
:103DE0005046C5E98A36C5E98896FFF74CF9914BEC
:103DF000C5F8E43005F5A753103318460AEE903A9B
:103E000006F08EFB8C4BC7F8F0344FF0020387F8B6
:103E10001E3505F5A95318460CEE103AFFF70AFFB8
:103E200005F5A953C7F820B51833C7F83465184607
:103E30000393FFF735FF05F5AC52804B0832C7F806
:103E4000383510460492FFF72BFF7D4A4FF47A6114
:103E50004046C7F8882507F0A5F87A4A314640461B
:103E6000C7F8D82508F5A272C7F8142708F57F52BD
:103E70000432C7F8182740F69F72FFF704F905F5DA
:103E80001441714A3831C7F8D825084684F81C64B3
:103E9000A4F81E640BEE101AC4F82064C4F824645D
:103EA000C4F82864C4F82C64C4F83064C4F83464DA
:103EB00006F036FB4FF002015F4B84F8661405F5FF
:103EC0001441C4F83834683108460991FFF7B2FE4E
:103ED00005F51441C4F868B405F5154B8031C4F8F4
:103EE0007C640BF1A00B0846059106F019FB0A2132
:103EF000564BC4F8B81405F51441C4F88034C431E5
:103F0000C4F8B064C4F8B494084684F8BC94C4F807
:103F1000C0640691FFF7C4FE484BC4F8C43405F5ED
:103F20001543143318460793FFF7BAFE05F51543FA
:103F3000434A6433C4F81425184608EE903A09F051
:103F4000CDFA5846FFF70CFE05F51543EC3318463D
:103F500008EE103A09F0B4FB05F516433433184661
:103F600009EE103A09F0BAFA394B05F516404FF44C
:103F7000E151C4F89036374BA030C4F89456C4F8D9
:103F80009836C4F89C6609F0C9FB4FF48873324632
:103F9000314619EE900A00934FF4F073FFF7B7FD26
:103FA0004FF07F4332463146AB664FF488731BEEC9
:103FB000900A00934FF4F073FFF7A9FD4FF0FF3321
:103FC00010224FF4BF71C5F8943021231AEE100A65
:103FD00000936223FFF79BFD4FF07F431AEE101A08
:103FE0000AA8C5F8C830D5F89830A5F8CC60D3F841
:103FF000843098470AAA05F1D40307CA83E807006A
:1040000005F5164370330893134B1B682BB9134BFC
:10401000AE21134A13481CF023F9134B1B88152BB0
:1040200028D8124BAF210E4AF4E700BF68250208DA
:10403000103C0208742202085C400208E4400208B6
:1040400088410208D43A02080C240208B821020868
:1040500050250208E93900086CD900202E1F0208FB
:10406000701F02089E1F020870D90020E51F020879
:1040700000390208E34B1521186801F0C5F8E24A3F
:104080000346062108980EF0B3F8089A162312A9E1
:10409000C5F8E0201AEE100ADC4AADF84C30129256
:1040A00008F02EFF494632465046FFF7AAF9F021A4
:1040B00040F27F131022504600910B21FFF727FD9D
:1040C0000E210223372250460091062106F01CFFE4
:1040D0006FF00E03092203215046009606F0E5FD1D
:1040E000FA220A215046FFF75FF84A46D7F86C15C6
:1040F000D7F8700506F0C8FFC8211323C7F86C95E0
:10410000C7F870154FF0FF31A7F878355046C7F85B
:104110006815039906F0F8FD4A46D7F8BC15D7F89C
:10412000C00506F0B1FF19211423C7F8BC95C7F8E4
:10413000C0154FF00201A7F8C8355046A7F8CE15B4
:104140004FF0FF31C7F8B815049906F0CBFDB04B1E
:104150001CEE101A1AEE900AC7F8343506F0DCF897
:104160004FF00201504687F81E151AEE901A06F01D
:10417000A7FD49463246404606F0E8FF494632462A
:10418000404607F006F8F02140F27F131022404627
:1041900000910B219F4FFFF7BAFC0E21022337221B
:1041A00040460091062106F0AFFE6FF00F03092292
:1041B00003214046009606F078FD4FF496623146A2
:1041C0004046FEF760FFFA220A214046FEF7ECFF68
:1041D0004A46D4F8B414D4F8B80406F055FF8E4B10
:1041E00005994046C4F8B0343223C4F8B494C4F8F6
:1041F000B83484F8BC9406F063FD4A46D4F8F81449
:10420000D4F8FC0406F040FF1123C8214046A4F86E
:104210000435C4F8F894C4F8FC14C4F8F47406998E
:1042200006F072FD4A46D4F84815D4F84C0506F05D
:104230002BFF192112234046C4F84C154FF0020100
:10424000C4F8489505F51649A4F85435A4F85A154C
:1042500009F17C090799C4F8447505F5164706F07D
:1042600041FD6E4B09991BEE100AC4F87C3490375F
:1042700006F052F84FF00201404684F866141BEE37
:10428000101A06F01DFD4C224FF4C97118EE900A69
:10429000FFF730FC12A9032318EE900A009111A930
:1042A000ADF84430ADF848300B4610A9ADF83C608D
:1042B000ADF840600A460FA909F06CF84FF01013F2
:1042C00031224FF4C9715846C4F89C35C4F88C7536
:1042D000FFF710FC4FF07F41D4F8A0350AA8C4F8CE
:1042E000D0155946D3F88430A4F8D46598470AA964
:1042F0000BF13C0307C983E8070049490B68002B11
:104300003FF485AE47490B880F2B7FF68AAE3D4BB5
:104310000F21186800F078FF3B4A03460A214846FF
:104320000DF066FF5846C4F8E89508F0C9FD102363
:10433000364A12A95846ADF84C30129208F0E0FD0A
:1043400018EE100A882240F29111FFF7D3FB12AA4F
:1043500011A918EE100AADF84460ADF8486008F0F5
:104360002DFE4FF00E0318EE100AA4F82436FFF7C6
:10437000B7FC4FF0FF3319EE100AC4F81476C4F8F6
:104380002836D422C4F82C364FF4C971FFF7B2FB9B
:10439000042310AA0FA9ADF8443019EE100AADF8A5
:1043A000483012ABADF83C60009311ABADF8406003
:1043B00008F0F0FF4FF00F13C4F85C7619EE901A76
:1043C000C4F86C362C1D204604F016FC1BEE901A27
:1043D000204604F011FC1AEE101A204604F00CFCE2
:1043E0005146204604F008FC4146204604F004FCF7
:1043F00018EE901A204604F0FFFB5946204604F0C0
:10440000FBFB11E078D900201C2102086818020883
:104410001616C4FF0000FFFFC59714FF20C217FF48
:104420006CD9002070D9002018EE101A204604F034
:10443000E3FB204619EE101A04F0DEFB284615B007
:10444000BDEC0A8BBDE8F08F70477047704730B401
:1044500044680346C2689B68551004EB6200D207AB
:1044600048BF625930BC48BFD358184743682BB186
:1044700083682BB9C06800F0010070471846704788
:104480000120704710B5044610211BF0BAFE2046EB
:1044900010BD10B5044640F264611BF0B2FE204628
:1044A00010BD9830884208B505D10AF07BFEBDE802
:1044B0000840FEF7F3BC08BD0022C0E90122C0E9B4
:1044C0000322C0E90522C0E907224FF480728284EA
:1044D000014A0260704700BFA825020810B50446D3
:1044E000262200211CF0AFF82046FFF7E5FF00234D
:1044F0002046A36284F82C30012384F82430044B36
:1045000023604FF6FF73E385238684F8323010BDB5
:104510008C44020810B50446262200211CF093F8B2
:104520002046FFF7C9FF0A4B4FF47F022046236065
:10453000084BA3624FF6FF73A3850023C4E90C3236
:104540004FF0FF322387E363C4E9102310BD00BF9F
:1045500000430208681802082DE9F04F04460027BE
:104560004FF4887504F29C4A04F59D6B04F20468CC
:104570002DED108B95B00CF02DF92246DD4B12AECF
:10458000E76342F8403B104608EE102AFFF7D2FAE4
:1045900004F16C0318460493FFF7CCFA04F1980376
:1045A00018460CEE903A08F099FF04F1D40318462F
:1045B00008EE903AFFF7AEFF04F58E73184609EE49
:1045C000103AFFF7A7FF04F5B273184609EE903AC8
:1045D000FFF7A0FF04F5D67318460AEE103AFFF76E
:1045E00099FF04F5FA7318460593FFF7A3FA04F54B
:1045F000087318460693FFF79DFA04F513731846DF
:104600000AEE903AFFF7ACFA04F5267318460BEE63
:10461000103AFFF7A5FA04F5397318460DEE103A73
:10462000FFF75CFF04F5467318460DEE903AFFF76E
:1046300055FF04F5537318460EEE103AFFF74EFF80
:1046400004F5607318460EEE903AFFF747FF04F545
:104650006D7318460BEE903AFFF75CFF04F57F731D
:1046600018460CEE103AFFF755FF04F24443184683
:104670000793FFF75FFA04F58E6318460893FFF778
:1046800059FA5046FFF76CFA5846FFF769FA04F2F8
:10469000345318460FEE103AFFF720FF04F5AD63D0
:1046A00018460FEE903AFFF719FF04F29C53184694
:1046B0000293FFF713FF04F5BA6318460393FFF75D
:1046C0000DFF8D4B3A463946C4F8543618EE100AA1
:1046D0008A4B0095C4F85C364FF4F073C4F8584622
:1046E000C4F86076FFF713FA4FF07F433A46394635
:1046F0000498A3664FF4F07300950AADFFF707FA2C
:104700004FF0FF337F224FF4D2711CEE900AC4F8B1
:104710009430FFF7EFF94FF0010310AA0FA91CEE38
:10472000900AADF84430ADF8483011AB0096ADF8C2
:104730003C70ADF8407008F02DFE714B0B2211213A
:1047400018EE900AC4F8D03004F25463C4F8C030B4
:104750001E230093E423FFF7DAF96A4B18EE901A50
:104760002846C4F80431A4F8087108F077F804F575
:10477000887395E8070083E80700634B314618EE1D
:10478000900A12930D23ADF84C3008F0B9FB1D22AE
:10479000DE23142119EE100A00922922FFF7B7F93F
:1047A0004FF07F4219EE101A2846C4F84C21A4F8A5
:1047B000507108F053F804F5AC7395E8070083E8EE
:1047C0000700514B314619EE100A12930C23ADF835
:1047D0004C3008F095FB1F224FF48273112119EE23
:1047E000900A00928F22FFF792F9484B19EE901A27
:1047F0002846C4F89431A4F8987108F02FF804F50D
:10480000D07395E8070083E807003F4B314619EE67
:10481000900A12930B23ADF84C3008F071FB1D2267
:1048200078234FF490711AEE100A00922922FFF7B4
:104830006EF94FF07F421AEE101A2846C4F8DC21B8
:10484000A4F8E07108F00AF804F5F47395E807009D
:1048500083E807002C4B31461AEE100A12934FF0F2
:104860000A03ADF84C3008F04BFB46221F23059895
:10487000114600937B23FFF74AF9254B1F2240F294
:104880001F110698C4F81C327B2300924622FFF7C2
:104890003EF91F4B4C226521C4F8483212231AEE10
:1048A000900A00933D23FFF732F94FF07F431AEE51
:1048B000901A2846C4F87C32D4F84C32A4F880729E
:1048C000D3F88430984704F5227395E8070083E80D
:1048D0000700104B1B682BB90F4BAE210F4A104835
:1048E0001BF0BEFC0F4B1B88082B1FD80E4BAF21B3
:1048F0000A4AF4E72826020810260208A344000802
:1049000016000F002BCF4CFF681802081818EDFF97
:10491000AD8F57FF6CD900202E1F0208701F0208B0
:104920009E1F020870D90020E51F0208E04B0821F5
:10493000186800F069FCDF4A03460A2140460DF082
:1049400057FCDD4B31461AEE900A12930923C4F846
:10495000948204F5C368ADF84C3008F0D1FA122106
:104960004C223D231BEE100A00914FF49F71FFF77C
:10497000CEF84FF07F41D4F898322846C4F8C812D8
:104980001BEE101AD3F88430A4F8CC72984704F5C3
:10499000357395E8070083E80700C8490B68002BCA
:1049A0009AD0C7480388062BA0D9C14A06214FF0E8
:1049B0000509106800F028FCBE4A03460A2140465B
:1049C0000DF016FCBC4B31461BEE100A1293072368
:1049D000C4F8E0824FF00208ADF84C3008F090FACD
:1049E0006E2246211DEE100AFFF784F80DF1440CEB
:1049F00032461DEE100A6146ADF84490ADF848907D
:104A000008F0DCFA6E224FF490711DEE900AFFF769
:104A100071F80DF1440C32461DEE900A6146ADF876
:104A20004490ADF8489008F0C9FA6E22A2211EEE1B
:104A3000100AFFF75FF80DF1440C32461EEE100A23
:104A40006146ADF84480ADF8488008F0B7FA6E22B0
:104A50004FF4BE711EEE900AFFF74CF80DF1440CB6
:104A600032461EEE900A6146ADF84480ADF84880AB
:104A700008F0A4FA4FF01D0CDE23AE220F211BEE2E
:104A8000900ACDF800C0FFF742F84FF07F4C1BEEC4
:104A9000901A2846C4F8E4C3A4F8E87307F0DEFED1
:104AA00004F57C7395E8070083E80700824B3146E4
:104AB0001BEE900AADF84C90129308F021FA4FF0DB
:104AC0001D0C7823AE2240F21B111CEE100ACDF80B
:104AD00000C0FFF71CF84FF07F4C1CEE101A284660
:104AE000C4F82CC4A4F8307407F0B8FE04F587634A
:104AF00095E8070083E807006F4B31461CEE100A6B
:104B000012930423ADF84C3008F0FAF94FF01F0C63
:104B10007B23CB2241210798CDF800C0FEF7F7FF99
:104B20004FF01F0C674A7B234FF48D710898C4F82F
:104B30006C24CB22CDF800C0FEF7E9FF4FF0120C39
:104B4000604A3D2360215046C4F89824D122CDF814
:104B500000C0FEF7DCFF4FF07F4CD4F89C34514688
:104B60002846C4F8CCC4D3F88430A4F8D07498474D
:104B700004F59B6304F22C6C95E8070083E80700BA
:104B80004E49CDF824C00B68002B3FF4A5AE4C482D
:104B9000038843457FF6AAAE454A4146106800F0B7
:104BA00033FB444A03460A2109980DF021FB424B8E
:104BB000099A3146129303235046C4F8E424ADF811
:104BC0004C3008F09DF94FF0120CD1223D2340F2F9
:104BD00039115846CDF800C0FEF799FF4FF07F4CD1
:104BE000D4F8E83428465946C4F818C5D3F88430B8
:104BF000A4F81C75984704F2245395E8070083E84D
:104C000007002E4904F5C8650B68002B3FF464AE1D
:104C10002B480388002B3FF469AE254A39461068BB
:104C200000F0F2FA234A03460A2128460DF0E0FA82
:104C3000214B3146584612934FF00103C4F83055CA
:104C4000251DADF84C3008F05BF91FEE100AF32279
:104C50004121FEF74FFF324611A91FEE100AADF8B1
:104C60004490ADF8489008F0A9F91FEE900AF3229D
:104C700040F21B11FEF73EFF324611A91FEE900ACB
:104C8000ADF84490ADF8489008F098F90298F322F6
:104C90009D21FEF72FFF324611A90298ADF84480FE
:104CA000ADF8488008F08AF90398F3220CE000BFC1
:104CB00078D900201C210208681802086CD900204D
:104CC00070D90020AD8F57FF40F27711FEF712FF29
:104CD000324611A90398ADF84480ADF8488008F039
:104CE0006DF918EE101A284603F086FF049928463D
:104CF00003F082FF1CEE901A284603F07DFF18EEA9
:104D0000901A284603F078FF19EE101A284603F08F
:104D100073FF19EE901A284603F06EFF1AEE101A70
:104D2000284603F069FF0599284603F065FF0699B8
:104D3000284603F061FF1AEE901A284603F05CFF44
:104D40001BEE101A284603F057FF1DEE101A2846D6
:104D500003F052FF1DEE901A284603F04DFF1EEEA1
:104D6000101A284603F048FF1EEE901A284603F05A
:104D700043FF1BEE901A284603F03EFF1CEE101A6C
:104D8000284603F039FF0799284603F035FF0899B4
:104D9000284603F031FF5146284603F02DFF5946BF
:104DA000284603F029FF1FEE101A284603F024FFBF
:104DB0001FEE901A284603F01FFF0299284603F0C1
:104DC0001BFF2846039903F017FF204615B0BDECE2
:104DD000108BBDE8F08F00BF7047000030B5164D56
:104DE0008DB02C68BFF35B8F14F0010421D12846ED
:104DF0001BF009FAE8B1114B01221149114808943E
:104E00000394CDE909433F2307930F4B06930F4BC0
:104E1000CDE904430423CDE9013203230F2200939B
:104E20000E23FEF78DF80A481BF038FA28461BF0CF
:104E3000F6F904480DB030BD68D700208C2A02086E
:104E40002C8500906CD7002010610208E4610208F4
:104E5000D94D00087047000030B5164D8DB02C6854
:104E6000BFF35B8F14F0010421D128461BF0CBF96E
:104E7000E8B1114B0422114911480894CDE90943C6
:104E80003F2307930F4B06930F4B05930123CDE967
:104E9000034302930323CDE9003211230F22FEF7CF
:104EA0004FF80A481BF0FAF928461BF0B8F90448F5
:104EB0000DB030BD94D700208C2A020800860090E7
:104EC00098D7002014610208E8610208554E0008D6
:104ED0007047000030B5154D8DB02C68BFF35B8F67
:104EE00014F001041FD128461BF08DF9D8B13F23DF
:104EF00001220F4907930F4B0F4806930F4B08945D
:104F00000394CDE904430423CDE90944CDE90132FA
:104F1000009321221423FEF713F809481BF0BEF971
:104F200028461BF07CF904480DB030BDC0D70020E6
:104F3000D486009018610208C4D70020EC610208F2
:104F4000D14E00087047000030B5164D8DB02C686A
:104F5000BFF35B8F14F0010420D128461BF053F9F6
:104F6000E0B13F23012210490793104B10480693EC
:104F7000104B08940394CDE904430423CDE9013296
:104F800003231B2200930E23CDE90944FDF7D8FF2C
:104F900009481BF083F928461BF041F904480DB07D
:104FA00030BD00BFECD70020A4880090C06102088B
:104FB000F0D70020F0610208454F0008704700005C
:104FC00030B5154D8DB02C68BFF35B8F14F0010424
:104FD0001FD128461BF017F9D8B13F230B220F49E8
:104FE00007930F4B0F4806930F4B0894059301232B
:104FF000CDE9034302930423CDE90944CDE90043FD
:105000001023FDF79DFF09481BF048F928461BF0C7
:1050100006F904480DB030BD18D80020208A009051
:10502000C86102081CD80020F4610208BD4F0008C6
:105030007047000030B5154D8DB02C68BFF35B8F05
:1050400014F001041ED128461BF0DDF8D0B13F2337
:1050500001220F4907930F4B0F4806930F4B0894FB
:1050600003940094CDE904430423CDE90944CDE938
:1050700001322823FDF764FF09481BF00FF9284689
:105080001BF0CDF804480DB030BD00BF44D800205F
:10509000BC8A0090E061020848D80020F86102084C
:1050A0003150000800207047002070470EB403B54F
:1050B00003AB002153F8042B01930AF0F5FE02B074
:1050C0005DF804EB03B070470CB407B504AB53F8BC
:1050D000042B01930AF0E8FE03B05DF804EB02B084
:1050E00070470000436C10B5044673B3038F2BB9AF
:1050F000184BC021184A19481BF0B2F8C38E00EBB8
:1051000043035B8C0BB30CF0ABFA238F012B03D85A
:10511000134BC521134AEEE7E28E40F63F10531CB5
:105120009BB2092B194688BFA3F10A0104EB410188
:10513000498C814209D10A2B04EB420228BF00238B
:10514000508C04EB4303588451842046BDE8104042
:105150000CF06AB9AC2A0208B52A0208602B0208D2
:10516000AA2B0208B82B02080CF016B910B586B0AD
:1051700002AC84E806001A460AAB21460593019367
:10518000099B0093089B09F096FB06B010BD000038
:1051900038B518BB124B13481C681349B4B12268C8
:1051A00022440260626822440A60A26814440F4BE1
:1051B00000221A8000F038F8054600F033F80C4B56
:1051C0001C600C4B1D600C4B188007E00B4B036000
:1051D0000B4B0B600B4B1C68002CE8D138BD00BF9B
:1051E00070D8002074D8002078D800207CD8002007
:1051F0006CD9002074D9002070D90020288B009031
:10520000CC8A00900C8C0090044B1B6853F8210052
:10521000034B1B6803EB4000704700BF78D80020A9
:1052200074D80020172070470048704780D80020AD
:1052300010B50A4CFFF7C4FE2060FFF7FBFE60606C
:10524000FFF7CCFDA060FFF707FEE060FFF77CFEF4
:105250002061FFF73FFE606110BD00BF80D80020D5
:10526000704710B504464FF4AC711AF0CAFF2046DF
:1052700010BD10B50446D0F8540100F012F82046D5
:10528000BDE8104009F076BE10B50446FDF7D6FD26
:10529000014B2046236010BD942C020800220260BE
:1052A00070477047704704387047704710B5044620
:1052B00010211AF0A6FF204610BDA0F10400F5E76A
:1052C0000022C1608260044A10B502F10804203255
:1052D0000460426010BD00BFD82C020870477047C0
:1052E000FEF764BA37B51F4D044600F516401E4A56
:1052F0002B6806217030019301AB0DF037F904F1F2
:1053000098000AF0F3FED4ED467A95ED007A04F1A8
:10531000E400F8EEE77A67EE877AF5EEC07AF1EE10
:1053200010FA0CDBB6EE007A77EE877AFDEEE77ABC
:1053300017EE901A03B0BDE8304005F04DBFBDEE4A
:10534000E77AF8EEC76A17EE103A013B77EEE67A95
:10535000F7EE086A77EEA67AFDEEE77A17EE901A76
:105360001944E7E7B0110020002D0208F7B500F559
:10537000AE560446144F183604F53045D5F8E432DD
:10538000FB5C53B904F1E400019007F06DF901985A
:1053900003B0BDE8F0400AF0A9BED5F8E412D5F894
:1053A000E432FA5C04F58053D3F80C06D3F80836DF
:1053B00042433046594305F023FFD5F8E432043325
:1053C000C5F8E432D8E700BF7201002010B5094BE0
:1053D0000446012200F5164007491A707C30042269
:1053E0000CF0A1FB04F51540BDE81040A0300AF018
:1053F0007DBE00BF12110020032D020810B5044627
:105400004BF2E8211AF0FDFE204610BD70B50546AE
:105410000026FEF7A9FC0C4B05F5304414222B6046
:10542000314604F53170C4F8C0621BF00CF9074B2B
:105430002846C4F8D862C4F8DC32054BC4F8E03220
:105440003223C4F8E43270BD102D02089A99993EB7
:105450009A99193F704704387047704710B5044651
:1054600010211AF0CEFE204610BDA0F10400F5E791
:105470000022C1608260044A10B502F108042032A3
:105480000460426010BD00BF482D0208704770479D
:10549000FEF7DBBF10B5044640F264611AF0B1FEBE
:1054A000204610BD10B50446FFF756F8014B2046C4
:1054B000236010BD782D020800B54FF4807295B0BE
:1054C0004FF0807103460C9205220F910121069244
:1054D000002201910B92139200920B48CDE9031226
:1054E000CDE90D22CDE91122102206A902924FF436
:1054F000800205926A4601F0A3FD003818BF012022
:1055000015B05DF804FB00BF98D8002000B54FF43B
:10551000807395B041F2883217480C93062306A990
:1055200006930023CDE90D330F930B931393CDE92D
:10553000113301F042FDE0B9022301224FF4800152
:1055400004900D48CDE900331023CDE90232052344
:105550006A46CDE905134FF0807306A90F9341F217
:10556000883301F06DFD003818BF012015B05DF8DB
:1055700004FB0120FAE700BF98D8002000B54FF4E3
:10558000807391B04FF040720E480893EB2302A94C
:1055900002934FF4406309934FF4005305930023A3
:1055A000CDE90A320A220F9307926A46CDE90D33FC
:1055B000CDE9003301F094FD003818BF012011B08F
:1055C0005DF804FB98D80020454B012145489A6BB3
:1055D00042F00202F0B59A638DB09A6B0924042759
:1055E000002602F00202404D0092009A9A6942F0B1
:1055F00002029A619A6922F002029A611A6B42F0E1
:1056000002021A631A6B02F002020192019A1A6BEB
:1056100042F002021A631A6B02F002020292029A2C
:105620001A6B42F008021A631A6B02F00802039226
:10563000039A1A6B42F008021A631A6B02F008020E
:105640000492049A1A6B42F010021A631A6B02F069
:1056500010020592059A1A6B42F008021A63402262
:105660001B6B03F008030693069B0223CDE9072377
:105670000323CDE909130A2307A90B9300F03CFC8F
:1056800007A91848079709960B9400F035FC4FF4CA
:10569000006307A928460B94079300F02DFC4FF4F4
:1056A000805307A928460B94079300F025FC07A90F
:1056B0000E4807970B9400F01FFC4FF4005307A906
:1056C00028460B94079300F017FC32460F215C200C
:1056D00000F0D8F95C2000F007FA0DB0F0BD00BF73
:1056E0000038024000040240000C0240001002405A
:1056F000F0B5494C91B0494B2046236001F04AFC7B
:10570000054610B1012011B0F0BD01462046FFF75B
:105710005BFF012604234FF08077C4E90163102367
:10572000E36097FAA7F3B3FA83F32046013B2361C2
:105730004FF4A063C4E90755C4E9053501F0D6FB71
:105740000028DFD14FF4807566230B9041F2883238
:10575000079002A90F9008950293CDE90900CDE9C1
:105760000D00204601F029FC08B10420CBE7992365
:1057700041F2883202A92046029301F01EFC002863
:10578000F3D141F28830FFF797FE0028EDD1852351
:10579000079041F2883202A9089502930B97CDE950
:1057A0000900CDE90C60CDE90E00204601F005FCB2
:1057B0000028DAD141F288320DF10701204601F0CC
:1057C0006FFD0028D1D1FFF7A1FE0028CDD18123A4
:1057D000F022029392FAA2F20A219DF80730B2FA5F
:1057E00082F2204603F00F0301FA02F202A91343EA
:1057F00041F288328DF8073001F0DFFB0028B4D188
:1058000041F288320DF10701204601F0EDFC00283D
:105810003FF479AFA9E700BF98D80020001000A09E
:105820000F490020D1F8883043F47003C1F8883064
:105830000C4B1A6842F001021A6098601A6822F054
:10584000847222F480321A60074A5A601A6822F47D
:1058500080221A60D8604FF000638B60704700BFF1
:1058600000ED00E0003802401030002470470020B6
:1058700070470000002337B58DF807300D4B1A78BC
:105880000AB901221A700324C5B2013CA821284696
:10589000FCF744FB14F0FF048DF807009DF8073077
:1058A000DBB203D19DF8070003B030BD512BECD122
:1058B000F8E700BFE6D8002013B500240221C0B2EB
:1058C0008DF80740FCF72AFB8DF807009DF807309C
:1058D00003F00F038DF807309DF80730052B01D931
:1058E0008DF807409DF80720034B9DF807005A707C
:1058F00000229A7002B010BDE6D800202DE9F74FC3
:105900002F4C15464FF000080F46A37862788DF8AB
:1059100007809A424DD9092B4ED803EB43035B0015
:10592000DBB2191D03F1030B03F1060A0533C9B2FB
:105930005FFA8BFB5FFA8AFA5FFA83F8C6B2DFF888
:1059400084903046FCF7EAFA8DF807009DF807309E
:1059500059463046A9F80030FCF7E0FA8DF8070008
:1059600051469DF807303046B9F800201B0203F479
:10597000706313433B80A9F80030FCF7CFFA8DF831
:10598000070041469DF807303046A9F80030FCF783
:10599000C5FA8DF807009DF80730B9F800201B0202
:1059A00003F470631343A9F800302B80A37801330C
:1059B000A37003B0BDE8F08FC246C3464146BDE7C1
:1059C000E6D80020E4D800200122A421C0B2FCF7D0
:1059D0008BBA0022A421C0B2FCF786BAFFF7F9BF48
:1059E00070470000024B1A780AB901221A707047FA
:1059F000E6D80020074A032008B5136843F48073F3
:105A0000136000F02DF80F20FCF720F9FBF76CFE77
:105A1000002008BD003C0240034A044B11681B787B
:105A20000B441360704700BFECD800203800002002
:105A3000014B1868704700BFECD8002038B5044609
:105A4000FFF7F6FF0546631C1EBF044B1B78E418E6
:105A5000FFF7EEFF431BA342FAD338BD3800002006
:105A600007490302CA6803F4E06322F4E062120407
:105A7000120C134343F0BF6343F40033CB60704711
:105A800000ED00E0164B30B5DC68C4F30224C4F12D
:105A90000703251D042B28BF0423062D4FF0FF35D7
:105AA0008CBF033C002405FA03F3002805FA04F533
:105AB00021EA030322EA050203FA04F343EA02039C
:105AC0004FEA0313DBB206DB00F1604000F56140F2
:105AD00080F8003330BD00F00F00024A1354F9E79C
