:020000040800F2
:1000000000000520912300089D2200089F2200087F
:10001000A1220008A3220008A52200080000000079
:10002000000000000000000000000000A7220008FF
:10003000A922000800000000AB220008AD22000841
:10004000E1230008E1230008E1230008E123000880
:10005000E1230008E1230008E1230008E123000870
:10006000E1230008E1230008E1230008E123000860
:10007000E1230008E1230008E1230008E123000850
:10008000E1230008E1230008E1230008E123000840
:10009000E1230008E1230008E1230008E123000830
:1000A000E1230008E1230008E1230008E123000820
:1000B000E1230008E1230008B1220008E123000841
:1000C000E1230008E1230008E1230008E123000800
:1000D000E1230008E1230008E1230008E1230008F0
:1000E000E1230008E1230008E1230008E1230008E0
:1000F000E1230008E1230008E1230008E1230008D0
:10010000E1230008E1230008E1230008E1230008BF
:10011000E1230008E1230008BD220008E1230008D4
:10012000E1230008E1230008E1230008E12300089F
:10013000E1230008E1230008E1230008E12300088F
:10014000E1230008E1230008E1230008E12300087F
:10015000E1230008E1230008E1230008E12300086F
:10016000E1230008E1230008E1230008E12300085F
:10017000E1230008E1230008E1230008000000005B
:10018000E1230008E1230008E1230008E12300083F
:10019000E1230008E1230008E1230008E12300082F
:1001A000C9220008E1230008D5220008E123000845
:1001B000E1230008E1230008E1230008E12300080F
:0801C000E1230008E12300081F
:1001D00010B5054C237833B9044B13B10448AFF381
:1001E00000800123237010BD1401002000000000D6
:1001F0008839020808B5034B1BB103490348AFF324
:10020000008008BD000000001801002088390208A5
:1002100001F0FF01102A2BDB10F0070F08D010F8B7
:10022000013B013A8B422DD010F0070F42B3F6D1BB
:10023000F0B441EA012141EA014122F007047FF0D4
:1002400000070023F0E80256083C85EA010586EA2B
:10025000010685FA47F5A3FA87F586FA47F6A5FA67
:1002600087F68EB9EED1F0BC01F0FF0102F0070273
:1002700032B110F8013B013A83EA010313B1F8D11E
:100280000020704701387047002D06BF35460338FF
:10029000073815F0010F07D1013015F4807F02BF38
:1002A000013015F4C03F0130F0BC0138704700BF89
:1002B00070B54FF0FF0C4CF4E06C1CEA11541DBFFC
:1002C0001CEA135594EA0C0F95EA0C0F00F0DEF8C7
:1002D0002C4481EA030621EA4C5123EA4C5350EAAC
:1002E000013518BF52EA033541F4801143F48013FD
:1002F00038D0A0FB02CE4FF00005E1FB02E506F08E
:100300000042E0FB03E54FF00006E1FB03569CF0E2
:10031000000F18BF4EF0010EA4F1FF04B6F5007FE8
:1003200064F5407404D25FEA4E0E6D4146EB06065A
:1003300042EAC62141EA55514FEAC52040EA5E50E3
:100340004FEACE2EB4F1FD0C88BFBCF5E06F1ED88D
:10035000BEF1004F08BF5FEA500E50F1000041EBC4
:10036000045170BD06F0004646EA010140EA020071
:1003700081EA0301B4EB5C04C2BFD4EB0C0541EA93
:10038000045170BD41F480114FF0000E013C00F3A8
:10039000AB8014F1360FDEBF002001F0004170BDCC
:1003A000C4F10004203C35DA0C341BDC04F11404E5
:1003B000C4F1200500FA05F320FA04F001FA05F271
:1003C00040EA020001F0004221F0004110EBD3703E
:1003D00021FA04F642EB06015EEA430E08BF20EA6A
:1003E000D37070BDC4F10C04C4F1200500FA04F30D
:1003F00020FA05F001FA04F240EA020001F000419F
:1004000010EBD37041F100015EEA430E08BF20EA11
:10041000D37070BDC4F1200500FA05F24EEA020E59
:1004200020FA04F301FA05F243EA020321FA04F088
:1004300001F0004121FA04F220EA020000EBD3703F
:100440005EEA430E08BF20EAD37070BD94F0000F3F
:100450000FD101F00046400041EB010111F4801F73
:1004600008BF013CF7D041EA060195F0000F18BF24
:10047000704703F00046520043EB030313F4801F60
:1004800008BF013DF7D043EA0603704794EA0C0F1A
:100490000CEA135518BF95EA0C0F0CD050EA410630
:1004A00018BF52EA4306D1D181EA030101F00041AD
:1004B0004FF0000070BD50EA410606BF10461946D5
:1004C00052EA430619D094EA0C0F02D150EA0136E1
:1004D00013D195EA0C0F05D152EA03361CBF104622
:1004E00019460AD181EA030101F0004141F0FE41C1
:1004F00041F470014FF0000070BD41F0FE4141F445
:10050000780170BD81F0004102E000BF83F000433C
:1005100030B54FEA41044FEA430594EA050F08BF9E
:1005200090EA020F1FBF54EA000C55EA020C7FEA62
:10053000645C7FEA655C00F0E2804FEA5454D4EBDF
:100540005555B8BF6D420CDD2C4480EA020281EAA9
:10055000030382EA000083EA010180EA020281EAE1
:100560000303362D88BF30BD11F0004F4FEA013133
:100570004FF4801C4CEA113102D0404261EB410142
:1005800013F0004F4FEA03334CEA133302D05242C8
:1005900063EB430394EA050F00F0A780A4F1010484
:1005A000D5F1200E0DDB02FA0EFC22FA05F28018BE
:1005B00041F1000103FA0EF2801843FA05F35941A4
:1005C0000EE0A5F120050EF1200E012A03FA0EFC23
:1005D00028BF4CF0020C43FA05F3C01851EBE3714D
:1005E00001F0004507D54FF0000EDCF1000C7EEB6A
:1005F00000006EEB0101B1F5801F1BD3B1F5001FA8
:100600000CD349085FEA30004FEA3C0C04F10104C6
:100610004FEA445212F5800F80F09A80BCF1004FEF
:1006200008BF5FEA500C50F1000041EB045141EA71
:10063000050130BD5FEA4C0C404141EB0101013C3A
:1006400028BFB1F5801FE9D291F0000F04BF014629
:100650000020B1FA81F308BF2033A3F10B03B3F1FB
:1006600020020CDA0C3208DD02F1140CC2F10C028B
:1006700001FA0CF021FA02F10CE002F11402D8BFE9
:10068000C2F1200C01FA02F120FA0CFCDCBF41EAB5
:100690000C019040E41AA2BF01EB0451294330BD84
:1006A0006FEA04041F3C1CDA0C340EDC04F1140461
:1006B000C4F1200220FA04F001FA02F340EA030038
:1006C00021FA04F345EA030130BDC4F10C04C4F17E
:1006D000200220FA02F001FA04F340EA030029465E
:1006E00030BD21FA04F0294630BD94F0000F83F4A8
:1006F000801306BF81F480110134013D4EE77FEA8B
:10070000645C18BF7FEA655C29D094EA050F08BFD6
:1007100090EA020F05D054EA000C04BF19461046B7
:1007200030BD91EA030F1EBF0021002030BD5FEAFB
:10073000545C05D14000494128BF41F0004130BD23
:1007400014F580043CBF01F5801130BD01F0004577
:1007500045F0FE4141F470014FF0000030BD7FEAEA
:10076000645C1ABF194610467FEA655C1CBF0B46E5
:10077000024650EA013406BF52EA033591EA030FFC
:1007800041F4002130BD00BF90F0000F04BF0021F4
:10079000704730B54FF4806404F132044FF0000527
:1007A0004FF0000150E700BF90F0000F04BF0021A0
:1007B000704730B54FF4806404F1320410F0004506
:1007C00048BF40424FF000013EE700BF42004FEA01
:1007D000E2014FEA31014FEA02701FBF12F07F437E
:1007E00093F07F4F81F06051704732F07F4208BF35
:1007F000704793F07F4F04BF41F40021704730B53C
:100800004FF4607401F0004521F000411CE700BF87
:1008100050EA010208BF704730B54FF000050AE00A
:1008200050EA010208BF704730B511F0004502D50B
:10083000404261EB41014FF4806404F132045FEA0D
:10084000915C3FF4D8AE4FF003025FEADC0C18BFB6
:1008500003325FEADC0C18BF033202EBDC02C2F1A8
:10086000200300FA03FC20FA02F001FA03FE40EA3A
:100870000E0021FA02F11444BDE600BF4FF0FF3C28
:1008800006E000BF4FF0010C02E000BF4FF0010C8A
:100890004DF804CD4FEA410C7FEA6C5C4FEA430C03
:1008A00018BF7FEA6C5C1BD001B050EA410C0CBF52
:1008B00052EA430C91EA030F02BF90EA020F0020B4
:1008C000704710F1000F91EA030F58BF994208BF1B
:1008D00090422CBFD8176FEAE37040F001007047D8
:1008E0004FEA410C7FEA6C5C02D150EA013C07D12F
:1008F0004FEA430C7FEA6C5CD6D152EA033CD3D07A
:100900005DF8040B704700BF8446104662468C4673
:100910001946634600E000BF01B5FFF7B7FF0028A6
:1009200048BF10F1000F01BD4DF808EDFFF7F4FFCF
:100930000CBF012000205DF808FB00BF4DF808ED5A
:10094000FFF7EAFF34BF012000205DF808FB00BF7D
:100950004DF808EDFFF7E0FF94BF012000205DF89F
:1009600008FB00BF4DF808EDFFF7CEFF94BF012054
:1009700000205DF808FB00BF4DF808EDFFF7C4FF4D
:1009800034BF012000205DF808FB00BF4A0011D2EF
:1009900012F5001211D20DD56FF47873B3EB6252D9
:1009A0000ED44FEAC12343F0004343EA505323FAE5
:1009B00002F070474FF00000704750EA013002D15A
:1009C0004FF0FF3070474FF00000704753B94AB9FD
:1009D000002908BF00281CBF4FF0FF314FF0FF3047
:1009E00000F070B9ADF1080C6DE904CE00F006F826
:1009F000DDF804E0DDE9022304B070472DE9F0479B
:100A0000089E0D4604460F46002B4AD18A42944662
:100A100065D9B2FA82F343B102FA03FCC3F12002B2
:100A20009F4020FA02F217439C404FEA1C4E1FFAE7
:100A30008CF5B7FBFEF1220C0EFB117742EA074260
:100A400001FB05F090420AD91CEB020201F1FF37CD
:100A500080F01C81904240F2198102396244121ADE
:100A6000A4B2B2FBFEF00EFB102244EA024400FBEB
:100A700005F5A5420AD91CEB040400F1FF3280F011
:100A80000781A54240F204816444023840EA0140F3
:100A9000641B00211EB1DC400023C6E90043BDE811
:100AA000F0878B4208D9002E00F0ED800021C6E9C6
:100AB00000050846BDE8F087B3FA83F1002949D163
:100AC000AB4202D3824200F2F880841A65EB030243
:100AD00001201746002EE2D0C6E90047DFE702B941
:100AE000FFDEB2FA82F3002B40F090808A1A4FEAC0
:100AF0001C471FFA8CFE0121B2FBF7F507FB1520FE
:100B0000220C42EA00420EFB05F0904208D91CEB91
:100B1000020205F1FF3802D2904200F2CB80454636
:100B2000121AA4B2B2FBF7F007FB102244EA024407
:100B30000EFB00FEA64508D91CEB040400F1FF32B1
:100B400002D2A64500F2BB801046A4EB0E0440EA98
:100B500005409FE7C1F120078B4022FA07FC4CEAD1
:100B6000030C05FA01F420FA07F3FD404FEA1C4993
:100B70002343B5FBF9F81FFA8CFE09FB18551C0C32
:100B800044EA054408FB0EF5A54202FA01F200FA18
:100B900001F00BD91CEB040408F1FF3A80F08880C7
:100BA000A54240F28580A8F102086444641B9DB20E
:100BB000B4FBF9F309FB134445EA044403FB0EFEBE
:100BC000A64508D91CEB040403F1FF356CD2A645F9
:100BD0006AD9023B644443EA0843A3FB0295A4EBB1
:100BE0000E04AC42C846AE4656D353D056B1B0EB15
:100BF000080264EB0E0404FA07F7CA40CC4017431E
:100C0000C6E9007418460021BDE8F087C3F1200151
:100C100002FA03FC20FA01F225FA01F19D402A4371
:100C20004FEA1C471FFA8CFEB1FBF7F007FB1015CB
:100C3000110C41EA054100FB0EF58D4204FA03F464
:100C400008D91CEB010100F1FF382FD28D422DD9BC
:100C500002386144491B92B2B1FBF7F507FB15114D
:100C600042EA014205FB0EF1914208D91CEB020257
:100C700005F1FF3816D2914214D9023D6244521A4E
:100C800045EA004138E73146304608E73946E6E6AE
:100C90001046FBE64845A9D2B9EB020865EB0C0EFD
:100CA000013BA3E74546EAE72B4694E74046D1E7F8
:100CB000D0467BE7023D624432E708460AE76444D7
:100CC000023842E7704700BF10B594B010220021EF
:100CD00002240AA822F035F81422002103A822F0E9
:100CE00030F81D4B192108A81A6C42F080521A6482
:100CF0001B6C03F080530193019B184B1A6842F45C
:100D000040421A6001221B6803F440430293029B95
:100D10004FF48033CDE908234FF48003CDE90E432F
:100D20004FF4C873CDE91244CDE9101307F028FE43
:100D300007F0D0FA0F2300200621CDE903344FF449
:100D4000A053CDE905034FF4805303A8079307F0A0
:100D5000FFFF14B010BD00BF00380240007000401B
:100D600030B5002289B001212A480F242A4D06F00F
:100D700059FD00220221274806F054FD01220221DC
:100D8000244806F04FFD4FF48041284606F044FD0C
:100D900000222DF8140002211E4806F043FD013CFC
:100DA000ECD201221B48114606F03CFDBDF81C2088
:100DB000BDF81A3003EB4203BDF8182002EB4302E2
:100DC000BDF8163003EB4203BDF8142002EB4302DA
:100DD000BDF8123003EB4203BDF8102002EB4302D2
:100DE000BDF80E3003EB4203BDF80C2002EB4302CA
:100DF000BDF80A3003EB4203BDF8082002EB4302C2
:100E0000BDF8063003EB420300EE103ABAEECF0A0B
:100E100009B030BD00200240000402400268034BCC
:100E20009A4201D106F006B9704700BF0010004099
:100E300000232DE9F04F1A46674D2DED028B83B04C
:100E4000EA540133B3F57A6FFAD1644BB6EE007A07
:100E5000B3EE086A624C1869F0EE478AD3ED035A84
:100E600007EE900AF8EE676AF0EE467AE5EE877ACA
:100E7000F4EEE67AF1EE10FA5ED92288C0B2594952
:100E800092B25F694A800022BA4265DB2288B6EEE0
:100E9000007AD3F81C8017FA82F293ED066A07EE07
:100EA000908A92B2F8EE675A2280228892B28A80A3
:100EB000F0EE667AE6EE077AF4EEE57AF1EE10FAF5
:100EC00050D922885FFA88F6186A002392B2CA8045
:100ED000834265DB23880022B6EE008A10FA83F392
:100EE0009BB2238023889BB2EA5423880FF2E00B45
:100EF000DBE900AB9BB20B814046FFF745FC0646A1
:100F00000F4618EE100AFFF761FC52465B46FFF7EA
:100F1000CFF902460B4630463946FFF7F7FA002272
:100F2000314B06460F46FFF71DFD00283ED103B0AA
:100F3000BDEC028BBDE8F08FFCEEE77A218837EE3E
:100F4000287A89B2CDED017A9DF804206A5422886E
:100F5000013292B2228087E7268812FA86F60132A1
:100F6000A85591E7FCEEC77AB0EE665A37EE287ABC
:100F7000CDED017A9DF8042007EE902A2288F8EE44
:100F8000E77A92B2A7EE865AFCEEC57ACDED017AE9
:100F90009DF80400A8542288013292B2228087E78B
:100FA000228813FA82F20133AE5491E7B4F800902C
:100FB0003046394638EE288AFFF7E8FC1FFA89F9EF
:100FC000C0B205F80900238801339BB2238093E760
:100FD000CDCCCCCCCCCCFC3F8C01002010400020F0
:100FE000F8420020640100200000384000000000AA
:100FF00000232DE9F04F1A46674D2DED028B83B08B
:10100000EA540133B3F57A6FFAD1644BB6EE007A45
:10101000B3EE086A624C986AF0EE478AD3ED095A3B
:1010200007EE900AF8EE676AF0EE467AE5EE877A08
:10103000F4EEE67AF1EE10FA5ED92288C0B2594990
:1010400092B2DF6A4A800022BA4265DB2288B6EE9D
:10105000007AD3F8348017FA82F293ED0C6A07EE27
:10106000908A92B2F8EE675A2280228892B28A80E1
:10107000F0EE667AE6EE077AF4EEE57AF1EE10FA33
:1010800050D922885FFA88F6986B002392B2CA8002
:10109000834265DB23880022B6EE008A10FA83F3D0
:1010A0009BB2238023889BB2EA5423880FF2E00B83
:1010B000DBE900AB9BB20B814046FFF765FB0646C0
:1010C0000F4618EE100AFFF781FB52465B46FFF70A
:1010D000EFF802460B4630463946FFF717FA002272
:1010E000314B06460F46FFF73DFC00283ED103B0CA
:1010F000BDEC028BBDE8F08FFCEEE77A218837EE7D
:10110000287A89B2CDED017A9DF804206A542288AC
:10111000013292B2228087E7268812FA86F60132DF
:10112000A85591E7FCEEC77AB0EE665A37EE287AFA
:10113000CDED017A9DF8042007EE902A2288F8EE82
:10114000E77A92B2A7EE865AFCEEC57ACDED017A27
:101150009DF80400A8542288013292B2228087E7C9
:10116000228813FA82F20133AE5491E7B4F800906A
:101170003046394638EE288AFFF708FC1FFA89F90D
:10118000C0B205F80900238801339BB2238093E79E
:10119000CDCCCCCCCCCCFC3F2C110020104000207E
:1011A000FA4200206E0100200000384000000000DC
:1011B00000232DE9F04F1A46674D2DED028B83B0C9
:1011C000EA540133B3F57A6FFAD1644BB6EE007A84
:1011D000B3EE086A624C186CF0EE478AD3ED0F5AF2
:1011E00007EE900AF8EE676AF0EE467AE5EE877A47
:1011F000F4EEE67AF1EE10FA5ED92288C0B25949CF
:1012000092B25F6C4A800022BA4265DB2288B6EE59
:10121000007AD3F84C8017FA82F293ED126A07EE47
:10122000908A92B2F8EE675A2280228892B28A801F
:10123000F0EE667AE6EE077AF4EEE57AF1EE10FA71
:1012400050D922885FFA88F6186D002392B2CA80BE
:10125000834265DB23880022B6EE008A10FA83F30E
:101260009BB2238023889BB2EA5423880FF2E00BC1
:10127000DBE900AB9BB20B814046FFF785FA0646DF
:101280000F4618EE100AFFF7A1FA52465B46FFF729
:101290000FF802460B4630463946FFF737F9002271
:1012A000314B06460F46FFF75DFB00283ED103B0E9
:1012B000BDEC028BBDE8F08FFCEEE77A218837EEBB
:1012C000287A89B2CDED017A9DF804206A542288EB
:1012D000013292B2228087E7268812FA86F601321E
:1012E000A85591E7FCEEC77AB0EE665A37EE287A39
:1012F000CDED017A9DF8042007EE902A2288F8EEC1
:10130000E77A92B2A7EE865AFCEEC57ACDED017A65
:101310009DF80400A8542288013292B2228087E707
:10132000228813FA82F20133AE5491E7B4F80090A8
:101330003046394638EE288AFFF728FB1FFA89F92C
:10134000C0B205F80900238801339BB2238093E7DC
:10135000CDCCCCCCCCCCFC3FCC200020104000200D
:10136000FC4200207801002000003840000000000E
:1013700000232DE9F04F1A46674D2DED028B83B007
:10138000EA540133B3F57A6FFAD1644BB6EE007AC2
:10139000B3EE086A624C986DF0EE478AD3ED155AA9
:1013A00007EE900AF8EE676AF0EE467AE5EE877A85
:1013B000F4EEE67AF1EE10FA5ED92288C0B259490D
:1013C00092B2DF6D4A800022BA4265DB2288B6EE17
:1013D000007AD3F8648017FA82F293ED186A07EE68
:1013E000908A92B2F8EE675A2280228892B28A805E
:1013F000F0EE667AE6EE077AF4EEE57AF1EE10FAB0
:1014000050D922885FFA88F6986E002392B2CA807B
:10141000834265DB23880022B6EE008A10FA83F34C
:101420009BB2238023889BB2EA5423880FF2E00BFF
:10143000DBE900AB9BB20B814046FFF7A5F90646FE
:101440000F4618EE100AFFF7C1F952465B46FEF749
:101450002FFF02460B4630463946FFF757F8002269
:10146000314B06460F46FFF77DFA00283ED103B008
:10147000BDEC028BBDE8F08FFCEEE77A218837EEF9
:10148000287A89B2CDED017A9DF804206A54228829
:10149000013292B2228087E7268812FA86F601325C
:1014A000A85591E7FCEEC77AB0EE665A37EE287A77
:1014B000CDED017A9DF8042007EE902A2288F8EEFF
:1014C000E77A92B2A7EE865AFCEEC57ACDED017AA4
:1014D0009DF80400A8542288013292B2228087E746
:1014E000228813FA82F20133AE5491E7B4F80090E7
:1014F0003046394638EE288AFFF748FA1FFA89F94C
:10150000C0B205F80900238801339BB2238093E71A
:10151000CDCCCCCCCCCCFC3F6C300020104000209B
:10152000FE4200208201002000003840BC4DEB6EDE
:10153000822B2DE98048A5B027D0BA4BE62029227E
:101540009621EB60AB616B622B63EB63AB646B6505
:101550002B66A523C5E9070264226B66B24B6A6459
:101560002B60B24B2A656B60B14BEA65AA66AB6033
:10157000C5E90411C5E90A12AF212964F021E96423
:101580008221C5E90D02A965E966FFF751FC012634
:10159000FFF72EFD0024FFF70BFEFFF7E9FEA5483D
:1015A0002B68012183616B68C361AB68036221F022
:1015B00085F91022002117A821F0C3FB05F0C2FD18
:1015C0004FF0104E9C4B17A8ADF85C601A94CDE913
:1015D00018E305F0D5FD172317A88DF85D608DF889
:1015E00064308DF86A6005F0CBFD042005F0B8FD8D
:1015F000BFF34F8FBFF36F8F904AC2F85042BFF3D3
:101600004F8FBFF36F8F536943F400335361BFF3C0
:101610004F8FBFF36F8FC2F88440BFF34F8FD2F864
:10162000803043F6E074C3F3C900C3F34E335B016B
:1016300003EA0407014647EA81760139C2F860628D
:10164000F9D2203B13F1200FF2D1BFF34F8F536932
:1016500043F480335361BFF34F8FBFF36F8F05F0B7
:10166000D7FC0024FFF730FB1422002117A821F03B
:1016700068FB734B082173481A6B0127724E4FF0B9
:10168000020942F010024FF0040ADFF8DCB14FF01B
:1016900010081A631A6B02F010020292029A1A6B77
:1016A00042F001021A631A6B02F001020392039ADC
:1016B0001A6B42F002021A631A6B02F002020492E1
:1016C000049A1A6B42F040021A631A6B02F040024D
:1016D0000592059A1A6B42F400721A631A6B02F4AF
:1016E00000720692069A1A6B42F008021A631A6B8D
:1016F00002F008020792079A1A6B42F480621A639A
:101700001A6B02F480620892089A1A6B42F0200267
:101710001A631A6B02F020020992099A1A6B42F4BA
:1017200080721A631A6B02F480720A920A9A1A6B18
:1017300042F080021A631A6B02F080020B920B9A3D
:101740001A6B42F004021A6301221B6B03F00403BC
:101750000C930C9B06F066F8002203213B4806F030
:1017600061F801224FF48051384806F05BF80823F5
:1017700017A93448CDE91737CDE9194405F0CAFE59
:1017800041F2030317A93148CDE91737CDE91944D0
:1017900005F0C0FE4FF4804317A92D481994CDE9F8
:1017A000173405F0B7FE2B482B4B8480036007628B
:1017B000C0E9054405F010FD284B3046C6E90A444F
:1017C000C6E90C44C6E90034C6E9024405F0A1FDAF
:1017D00039463046224E05F055FE224B40224FF44A
:1017E00000613046B460F461B462CDF87490C6E92B
:1017F00000344FF4C073C6E905234FF48053C6E9A3
:101800000813072317A9CDE91793CDE919A30323DB
:10181000C6E903A8CDE91B3907F0F0FD594625E0DC
:10182000104000209A99193F000075430000F040D5
:101830000000FA44400100201B00000300ED00E01E
:101840000038024000280240A8400020002002404A
:1018500000040240844000200030024000B00240FA
:101860002C420020400100A0300100204FF6FF7202
:1018700030460194CBE90274CBE9007807F0DEFD35
:10188000384605F0E9FB59464FF6FF723046CBE982
:101890000274CBE9009807F0D1FD032359464FF6B7
:1018A000FF723046CBE900380823CBE9023407F059
:1018B000C5FD4FF40C734FF6FF7259460193304645
:1018C000019BCBF80870CBF80C30CBE900A807F0EF
:1018D000B5FD40F22B713046C04E07F0CEFD43F20D
:1018E000D2024FF02043BE4840F2152B1A60BD4B88
:1018F0003462C6E900033046C6E90247C6E904443B
:10190000C6E9064406F025F92146304606F0FEFAFF
:1019100021463046B44E06F01FFB2146342217A85C
:1019200021F00FFAB14B4FF0280C4FF0350E40F27A
:101930003522B4863046346186F83640C6E9003434
:101940000923C6E905C30B23C6E907E340F21B13CD
:10195000C6E909B340F21D13C6E90244C6E90B23E8
:1019600006F0A2FBFF214FF480604FF4F0724FF4B9
:1019700088731794ADF88C4022938DF88E40CDE992
:101980001C140521CDE91E014FF0404130461826B8
:10199000CDE91824CDE92012224617A9CDE91A393C
:1019A00006F04DFC9248934B0462C0E900374FF4B7
:1019B000A063914FC0E90463C0E90644C0E902A8EE
:1019C00006F0A2FD8D4E05F0A1F905F0E5F85C20CA
:1019D00005F0A6FB21461C2210A80F94CDE90D446A
:1019E00021F0AFF92C22214617A821F0AAF94FF4D3
:1019F000FA433046B460C6E900734FF47A73804FFF
:101A0000C6E90334C6E9054407F0BCFF0DA930461A
:101A10000F94CDE90D4408F0DBF97023224610A99C
:101A200030461694CDE91034CDE91244CDE9144482
:101A300008F010F84FF4005317A930461B941E9479
:101A40002194CDE91C344FF00073CDE91744CDE962
:101A50001F34CDE9194408F007FA304600F052FB74
:101A60004246214617A821F06CF9DFF8C8C14FF4AF
:101A70007A433846BC60BC611294C7E900C34FF496
:101A8000FA73CDE91044C7E9033407F04BFF4FF474
:101A9000805317A93846179308F064F810A9384600
:101AA0001094129408F094F900F09BFC2146304603
:101AB000544F08F08BF9544C33680A225A6300F0F3
:101AC00092FC3A88238892B29BB29A4202D14F4B41
:101AD00001221A607A88238892B29BB29A4202D17C
:101AE0004A4B02221A60BA88238892B29BB29A4269
:101AF00002D1464B03221A60FA88238892B29BB225
:101B00009A4202D1414B04221A603A89238892B248
:101B10009BB29A4202D13D4B05221A603C4B1A7887
:101B2000012A05D122883B4992B2895C3A4A117058
:101B30001A78022A05D12288384992B2895C364A3D
:101B400011701A78032A05D12288354992B2895C2E
:101B5000314A11701B78042B05D12388314A9BB27E
:101B6000D25C2D4B1A70DFF8D090DFF8D08099F856
:101B700000309FED2D8A012B40F09680DFF8C0A049
:101B8000FFF7EEF840F2DC508AED000A05F064FA47
:101B9000214B0022DAED007A1B7807EE103A234B36
:101BA000B8EEC77A37EE677A83ED007A204BD3ED33
:101BB000036AD3ED017A93ED006A66EEA77AD3ED5E
:101BC000025A83ED037AE7EE067A93ED046AC3EDD9
:101BD000046AE5EE867A93ED056A33E0EC40002076
:101BE000005C0040FFEAC00038410020006801406E
:101BF000E0410020001000A00000014060420020F1
:101C0000AC420020640100200E4000200843002068
:101C10000C4300208C010020044300202C110020E4
:101C2000CC2000206C30002000007A4400430020CB
:101C300040010020000800400C40002080400020AF
:101C4000E840002077EE867AF4EEC87AC3ED057A94
:101C5000C8ED007AF1EE10FA03DD88ED008ADA6152
:101C600006E0F5EEC07AF1EE10FA1BD5C8F80020B8
:101C7000D8ED007A3268FCEEE77A17EE903A9BB224
:101C8000C3F57A735363238801339BB223803A8967
:101C9000238892B29BB29A427FF411AF002389F855
:101CA00000300CE76A68DAE700234FF47A7288EDB7
:101CB000008A238033685A6301E700BF7047000041
:101CC0000A4B82B01A6C42F080521A641A6C02F00D
:101CD00080520092009A5A6C42F480425A645B6CC3
:101CE00003F480430193019B02B070470038024027
:101CF000026882B0084B9A420BD1D3F8302803F522
:101D0000006342F480521A631B6B03F48053019307
:101D1000019B02B0704700BF003002400E4B07B578
:101D200002689A4215D1A3F5F04305215A201A6B97
:101D300042F400021A6300221B6B03F400030193B8
:101D4000019B05F0ADF95A2003B05DF804EB05F0F6
:101D5000D9B903B05DF804FB00B0024010B5A8B0DB
:101D600004461422002102A820F0EBFF8422002167
:101D700007A820F0E6FF2268174B9A422AD14FF4B9
:101D8000803307A8079307F0AFF808B1FFF796FF75
:101D9000124C4FF4C07201211148236B43F08003B1
:101DA0002363236B03F080030093009B1223CDE990
:101DB00002230323CDE90413042302A9069305F0AB
:101DC000A9FB236C43F400032364236C03F4000396
:101DD0000193019B28B010BD005C00400038024018
:101DE000001C0240026808B5094B9A420FD1094A0B
:101DF00080210948136C23F40003136405F06CFC84
:101E00004FF480710448BDE8084005F065BC08BD8A
:101E1000005C004000380240001C024070B5ACB0CD
:101E200004461422002106A820F08BFF8422002102
:101E30000BA820F086FF2268484B9A4240F08C8025
:101E40000823052001240B934FF4C0731093022341
:101E5000CDE911304FF400330BA8CDE9154307F05D
:101E600043F808B1FFF72AFF3D4B002402250E2658
:101E70005A6C06A93B4842F080625A645A6C02F0E0
:101E800080620092009A1A6B42F010021A631A6B79
:101E900002F010020192019A1A6B42F400721A6366
:101EA0001A6B02F400720292029A1A6B42F4806278
:101EB0001A631A6B02F480620392039A1A6B42F05F
:101EC00040021A631A6B02F040020492049A1A6BE1
:101ED00042F480721A631B6B03F480730593059BB5
:101EE0001023CDE90635CDE908440A9605F012FB2A
:101EF0004EF6FF7306A91C480A96CDE90635CDE9D2
:101F0000084405F007FBF72306A918480A96CDE90F
:101F10000635CDE9084405F0FDFA4FF4805306A9D3
:101F20001348CDE906350923CDE908440A9305F0A5
:101F3000F1FA4FF4464306A90E480A96CDE9063554
:101F4000CDE9084405F0E6FA58202246052105F0BF
:101F5000A7F8582005F0D6F82CB070BD00680140F5
:101F600000380240001002400024024000280240D5
:101F70000018024000200240142200212DE9F04107
:101F80008AB004460DEB020020F0DBFE22682C4BE9
:101F90009A4251D12B4B0225032409269A6B4FF00C
:101FA000040805A9284842F0020200279A639A6BA8
:101FB00002F002020192019A1A6B42F010021A63B7
:101FC0001A6B02F010020292029A1A6B42F002029D
:101FD0001A631A6B02F002020392039A1A6B42F020
:101FE00008021A631B6B03F008030493049BCDE9FA
:101FF0000585CDE9084605F08DFA402305A913486B
:10200000CDE905350A23CDE90774099305F082FA75
:1020100005A90E480996CDE90585CDE9077405F0B7
:1020200079FA4FF4605305A909480996CDE90535B9
:10203000CDE9077405F06EFA0AB0BDE8F08100BF83
:10204000001000A0003802400010024000040240CE
:10205000000C0240026808B50B4B9A4213D10B4AA0
:1020600004210B48936B23F00203936305F034FBC8
:102070004421084805F030FB4FF460510648BDE8A4
:10208000084005F029BB08BD001000A00038024040
:102090000010024000040240000C0240026882B0BE
:1020A000074B9A420AD103F59C335A6C42F0010265
:1020B0005A645B6C03F001030193019B02B070470B
:1020C000000001400E4B07B502689A4215D103F596
:1020D0000C331E201A6C42F004021A6400221B6C9E
:1020E000114603F004030193019B04F0D9FF1E2065
:1020F00003B05DF804EB05F005B803B05DF804FB30
:102100000008004010B586B004461422002101A842
:1021100020F017FE22680D4B9A4215D103F59C332F
:1021200001A90B481A6B42F001021A634FF4807246
:102130001B6B03F001030093009B0223CDE90123F5
:102140000123059305F0E6F906B010BD000001403B
:1021500000000240F0B5002387B00393294B1E68AE
:10216000002E4DD10122022703250C241A6001A95B
:10217000254B26489A6B42F001029A639B6B03F051
:1021800001030093009B4FF68373CDE90454CDE91E
:10219000013705F0BFF948F2331301A91C48059433
:1021A000CDE90137CDE9036505F0B4F94CF20373CD
:1021B00001A918480594CDE90137CDE9036505F07B
:1021C000A9F94FF63F0301A913480594CDE901375A
:1021D000CDE9036505F09EF9282301A90F48059470
:1021E000CDE90137CDE9036505F094F9082301A98C
:1021F0000B480594CDE90137CDE9036505F08AF96F
:1022000007B0F0BD1043002000380240001002402B
:1022100000180240000C024000140240001C024062
:102220000008024010B5014688B00022362004F0B4
:1022300037FF362004F066FF144B01A903A81A6C7F
:10224000134C42F010021A641B6C03F0100302934B
:10225000029B06F02BFE06F019FE0E4B4000236099
:1022600040F2E733E3600C4BB0FBF3F0013800239E
:10227000606020462361A36007F054FB20B920462C
:1022800007F0F8F908B010BD0120FBE70038024064
:10229000144300200010004040420F007047FEE74A
:1022A000FEE7FEE7FEE770477047704770470000A3
:1022B000014807F021BA00BFAC420020014807F0F6
:1022C0001BBA00BF14430020014805F05BBF00BFEC
:1022D00038410020014805F04AB800BFA84000205E
:1022E0000120704708B520F0CFFD162303604FF0A2
:1022F000FF3008BD08B520F0C7FD16230360FEE7D8
:1023000070B50D4614460E46731B9C4201DC2046F8
:1023100070BDAFF3008006F8010BF5E770B50D4610
:1023200014460E46731B9C4201DC204670BD16F815
:10233000010BAFF30080F5E74FF0FF3070474FF42B
:10234000005300204B607047012070470020704709
:102350000B4A0346116810B509B90A4911601068A3
:1023600009490A4C0344091B8B4206D920F08CFD15
:102370000C2303604FF0FF3010BD1360FCE700BF7B
:10238000604300201091022000000520000A000098
:10239000DFF834D0002103E00C4B5B58435004318C
:1023A0000B480C4B42189A42F6D30B4A02E000232A
:1023B00042F8043B094B9A42F9D304F03FFD20F068
:1023C00069FDFFF7B3F8704700000520089A02087E
:1023D0000000002014010020140100200C910220B4
:1023E000FEE700F025BC00F097BC406870474160F4
:1023F000704700004FF0E022D2F8FC3D43F08073BC
:10240000C2F8FC3D054B064AD3F8B01F0A43C3F897
:10241000B02F1A6842F001021A607047001000E005
:1024200055CEACC5511A01EB5301B1FBF3F0704727
:10243000014B5868704700BF001000E0704710B5AE
:1024400004460C2120F05BFA204610BD036810B54D
:102450001B69044631B19847A26863689B1A184407
:10246000606010BD9847A060FBE70000024B702041
:10247000024A1360DB6818470C0000206443002008
:10248000704710B50446042120F039FA204610BDEB
:1024900037B50A4D0C462B6813B9002003B030BD88
:1024A0001B6970200192984701990028F5D02B688C
:1024B000702022465B6998470120EFE764430020C3
:1024C0007FB501238DF817204FF47A72CDE90132E0
:1024D0000DF1170200920A460146054805F0A3FBDC
:1024E00010B1034805F086FB07B05DF804FB00BFA0
:1024F000EC4000207FB500230A464FF47A718DF836
:1025000017300123CDE901310DF11701009101468A
:10251000054805F03FFC10B1034805F06BFB9DF842
:10252000170007B05DF804FBEC40002070477047CF
:102530007047012380F8741080F8753070470020D0
:102540007047000041640039024B18BF0121197027
:10255000704700BF0B8D022000207047836B0BB1CA
:102560000846184770474FF6FF7070474068036889
:102570009B6918477047000038B5044600F0A4FC7A
:1025800023682046D3F88850074BD4E90F12A84798
:102590000023064D84F84A302846FFF72BFF01231D
:1025A000256184F86C3038BD000000C0684300200D
:1025B00000F072BC00F076BC70B500F0B9FC1049B8
:1025C0000023C1F88430BFF34F8FD1F8803043F639
:1025D000E074C3F3C900C3F34E335B0103EA04069E
:1025E000024646EA8275013AC1F87452F9D2203B9C
:1025F00013F1200FF2D1BFF34F8FBFF36F8F70BD78
:1026000000ED00E000F0A2BC00F022BC00F0A0BC95
:1026100000F0A8BC00F026BC10B5044608F0CEFEC1
:1026200023682046D3F8AC30BDE81040184708F0C6
:1026300043B810B504467C2120F061F9204610BD56
:1026400090F877301BB1406803681B68184718463C
:102650007047000090F834100D4B10B590F874409E
:102660001A788C4209D03AB90A490B4A088814886A
:10267000108001220C801A7010BD002AFCD0064A7E
:102680000449148808880C8010800022F3E700BFFA
:10269000048D0220028D0220008D022070B50D46AF
:1026A000194635B9094B40F2BB21094A094820F0C7
:1026B00055F9C0E90F52003A074B18BF01221A70B2
:1026C0000368BDE87040D3F88C301847203A020800
:1026D000583A0208A63A02080A8D022008B5094BAA
:1026E0001B888B4203D8084B1B88934205D9074BA4
:1026F0009E21074A074820F031F9074B1980074B04
:102700001A8008BD008D0220028D0220EB3A0208DB
:102710004E3B0208A63A0208068D0220088D0220D0
:10272000034B00225A609A60024A1A60704700BF49
:1027300068430020E83902080023024A1360024A75
:10274000136070477443002078430020034B1A68DD
:10275000002AFCD101221A60704700BF7443002098
:10276000014B00221A60704774430020014B012284
:102770001A60704774430020014B00221A607047B2
:1027800074430020014B01221A60704778430020F7
:10279000014B00221A60704778430020024B1868F2
:1027A000003818BF0120704778430020054B1A6895
:1027B00032B100221A60044B186803681B6F184777
:1027C000704700BF784300200C8D022003685B6CCB
:1027D00018470120704703689B6A18470D4B82B069
:1027E0001A6B42F400021A631A6B02F4000201929F
:1027F000019A1A6942F400021A611A6922F400026D
:102800001A61054B054A1A614FF08062044B9A60C9
:1028100002B0704700380240A84000206528000838
:1028200000E100E040F2EF3070470000054B4FF050
:1028300080620360044BC3F88820BFF34F8FBFF35F
:102840006F8F7047EC3D020800E100E010B50446D0
:102850004FF45A61FFF7EAFF204620F050F8204677
:1028600010BD0000024B1B68586803685B6918477D
:102870000C8D022070B504460A4B0C30002625460C
:10288000602260602672667245F8203B294608F097
:10289000FDFE04F55A63EE602435AB42FBD12046C1
:1028A00070BD00BFEC3D020808B50B290BD8DFE86E
:1028B00001F01206100A0A0A0A080808080801208E
:1028C00008BD0520FCE7054B6621054A054820F0B8
:1028D00045F80020F4E70220F2E700BF6C3C020854
:1028E000873C0208D13C020808B50A2909D8DFE86C
:1028F00001F010060E08080808060606060001206A
:1029000008BD054B8721054A054820F027F800201F
:10291000F6E70220F4E700BF6C3C0208403D0208E5
:10292000D13C02082DE9F84391F81D800C4607467A
:102930004146FFF7B9FF94F81E90054638464946D0
:10294000FFF7B2FF494606463846FFF7CDFFA18A9A
:10295000628B434B521A1A649A61228B521A1A6183
:10296000E28A586342EA014220695A646268D86385
:10297000DA602768802F28D0227F0FD8202F65D0DB
:10298000402F63D0042F1AD045EA0265344BC84566
:1029900045F40035DD615FD0324A44E0B7F5807F11
:1029A00004D0B7F5007FEFD12F4900E02F4941EA6D
:1029B0000262DA61E2681A625E62586132E045EAF8
:1029C000026242F40032DA61F6E7A7683A1DDA6281
:1029D000217F3A7845EA016545F40035DD615E62A4
:1029E000586142B1012A21D0214B40F21111214AF4
:1029F00021481FF0B3FFDA69798822F47F42013958
:102A000022F0100242EA01220121DA61144BDA6954
:102A100042F02002DA61DA699206FCD410229A6050
:102A20000029B9D0154A1A60BDE8F883DA69FF3980
:102A3000788822F47F4218BF0121013822F0100269
:102A400042EA002242F01002DA61DFE745EA026260
:102A5000034B42F40032B6E740F20122E3E700BF45
:102A600000B0024001020100090002000A00020059
:102A70008B3D0208A53D0208D13C0208010202007C
:102A800038B50C46897FFFF72FFF174BA58AE28ADE
:102A9000586342EA054221695A64628BD963521B2A
:102AA0001A642568082D0ED19A611A6158620F4A7E
:102AB000207F42EA0062DA61E2681A620C4A5961D8
:102AC000D9601A6038BD0022D8611A61E1680A0A2B
:102AD0004809C1F3C40102F4784200F4FC600243E7
:102AE0000A439A63034AECE700B002400900010080
:102AF0000102020001020300012070470C20704710
:102B00000C2303FB0100083070470C2303FB01007A
:102B10000830704701207047004870478037020036
:102B2000024B03FB01000830704700BF80370200F2
:102B3000024B03FB01000830704700BF80370200E2
:102B4000012070471020704700EB011008307047DB
:102B500000EB011008307047084600F047BB00004A
:102B6000034B10B50446036007F0D0FA204610BDB1
:102B7000A43E020810B50446FFF7F2FF14212046D8
:102B80001FF0BDFE204610BD034B10B50446036088
:102B900007F0BCFA204610BD703E020810B504468E
:102BA000FFF7F2FF024920461FF0A9FE204610BDA4
:102BB00088370200034B10B50446036007F0A6FAFD
:102BC000204610BD3C3E020810B50446FFF7F2FF58
:102BD000182120461FF093FE204610BD094B10B56A
:102BE0000446036000F50D3000F56D70FFF7B8FF87
:102BF00004F12C00FFF7C8FF04F11400FFF7DAFF1F
:102C0000204610BDD83E020808B50248FFF7E6FF8F
:102C100008BD00BF8043002010B50446FFF7DEFF6B
:102C2000024920461FF06BFE204610BD24390200E9
:102C30002DE9F34100F00CFA0024054600F00CFAEF
:102C40002346014622462846009412F00BF8264BF4
:102C5000264A2046264D1A6003F03AFC254811F01A
:102C60004DFF2B68BFF35B8FDB0736D428461FF080
:102C700048FE90B3204C214F214B04F1140007F182
:102C8000180604F12C0823606060C4F80880E7602F
:102C9000266107F03DFA1B4B4046636107F038FAA6
:102CA000194B3846E36207F033FA04F50C33174A40
:102CB00003F5F960C3F8B42703F092FC224607F14C
:102CC0001401304603F082FC304600F08FFA1048C1
:102CD0001FF062FE28461FF020FE0E4802B0BDE83D
:102CE000F041FFF749BC00BF888D0220C48A022052
:102CF0007C4300200400002080430020347B02201D
:102D0000D83E02083C3E0208703E0208A43E02087B
:102D1000092C0008488A022008B5FFF73FFD38B1AA
:102D2000044808F04BFB0348BDE8084007F03ABDF3
:102D300008BD00BF488A022070B5234E234B244CA7
:102D40003046244D2360FFF795FD284615F038F9ED
:102D5000214B00224FF4807120481A861A6683F8AE
:102D60006C201A67DC60C3E912121D49C3E919120D
:102D70004FF080715967012183F8781019490B6071
:102D80004FF4F0710180184801804FF488711748A2
:102D9000C3E90422C3E90622C3E90822C3E90A22DF
:102DA000C3E90E22C3E91022C3E91422C3E91622A3
:102DB000C3E9016501800E4883F8342001800D4984
:102DC0000A700D4A1A6070BDA87C0220103A0208F1
:102DD000A47C0220C88A0220488A0220008D02209A
:102DE000010000010C8D0220068D0220028D0220C0
:102DF000088D0220048D02209C3B02080148FFF749
:102E000015BD00BFA87C02201049002370B5C1F891
:102E10008430BFF34F8FD1F8803043F6E074C3F3B2
:102E2000C900C3F34E335B0103EA0406024646EAD7
:102E30008275013AC1F87452F9D2203B13F1200F88
:102E4000F2D1BFF34F8FBFF36F8F70BD00ED00E085
:102E5000034B902283F85A2383F85823704700BF0E
:102E600000E100E0094A0A49D3680A48C3F30A03AB
:102E7000013B9BB20B801169C1F30A01013901804A
:102E80001364536B43F001035363704700680140C0
:102E9000448B0220428B0220014BD3F8AC007047D8
:102EA00000680140024B0122C3F8AC105A6270471F
:102EB00000680140034B5B69DB0301D5FFF7A4BF4A
:102EC000704700BF00ED00E070B5044607F049FC14
:102ED00023685D6E0DF0B2FF01462046A8472368C7
:102EE0002046D3F880309847236820469B6F984748
:102EF0002368054A2046D3F888500023A2F57F3185
:102F0000AC46BDE87040604700F807C007F010BC51
:102F100008B590F84B3013B1044B01221A7007F03A
:102F200013FCBDE80840FFF733BC00BF408B022014
:102F300008B507F0C7FB044B5B69DB0303D5BDE8AD
:102F40000840FFF761BF08BD00ED00E007F023BDBA
:102F5000034B4FF080629A604FF080729A60704726
:102F600000E100E0084B4FF08062C3F88820BFF317
:102F70004F8FBFF36F8F4FF08072C3F88820BFF37D
:102F80004F8FBFF36F8F704700E100E010B5144C16
:102F9000236823B3134B144A1B6C11888B4213D143
:102FA000124B198805F078F9226892F866300133DF
:102FB00082F86630FFF7E6FB206808F0FFF9002092
:102FC000BDE81040FFF7B2BA05F066F92068036863
:102FD0001B6A98470020BDE81040FFF7A8BA10BD53
:102FE0000C8D022000680140448B0220428B02209D
:102FF000704708B5082922D8DFE801F005090D114E
:1030000011151D191D0003F0AFFA006808BD03F08B
:10301000ABFA4068FAE703F0A7FA8068F6E703F036
:10302000A3FAC068F2E703F09FFA0069EEE703F045
:103030009BFA8069EAE703F097FA4069E6E7002027
:10304000E4E710B5044604211FF059FC204610BDEA
:1030500000487047F83E02080820704713B5002466
:1030600051B1036801AA01948DF803409C680DF1E9
:103070000303A04702B010BD0846FBE74089704734
:10308000808970478088704783798288981880B2D9
:103090007047C07900F07F007047C079C009704761
:1030A000704710B5044608211FF029FC204610BDCA
:1030B0007047704700F596730868496803C3704706
:1030C000704770474160704770470000064BC0F87A
:1030D0004401C0F848310023C0F84C3100F5A0731A
:1030E000C0F83C31704700BFF1340008012303727F
:1030F00070477047704710B441680346C2689B68C8
:10310000541001EB6200D20748BF0A595DF8044B26
:1031100048BFD358184743682BB183682BB9C068A0
:1031200000F001007047184670470120704710B545
:1031300004460C211FF0E3FB204610BD10B50446E9
:1031400010211FF0DCFB204610BD10B504464FF4E3
:10315000AC711FF0D4FB204610BD08B50DF06EFE1B
:10316000BDE808400EF048BA10B50446D0F83C015E
:1031700058B10368DB68984738B1D4F83C0103685C
:103180009B6898470023C4F83C3110BDF8B504464D
:1031900017460E460DF08AFE104B00251C6029468E
:1031A0000F4BC4E954760F4E236030680E4BC4E9D0
:1031B0005255C4E950350368C4E94E559B68984799
:1031C000284603F085F9336893F876200AB1D86C65
:1031D00000B9986816F03FFD2046F8BD788D0220B2
:1031E000304502080C8D022018450208064BC0F835
:1031F0004401C0F848310023C0F84C3100F5A073F9
:10320000C0F83C31704700BFF1340008064BC0F8ED
:103210004401C0F848310023C0F84C3100F5A073D8
:10322000C0F83C31704700BFA1330008064BC0F81E
:103230004401C0F848310023C0F84C3100F5A073B8
:10324000C0F83C31704700BF5532000803685B6A24
:10325000184700002DE9F14FD0E9545A0746A868F5
:1032600003681B6A9847B0F5307F05D2444BA32111
:10327000444A45481FF072FB686803681B6A984718
:103280000F2803D8414BA4213E4AF2E7E8680368BF
:103290001B6A98470B2803D83D4BA521394AE8E71C
:1032A000DFF8F4900DF0CAFD0DF0E4FDD9F8000050
:1032B00010B10368DB689847D9F8000010B10368C3
:1032C0001B689847DFF8D480D8F8000010B1036875
:1032D0005B699847D7F8380110B103685B68984775
:1032E000D8F8000010B103681B689847D7F8380178
:1032F00010B103689B6898470021E868FFF7A6FFB4
:103300004FF0000B234B0446C0F804B0594603604D
:1033100080F808B0A86803685B6A9847064603F01F
:103320008BF96868594603685B6A984705463146D9
:1033300003F068F9C9F80040C7F83851C8F80060D0
:10334000E5B12B1DCAF8003030463368C5F808A037
:10335000DB68F56398472B6828461B689847214629
:1033600030460FF00BFA236820461B699847236804
:1033700020465B6901B0BDE8F04F18472B46E1E7F6
:10338000A83F02083640020852410208994102084B
:103390003C4202087C4502086C8D0220688D0220A8
:1033A0002DE9F14FD0E9545A0746A86803681B6A13
:1033B0009847464B984205D8454BA321454A464875
:1033C0001FF0CCFA686803681B6A98470F2803D877
:1033D000424BA4213F4AF2E7E86803681B6A98471A
:1033E0000B2803D83E4BA5213A4AE8E7DFF8F890CE
:1033F0000DF024FD0DF03EFDD9F8000010B103687A
:10340000DB689847D9F8000010B103681B6898473B
:10341000DFF8D880D8F8000010B103685B699847DE
:10342000D7F8380110B103685B689847D8F80000F6
:1034300010B103681B689847D7F8380110B10368CA
:103440009B6898470021E868FFF700FF4FF0000BEA
:10345000244B0446C0F804B05946036080F808B015
:10346000A86803685B6A9847064603F019FB68681A
:10347000594603685B6A98470546314603F026F9CA
:10348000C9F80040C7F83851C8F80060E5B12B1DF5
:10349000CAF8003030463368C5F808A0DB68F56329
:1034A00098472B6828461B689847214630460FF0FE
:1034B00065F9236820461B699847236820465B69A5
:1034C00001B0BDE8F04F18472B46E1E77F37020017
:1034D000A83F0208DF42020852410208994102084F
:1034E0003C4202087C4502086C8D0220688D022057
:1034F0002DE9F14FD0E9545A0746A86803681B6AC2
:103500009847B0F5EE5F05D2444BA321444A4548A5
:103510001FF024FA686803681B6A98470F2803D8CD
:10352000414BA4213E4AF2E7E86803681B6A9847CA
:103530000B2803D83D4BA521394AE8E7DFF8F49082
:103540000DF07CFC0DF096FCD9F8000010B103687A
:10355000DB689847D9F8000010B103681B689847EA
:10356000DFF8D480D8F8000010B103685B69984791
:10357000D7F8380110B103685B689847D8F80000A5
:1035800010B103681B689847D7F8380110B1036879
:103590009B6898470021E868FFF758FE4FF0000B42
:1035A000234B0446C0F804B05946036080F808B0C5
:1035B000A86803685B6A9847064603F06FF8686876
:1035C000594603685B6A98470546314603F04CF854
:1035D000C9F80040C7F83851C8F80060E5B12B1DA4
:1035E000CAF8003030463368C5F808A0DB68F563D8
:1035F00098472B6828461B689847214630460FF0AD
:10360000BDF8236820461B699847236820465B69FC
:1036100001B0BDE8F04F18472B46E1E7A83F02088C
:10362000F143020852410208994102083C42020853
:103630007C4502086C8D0220688D0220006A70476C
:10364000406A704770478B888069DB0A0A6850F8C7
:1036500023001044704710B5C2B1137BB3B1547B43
:10366000D27A240204F4E0641443C26998B202EBF3
:10367000840213888B4202D192F9020010BD05D852
:103680000138043280B20028F3D1F7E70020F5E7D3
:1036900010B5044628211FF032F9204610BD000065
:1036A00030B589B00446BDF850500695BDF84C5071
:1036B00005959DF8405004959DF83C5003959DF864
:1036C000385002959DF8345001959DF83050009582
:1036D0000EF0E2FB064B20462360119BA361129B78
:1036E000E361159B2362169B636209B030BD00BF86
:1036F000A04502080020704781807047C180704754
:10370000018170474181704770477047704770472B
:10371000704710B4C4880368121B84885B6D091B52
:1037200012B25DF8044B09B218474FF6FF7383815C
:103730004FF0FF3303621368C36110607047704736
:10374000704770477047704790F825201AB190F87D
:10375000242002B11860704770477047704730B43A
:1037600044680346C2689B68551004EB6200D207A8
:1037700048BF625930BC48BFD358184743682BB183
:1037800083682BB9C06800F0010070471846704785
:103790000120704710B5044610211FF0B0F82046F4
:1037A00010BD10B504464FF430711FF0A8F8204644
:1037B00010BD90F8252012B103685B691847704767
:1037C0009830884208B505D10DF038FBBDE80840B7
:1037D000FFF71CBD08BD036870B504461B6B15469A
:1037E00098472368204629465B6BBDE87040184720
:1037F00070B504461D46BDF91060FFF7ECFF236865
:10380000294620469B6B9847236831462046DB6B50
:10381000BDE8704018470000094A4FF4807102600B
:1038200000228184FF21826280F82610C0E90122F3
:10383000C0E90322C0E90522C0E90722704700BFA2
:10384000247A02084FF48071002281840C490263BB
:1038500001600C49028781624FF6FF71C263818566
:103860004FF47F0141634FF0FF31C0E90122C0E90D
:103870000322C0E90522C0E90722C0E910127047FF
:1038800064790208A03F02082DE9F04F04460026A3
:103890004FF4887504F5807B04F5A47A04F5C879A3
:1038A00004F5EC782DED068B8DB00EF0BBFD2246B5
:1038B000BE4B0AAFE66342F8403B104608EE102AC2
:1038C000FFF7AAFF04F16C0318460AEE103AFFF75F
:1038D000A3FF04F19803184609EE903A0BF0C6F8DE
:1038E00004F1D40318460AEE903AFFF795FF5846C4
:1038F000FFF7A8FF5046FFF7A5FF4846FFF7A2FFD6
:103900004046FFF79FFF04F50873184608EE903A0B
:10391000FFF798FF04F51A73184609EE103AFFF7FF
:1039200091FFA34B3246314618EE100A0095C4E9C8
:10393000AC34A04BC4E9AE364FF4F073FFF758FF38
:103940004FF07F43324631461AEE100AA3660095C7
:103950004FF4F073FFF74CFF4FF0FF3319EE900A6E
:10396000CA22C4F894301121FFF735FF012308AAB9
:1039700007A9ADF81C3019EE900AADF820300223EB
:10398000009702ADADF82430ADF8283009AB0AF04D
:10399000BAFF894B1AEE900A2D22C4F8D03004F5F4
:1039A0002C730E21C4F8C030942300934FF4E073BD
:1039B000FFF71EFF814B0B225846C4F8FC30A223B0
:1039C0009C2184F8FA3022230093A923FFF710FFEB
:1039D0007B4B59462846C4F83031A4F834610AF0CC
:1039E0004BFA04F59E7395E8070083E80700754BD2
:1039F000394658460A931723ADF82C300AF080FD5B
:103A000050463C221A21FFF7E6FE4FF07F42514616
:103A10002846C4F87821A4F87C610AF02DFA04F550
:103A2000C27395E8070083E80700664B39465046A5
:103A30000A930A23ADF82C300AF062FD48465E2254
:103A40001A21FFF7C8FE4FF07F4249462846C4F8C6
:103A5000C021A4F8C4610AF00FFA04F5E67395E8F2
:103A6000070083E80700574B394648460A93092365
:103A7000ADF82C300AF044FD40467E221A21FFF7B3
:103A8000AAFE4FF07F4241462846C4F80822A4F817
:103A90000C620AF0F1F904F5057395E8070083E874
:103AA0000700484B394640460A930823ADF82C30AE
:103AB0000AF026FD18EE900A9F221A21FFF78BFECE
:103AC0004FF07F4218EE901A2846C4F85022A4F80E
:103AD00054620AF0D1F904F5177395E8070083E8FA
:103AE0000700384B394618EE900A0A930723ADF8C1
:103AF0002C300AF005FD0F2319EE100AF72240F2D0
:103B000027110093AF23FFF773FE4FF07F4219EEAA
:103B1000101A2846C4F89822A4F89C620AF0ACF95E
:103B200004F5297395E8070083E80700254B251D58
:103B3000394619EE100A0A930623ADF82C300AF024
:103B4000DFFC18EE101A284606F064FB1AEE101A75
:103B5000284606F05FFB19EE901A284606F05AFB3D
:103B60001AEE901A284606F055FB5946284606F0EC
:103B700051FB5146284606F04DFB4946284606F0C3
:103B800049FB4146284606F045FB18EE901A2846A8
:103B900006F040FB284619EE101A06F03BFB2046C3
:103BA0000DB0BDEC068BBDE8F08F00BF10460208DB
:103BB000F8450208C137000814000F00C48545FF0E
:103BC000EB9D0CFFA03F020870477047F023A0F860
:103BD0009C31704710B504464FF4EE511EF08FFE35
:103BE000204610BD08B5B0F89C3153B1013B9BB2E3
:103BF000A0F89C312BB90DF021F9BDE80840FFF782
:103C000005BB08BD0022C0E90122C0E90322C0E9CA
:103C10000522C0E907224FF480728284014A0260C3
:103C2000704700BF444602082DE9F04F04460026C5
:103C30004FF6FF75A34604F1980A04F1E00904F574
:103C4000947804F5B8772DED028B8BB00EF0EAFB7B
:103C50006B4BE6634BF8403B5846FFF7DDFD04F144
:103C60006C03184608EE103AFFF7D6FD5046FFF7F2
:103C7000E9FD4846FFF7E6FD4046FFF7E3FD262253
:103C800031463846ADF820501FF05BF83846FFF754
:103C9000B9FF5C4B08A93846C4F87031BDF8203034
:103CA00084F898514FF48875A4F896310AF005FF0E
:103CB00004F5CF70A4F89C614FF4E1510AF07AFF4B
:103CC00032463146584600954FF4F073FFF790FDA9
:103CD0004FF07F433246314618EE100AA366009536
:103CE0004FF4F073FFF784FD4FF0FF331B22504673
:103CF000C4F894305721FFF76EFD04AD4FF07F43B9
:103D000051462846A4F8CC60C4F8C8300AF0B4F88C
:103D100004F1D40395E8070083E807003A4B132227
:103D200008A950460893ADF824200AF0E9FB612267
:103D300048465A21FFF74FFD4FF07F43494628463A
:103D4000C4F81031A4F814610AF096F804F58E7CDA
:103D50002D4B95E807008CE80700122208A9484679
:103D60000893ADF824200AF0CBFBF92240469C21B1
:103D7000FFF731FD4FF07F4341462846C4F85831E4
:103D8000A4F85C6104F5B2760AF076F81E4B95E86B
:103D9000070008930B2386E8070008A94046ADF802
:103DA00024300AF0ADFB9E2238461B21FFF713FD9D
:103DB000072308A93846ADF820300AF07EFE201D02
:103DC0005946039006F026FA18EE101A039806F0EA
:103DD00021FA5146039806F01DFA4946039806F069
:103DE00019FA4146039806F015FA0398394606F089
:103DF00011FA20460BB0BDEC028BBDE8F08F00BF7E
:103E0000AC460208347C0208A03F0208806A704772
:103E100030B585B00368044601816D460146D3F88C
:103E200084303C342846984795E8070084E807002A
:103E300005B030BD30B585B00368044641816D469C
:103E40000146D3F884303C342846984795E807006B
:103E500084E8070005B030BD0022028042808280E5
:103E6000C280704780F836107047036870B504460A
:103E70001B6B154698472368204629465B6EBDE8B4
:103E8000704018470020704700224FF0FF318260D9
:103E9000C0E900217047806C7047006B7047406B31
:103EA000704780F82C10704710B40368046BD3F887
:103EB000A430624361435DF8044B1847D0ED0C7A9F
:103EC0000368F8EEE77A10B420EE270AD3F8A4408E
:103ED000B5EEC00AF1EE10FA1ADBB6EE007A30EE5B
:103EE000070ABDEEC07A17EE101A60EEA70AF5EECB
:103EF000C00AF1EE10FA1EDBF6EE007A70EEA70AA9
:103F0000FDEEE07A17EE902A23465DF8044B184741
:103F1000BDEEC07AF8EEC76A17EE103A013B30EEFC
:103F2000660AF7EE086A30EE260ABDEEC00A10EE09
:103F3000101A1944D9E7FDEEE07AB8EEE77A17EEE9
:103F4000903A013B70EEC70AB7EE087A70EE870A26
:103F5000FDEEE00A10EE902A1A44D5E710B403688B
:103F6000046BD3F8B03062435DF8044B1847D0EDD2
:103F70000C7A0368F8EEE77A10B427EE800AD3F8DB
:103F8000B040B5EEC00AF1EE10FA0BDBF6EE007AA7
:103F900030EE270AFDEEC07A17EE902A23465DF830
:103FA000044B1847FDEEC07AB8EEE77A17EE903A68
:103FB000013B30EE470AB7EE087A30EE070ABDEE55
:103FC000C00A10EE102A1A44E8E710B40368446BE4
:103FD000D3F8BC30624361435DF8044B1847D0ED21
:103FE0000D7A0368F8EEE77A10B420EE270AD3F8CA
:103FF000BC40B5EEC00AF1EE10FA1ADBB6EE007A5C
:1040000030EE070ABDEEC07A17EE101A60EEA70A6E
:10401000F5EEC00AF1EE10FA1EDBF6EE007A70EE55
:10402000A70AFDEEE07A17EE902A23465DF8044BCE
:104030001847BDEEC07AF8EEC76A17EE103A013B9A
:1040400030EE660AF7EE086A30EE260ABDEEC00AC8
:1040500010EE101A1944D9E7FDEEE07AB8EEE77ACF
:1040600017EE903A013B70EEC70AB7EE087A70EE91
:10407000870AFDEEE00A10EE902A1A44D5E710B444
:104080000368446BD3F8C03062435DF8044B1847B3
:10409000D0ED0D7A0368F8EEE77A10B427EE800AC7
:1040A000D3F8C040B5EEC00AF1EE10FA0BDBF6EE25
:1040B000007A30EE270AFDEEC07A17EE902A2346EA
:1040C0005DF8044B1847FDEEC07AB8EEE77A17EEBC
:1040D000903A013B30EE470AB7EE087A30EE070A15
:1040E000BDEEC00A10EE102A1A44E8E7D0F82C31D1
:1040F000026B002B07DB02EB430090FBF2F000EBBE
:10410000D070401070476FF0010101FB03200138AF
:1041100090FBF2F000EBD070401040427047D0EDC1
:104120004B7A90ED0C0AF8EEE77AB8EEC00A87EE0B
:10413000800A7047D0F82C017047D0F83031026BFC
:10414000002B07DB02EB430090FBF2F000EBD0709A
:10415000401070476FF0010101FB0320013890FB14
:10416000F2F000EBD070401040427047D0ED4C7A36
:1041700090ED0C0AF8EEE77AB8EEC00A87EE800AF6
:104180007047D0F830017047D0F83431426B002BC3
:1041900007DB02EB430090FBF2F000EBD070401025
:1041A00070476FF0010101FB0320013890FBF2F032
:1041B00000EBD070401040427047D0ED4D7A90ED4A
:1041C0000D0AF8EEE77AB8EEC00A87EE800A70476B
:1041D000D0F834017047D0F83831426B002B07DB40
:1041E00002EB430090FBF2F000EBD0704010704700
:1041F0006FF0010101FB0320013890FBF2F000EBAE
:10420000D070401040427047D0ED4E7A90ED0D0ACC
:10421000F8EEE77AB8EEC00A87EE800A7047D0F869
:1042200038017047036870B50446D3F888300D46EE
:10423000164698472368324629462046D3F89030E0
:10424000BDE8704018470368D3F8943018470368F6
:10425000D3F8D43018470368D3F8E0301847036820
:10426000002A10B4D3F8A430046B0EDB04EB420236
:1042700092FBF4F101EBD1714910B0F91E215DF808
:10428000044B013A0A44494218476FF0010101FB0F
:104290000241013991FBF4F101EBD171491049421E
:1042A000EBE70368D3F83C311847026B03685143CE
:1042B000D3F8483118470368D3F844311847D0ED94
:1042C0000C7A0368F8EEE77AD3F8482127EE800AE3
:1042D000B5EEC00AF1EE10FA08DBF6EE007A30EE29
:1042E000270AFDEEC07A17EE901A1047FDEEC07A4D
:1042F000B8EEE77A17EE903A013B30EE470AB7EE98
:10430000087A30EE070ABDEEC00A10EE101A194402
:10431000EBE7C0F83C1170470368D3F850311847F9
:10432000036810B5D3F85C31044698470028236B26
:1043300007DB03EB400090FBF3F000EBD070401084
:1043400010BD6FF0010202FB0030013890FBF3F06A
:1043500000EBD07040104042F2E70368D3F85831C8
:104360001847036810B5D3F85C310446984707EE48
:10437000900AB8EEE70AD4ED0C7AF8EEE77A80EE10
:10438000270A10BDD0F83C017047026B0368514307
:10439000D3F868311847D0ED0C7A0368F8EEE77A65
:1043A000D3F8682127EE800AB5EEC00AF1EE10FAC4
:1043B00008DBF6EE007A30EE270AFDEEC07A17EE43
:1043C000901A1047FDEEC07AB8EEE77A17EE903AF1
:1043D000013B30EE470AB7EE087A30EE070ABDEE31
:1043E000C00A10EE101A1944EBE7C0F840117047EC
:1043F000036810B5D3F87431044698470028236B3E
:1044000007DB03EB400090FBF3F000EBD0704010B3
:1044100010BD6FF0010202FB0030013890FBF3F099
:1044200000EBD07040104042F2E7036810B5D3F8BB
:1044300074310446984707EE900AB8EEE70AD4EDC7
:104440000C7AF8EEE77A80EE270A10BDD0F840012A
:1044500070470846704703680029026BD3F884311F
:1044600010B504460EDB02EB410191FBF2F101EBCA
:10447000D171491009B220469847D4E94F2302FB75
:10448000003010BD6FF0010000FB0121013991FBEC
:10449000F2F101EBD17149104942EBE7006B704733
:1044A000406B70470368D3F8483118470368D3F866
:1044B0005C311847026B03685143D3F81431184735
:1044C000036870B5D3F818510446D0F84461D3F8A6
:1044D000803198472B4656F820102046BDE87040A2
:1044E000184710467047D0F83C21036852F8211055
:1044F000D3F814311847D0F84021036852F821103E
:10450000D3F818311847D0F84831B0F91E011944D2
:10451000081A704780F82610704790F826007047F8
:1045200001637047006B7047012070477047704708
:10453000006C18B10368D3F8843018477047B2F89C
:104540001A1130B5B2F91441B2F940502144B2F811
:1045500042204480521A002185800180C28030BDF3
:1045600010B54280BDF90840BDF90C20048082805E
:10457000C38010BD0B680846D3F8D43018470B68C9
:104580000846D3F8E0301847B1F914017047B1F884
:104590001431B1F81A21B1F842001344C01A00B224
:1045A0007047B1F916017047B1F81631B1F818210A
:1045B000B1F840001344C01A00B270470B680846B7
:1045C0001146D3F81431184730B5B2F91651B2F884
:1045D0001841B2F840102C44B2F942200580091B62
:1045E0000024C2804480818030BD02808380BDF978
:1045F0000020BDF904304280C38070470B68084634
:10460000D3F8EC3018470B680846D3F8F830184751
:10461000B1F916017047B1F81631B1F81821B1F8A7
:1046200040001344C01A00B27047B1F9140170473A
:10463000B1F81431B1F81A21B1F842001344C01A8C
:1046400000B270470B6808461146D3F81831184776
:1046500070477047704770477047704770477047A2
:104660007047704790F82C304BB100F1700212681F
:1046700002663BB100F178031B684366704700F1A6
:104680006C02F4E700F17403F6E708B590F82C30FB
:104690003BB100F1C8031B68C0F8AC30FFF7E2FF84
:1046A00008BD00F1C403F6E790F82C304BB100F1DF
:1046B0006C021268C2653BB100F174031B680366AB
:1046C000704700F16802F4E700F17003F6E708B5FF
:1046D00090F82C303BB100F1C4031B68C0F8A8303F
:1046E000FFF7E2FF08BD00F1C003F6E7704770472F
:1046F000704770477047704770477047704730B4D5
:1047000044680346C2689B68551004EB6200D207F8
:1047100048BF625930BC48BFD358184743682BB1D3
:1047200083682BB9C06800F00100704718467047D5
:104730000120704730B444680346C2689B68551036
:1047400004EB6200D20748BF625930BC48BFD3585F
:10475000184743682BB183682BB9C06800F001008B
:104760007047184670470120704790F82D3080F848
:10477000AE3080F85A30704790F82D3080F85A30BB
:10478000704790F82D3080F8B23080F85E30704776
:1047900090F82D3080F85E30704700F5E040A0F8CA
:1047A000481E704700F5E040B0F8480E704710B55D
:1047B00004464C211EF0A3F8204610BD10B5044657
:1047C00044211EF09CF8204610BD10B5044644213B
:1047D0001EF095F8204610BD10B5044641F2084180
:1047E0001EF08DF8204610BD10B5044647F66061F6
:1047F0001EF085F8204610BD10B5044610211EF0AD
:104800007EF8204610BD10B5044610211EF077F842
:10481000204610BD10B504467C211EF070F82046DD
:1048200010BD10B50446CC211EF069F8204610BD1D
:1048300010B5044678211EF062F8204610BD10B570
:104840000446C8211EF05BF8204610BD10B5044692
:1048500002491EF054F8204610BD00BF7037020018
:1048600090F82C300BB105F091BC704713B503469E
:104870000846D3E90D1403680191D3F88C309847AA
:1048800001990246204602B0BDE8104007F00ABF79
:1048900013B503460846D3E90D1403680191D3F814
:1048A0009430984701990246204602B0BDE8104076
:1048B00007F0F8BE10B50446006B50B10368DB6822
:1048C000984730B1206B21460368BDE810409B68D3
:1048D000184710BD00F5053210B402F53774A14237
:1048E00004D103681B6B5DF8044B184702F56A722C
:1048F000914202D103689B6BF5E700F5063202F1A5
:104900007404A14202D10368DB6BECE702F5A074EA
:10491000A14202D103681B6CE5E702F503729142E4
:1049200002D103685B6CDEE75DF8044B7047000062
:104930000A1E10B503DBB0F91E41944206DC084B99
:1049400040F23161074A08481EF008F80368D0F8C1
:104950004441D3F88031984754F8200010BD00BF7F
:10496000D8460208FB4602084A4702080B1E10B54B
:10497000044603DBB0F91E219A4206DC074B40F2E5
:104980002B61074A07481DF0E9FF0368D3F884311B
:104990009847D4E94F2302FB003010BDD8460208E7
:1049A000A74702084A470208002908B503DBB0F907
:1049B0001E318B4206DC064B40F2EB61054A06488D
:1049C0001DF0CCFFD0F8403153F8210008BD00BFE6
:1049D000D8460208F64702084A470208002908B5E7
:1049E00003DBB0F91E318B4206DC064B40F2DB6183
:1049F000054A06481DF0B2FFD0F83C3153F82100BB
:104A000008BD00BFD8460208444802084A470208C9
:104A10000368828D70B55E6B0446114B8DB21B68C6
:104A20002BB9104BAE21104A10481DF097FF1049CA
:104A30000988914203D80F4BAF210B4AF4E713F8D2
:104A400012200D4B1B6853F822000368DB6A98475D
:104A5000281A334601B22046BDE87040184700BF0F
:104A60007C8D022092480208D448020802490208BC
:104A7000808D022049490208848D022070B50D798D
:104A8000044690F82C303DB93BB123682046D3F85A
:104A90008830BDE8704018477BB1B5FA85F32046F1
:104AA0005B0984F82C302368D3F88C30984723684E
:104AB00020465B699847002DE7D070BD00F50532B0
:104AC00002F5E472914210B505D10CF0B7F9BDE8DA
:104AD0001040FEF7ABBB00F5063202F5357291428D
:104AE00004D10368BDE810405B6B184710BD2DE989
:104AF000F04100F5E044064694F8443E002B54D0C3
:104B0000B4F8463EB4F8482E01339BB29342A4F861
:104B1000463E4AD39B1AB4F8502ED4F8547E002156
:104B20009DB2B4F84C3ED21A2846B4F84A3E12B2AE
:104B3000B847B4F84E3EB4F8522E80460021D4F85F
:104B4000587ED21A2846B4F84A3E12B2B847B4F892
:104B50004E3E1844B4F84C3E08EB030102B2304616
:104B600009B2FEF7D6FDB4F8483EB4F84A1EB4F8D0
:104B7000462E0B449A4218D3002384F8443EA4F8EE
:104B8000463E0CF05BF931460CF05EF9D4F85C0E51
:104B900058B10368DB68984738B1D4F85C0E3146E9
:104BA0000368BDE8F0419B681847BDE8F08170B527
:104BB0000D46097990F834200446A1F1020C90F8D2
:104BC0002C30DCF1000646EB0C06012980F834603D
:104BD00016D0BAB983F0010380F82C300368D3F8FB
:104BE0008C309847236820465B6998472B79012BC6
:104BF00008D123682046D3F88830BDE870401847B4
:104C0000002AF6D070BD0000074A02600022C0E909
:104C10000122C0E90322C0E90522C0E907224FF4BE
:104C200080728284704700BF70800208036870B58C
:104C300004469B6B15469847236820462946DB6B44
:104C4000BDE870401847000010B50446FEF7E4FDCB
:104C5000034B204623600023E362238610BD00BF80
:104C6000BC7A020837B501AB15460DF011FA0028E1
:104C70002A4601994FEA40144FF0200004DB0DF062
:104C800026FA204403B030BD0DF021FA201AF9E7CE
:104C900070B5B0F81A310E46B0F91441B0F8425070
:104CA0002344ED1A2DB22C44691ED0E94D32013C4B
:104CB000D21AF01AFFF7D6FFC0EB441070BD38B51A
:104CC00004460846B4F81631B4F818110B44B4F889
:104CD0004010C91AD4E94B5209B2521B401B01398A
:104CE000FFF7C0FFB4F9163100EB431038BD0000E8
:104CF00010B5044606F022FF014B2046236010BD8C
:104D00001C4B020810B50446FFF7F2FF064A0023C9
:104D10000A21204622600122236384F83C20236478
:104D2000C4E90D2110BD00BF8876020870B50023CC
:104D3000FF22144E044602724360134AC0E9033353
:104D40003368026093F876200AB1D86C00B998688D
:104D50000368DB6A98473368B0FA80F5D86C6D0950
:104D600030B10368DB6A9847002808BF45F00105A9
:104D70002DB9064B2C21064A06481DF0EFFD2046B2
:104D800070BD00BF0C8D0220C86E02088749020862
:104D9000E54902081E4A020810B50446FFF7A8FFBD
:104DA0000B4A0023204622600122236384F844300A
:104DB000A4F84630E364C4E90D23064AE2634FF6E3
:104DC000FF72A4F840202E22A4F8482010BD00BF96
:104DD00090780208A03F020810B54FF47A610446AB
:104DE00007F0EEFB134B204640F69F72236004F55C
:104DF000A2730021C4F83C3104F57F530433C4F896
:104E00004031FFF751F80C4B00222046236004F597
:104E1000E04383F8442EA3F8462EC3F8482EC3F887
:104E20004C2EC3F8502EC3F8542EC3F8582EC3F896
:104E30005C2E10BD7C700208B04E020870B50446AE
:104E4000FFF7E2FE4FF47F4300252646A3850123AA
:104E5000A56284F82430124B256384F8345046F858
:104E6000383B3046FFF7F0FE2A4629463046C4E973
:104E70001B55C4E91D55FEF7AEFC314620462646BB
:104E800005F0C8F9074B46F87C3B3046FEF7DAFCE4
:104E900020463146C4E9315505F0BCF9204670BDC5
:104EA000F44F02089050020810B44367019B5DF86C
:104EB000044B83670368C0E91B12D3F88C30184792
:104EC00013B504467C30019009F01AFBB4F90A20AE
:104ED000B4F908100198FFF7A9FE02B010BD0368ED
:104EE000C0E93112D3F88C30184700002DE9F04F9B
:104EF000834600250126E24F0BF5805A4FF0020849
:104F0000E04C0BF510492DED108BB3B00DF08AFA83
:104F10005A46DD4BCBF83C5042F8403B10460DEE74
:104F2000902AFEF779FC0BF16C0318461293FEF7FA
:104F300073FC0BF1980318461393FFF785FE0BF1F2
:104F4000CC0318461493FFF77FFE0BF580731846C9
:104F50000EEE103AFEF776FCCC4B40F2AF41CBF8A8
:104F60004851CBF800310BF5A67318460AEE103AFB
:104F700007F026FBC64A29461AEE100ACBF84C2148
:104F80000BF52672CBE9A265CBE9A42540F2AE422F
:104F9000FEF78AFF0BF5AA53BE4A1433CBF84C2117
:104FA00018460EEE903AFFF7A3FE0BF5AC53CAF885
:104FB000547504338AF8828518461093FFF7B6FEBD
:104FC0000BF5AC53CAF884451C33CAF898551846FB
:104FD0000693FFF7E1FE0BF5AF52AF4B0C32CAF868
:104FE0009C3510460892FFF7D7FE0BF5B151AB4A3E
:104FF0001C31CAF8EC25084608EE101AFFF7ECFE43
:105000000BF514419C3108460FEE101AFFF770FEA5
:105010000BF51441C9F89C74CC3189F8CA840BF59E
:10502000883808460F91FFF781FE0BF51441C9F847
:10503000CC440BF58A34E431C9F8E05408460991B0
:10504000FFF760FE0BF5154095492830C9F8E414C8
:105050000A90FFF757FE0BF5154E92480EF16C0EB5
:10506000C9F828057046CDF82CE0FFF795FE0BF542
:10507000154E894B0EF1BC0EC9F86C357046CDF853
:1050800030E0FFF789FE0BF5164E84480EF10C0E4A
:10509000C9F8BC05704608EE90EAFFF79DFE04F1E2
:1050A0006C0E7046CDF854E0FFF722FE4FF0020C74
:1050B00004F19C0EC8F86C7488F89AC40BF5C837D4
:1050C0007046CDF89CE0FFF731FE6E4A04F1B40E55
:1050D000C8F8B054C8F89C247046CDF860E0FFF7DB
:1050E00011FE04F1F80E6E497046CDF864E0C8F880
:1050F000B414FFF707FE04F59E7E6A48CDF868E019
:10510000C8F8F8047046FFF747FE634904F5C67E09
:1051100004F5EE74C8F83C157046CDF86CE0FFF766
:105120003BFE5E4809EE104AC8F88C0520460BF598
:10513000CA34FFF751FE04F13C0E7046CDF858E03A
:10514000FFF7D6FD4E4B4FF0020C04F16C0EC7F882
:105150003C3487F86AC47046CDF898E0FFF7E6FD66
:10516000484A04F1840EC7F88054C7F86C2470468E
:10517000CDF870E0FFF7C6FD04F1C80E484970464F
:10518000C7F88414CDF874E0FFF7BCFD04F5867E03
:105190004448C7F8C8047046CDF878E0FFF7FCFD36
:1051A00004F5AE7E3C4904F5D6747046C7F80C157C
:1051B000CDF87CE0FFF7F0FD384809EE904AC7F8DB
:1051C0005C0520460BF50534FFF706FE02940C340F
:1051D000204617940BF50434FFF78AFD284B4FF057
:1051E000020CC4F80C34029B84F83AC43C331846D1
:1051F0002593FFF79BFD029B224A5433C4F8505479
:10520000C4F83C2418462093FFF77CFD029B244AF7
:105210009833C4F8542418462193FFF773FD214AAC
:10522000C4F89824029ADC3210462292FFF7B4FDAB
:10523000029B194903F59673C4F8DC1418462393AE
:10524000FFF7AAFD029B154803F5BE73C4F82C05B1
:1052500018460FEE903AFEF7F5FA0C4BC4F8C45519
:10526000C4F87C35029B03F5E47318460D9309F0EE
:10527000FDFB029B03F5017318460BEE103A13E099
:1052800004760208A86E0208945202088C4A0208AA
:10529000B8710208184D020848770208EC77020836
:1052A000A04B02085C4C0208FEF7CCFA029B03F507
:1052B000137318460493FEF7C5FA029B03F5257392
:1052C00018460593FEF7BEFA029B03F5377318469E
:1052D0000BEE903AFFF7B2FD029B03F56A73184696
:1052E0000CEE103AFFF7AAFD0BF506330393743367
:1052F00018460CEE903AFFF7A1FD039B03F5A0734F
:1053000018460DEE103AFFF799FD039B03F5037362
:1053100018460AEE903AFFF777FC4FF47F43C4F843
:10532000345AA4F8383A634BC4F83C5AC4F80C3ADF
:10533000039B84F8306A03F5107318461193FFF746
:1053400083FC2A4629461198C4F8745AC4F8785A3E
:10535000C4F87C5AC4F8805AFEF73DFA11991AEE47
:10536000900A04F057FF544BC4F80C3A039B03F522
:10537000217318460793FEF765FA07991AEE900A0B
:10538000C4F8CC5AC4F8D05A04F044FF039B03F588
:10539000357318460E9309F069FB484B4FF4E15101
:1053A000C4F834BBC4F8303B454BC4F83C5BC4F88C
:1053B000383B444BC4F844BBC4F8403B424BC4F8B0
:1053C0004C5BC4F8483B039B03F5547009F0F2FBB7
:1053D0004FF488732A4629461DEE900A00934FF435
:1053E000F073FEF705FA4FF07F432A462946CBF8C3
:1053F00068304FF48873129800934FF4F073FEF7FF
:10540000F7F94FF0FF330A223921CBF89430CE233D
:10541000139800934FF49B73FEF7EAF92B4A2C4B39
:1054200040F27D111498CBE930234FF00402292378
:10543000ABF8C8201B2200934E23FEF7D9F923496D
:10544000244B28221EEE100ACBE93D134FF0050332
:1054500040F28911ABF8FC30172300933723FEF795
:10546000C7F91D4B1EEE101A28A8CBF83031DBF817
:105470000031ABF83451D3F88430984728AA0BF5A3
:105480009E7307CA83E80700039B03F544732493C4
:10549000124B1B682BB9124BAE21124A12481DF059
:1054A0005DFA124B1B881D2B24D8114BAF210D4ADE
:1054B000F4E700BF2C510208C851020864520208E8
:1054C000BD4A00087C520208D5480008F7F7F7FFEC
:1054D000DE5B09FF0707DEFF0A0AF2FF7C8D022070
:1054E00092480208D448020802490208808D02202E
:1054F00049490208E74B1D21186801F025F8E64AE2
:105500000346062124980FF031F9E44B24991EEE4E
:10551000100A30931E23CBF8481130A9ADF8C430DF
:1055200008F0EEFF2A4631461AEE100AFEF77AFE20
:10553000ED214FF4BB7303221AEE100A00916FF0B5
:105540000601FEF755F90E21022337221AEE100A42
:105550000091062106F0E6FF6FF00F0309220321F8
:105560001AEE100A009506F0AEFEFA220A211AEE93
:10557000100AFEF72AFD3246DAF8D015DAF8D4051B
:1055800007F090F8C8211B231AEE100ACAF8D415A8
:105590004FF0FF31AAF8DC35CAF8CC15CAF8D0654F
:1055A000069906F0BFFE3246DAF82016DAF824062D
:1055B00007F078F81C2319211AEE100AAAF82C36E5
:1055C000B74BCAF82416CAF81C360899CAF82066E0
:1055D00006F096FEB34B10991EEE900ACAF8983565
:1055E00006F0A8F94FF002011AEE100A8AF88215A7
:1055F0001EEE901A06F072FE2A46314618EE100A88
:1056000007F0B2F82A46314618EE100A07F0CFF834
:10561000ED214FF4BB73032218EE100A00916FF0D6
:1056200006014FF0030AFEF7E3F80E2102233722AA
:1056300018EE100A0091062106F074FF6FF00F03B8
:105640000922032118EE100A009506F03CFE40F2F4
:10565000AF42294618EE100AFEF726FCFA220A216C
:1056600018EE100AFEF7B1FC3246D9F81815D9F831
:105670001C0507F017F88C4A642118EE100AC9F8C7
:105680001425C9F81C15C9F81865099989F8206509
:1056900006F024FE3246D9F85C15D9F8600507F00B
:1056A00001F8814A192118EE100AC9F85825C9F8DD
:1056B0006015C9F85C650A9989F8646506F00EFE04
:1056C0003246D9F8A015D9F8A40506F0EBFF1A2345
:1056D000C82118EE100AA9F8AC35744BC9F8A41506
:1056E000C9F89C350B99C9F8A06506F01BFE324637
:1056F000D9F8F015D9F8F40506F0D4FF6B4B192151
:1057000018EE100AC9F8EC35C9F8F415C9F8F065B7
:105710000C99A9F8FCA506F0F3FD65491FEE100AE7
:10572000C9F8E0140F9906F005F91FEE101A18EEEB
:10573000100A89F8CAA406F0D1FD2A46314618EEAF
:10574000900A07F011F82A46314618EE900A07F041
:105750002EF8ED204FF4BB7352466FF00601009017
:1057600018EE900AFEF744F80E2002233722062195
:10577000009018EE900A06F0D5FE6FF00F03092294
:10578000514618EE900A009506F09DFD40F2AF429A
:10579000294618EE900AFEF787FBFA220A2118EE36
:1057A000900AFEF712FC3246D8F8E814D8F8EC0458
:1057B00006F078FF3C4A64201899C8F8E424C8F839
:1057C000EC0418EE900AC8F8E86488F8F06406F073
:1057D00085FD3246D8F82C15D8F8300506F062FF62
:1057E000314A19201999C8F82825C8F8300518EE4B
:1057F000900AC8F82C6588F8346506F06FFD3246CB
:10580000D8F87015D8F8740506F04CFF0C23C820A2
:105810001A99A8F87C35254BC8F8740518EE900A3B
:10582000C8F86C35C8F8706506F07CFD3246D8F8CB
:10583000C015D8F8C40506F035FF19201B4BC8F871
:10584000C4054FF00200C8F8BC351B99A8F8CC0578
:1058500018EE900AC8F8C06506F052FD1449159874
:10586000C8F8B014279906F065F8159918EE900A53
:1058700088F89AA406F032FD2A46314619EE100A3D
:1058800006F072FF2A46314619EE100A06F08FFF25
:10589000ED200FE0888D0220804A0208A03F020818
:1058A000C9881EFF1616C4FFC59714FF0000FFFF2E
:1058B00020C217FF4FF4BB7352466FF006010090F1
:1058C00019EE100AFDF794FF0E200223372206215D
:1058D000009019EE100A06F025FE6FF00F03092262
:1058E000514619EE100A009506F0EDFC40F2AF4269
:1058F000294619EE100AFEF7D7FAFA220A2119EE04
:10590000100AFEF762FBD7F8B8143246D7F8BC0489
:1059100006F0C8FEDA4A64201C99C7F8B424C7F818
:10592000BC0419EE100AC7F8B86487F8C06406F022
:10593000D5FCD7F8FC143246D7F8000506F0B2FEC5
:10594000CF4A19201D99C7F8F824C7F8000519EEA9
:10595000100AC7F8FC6487F8046506F0BFFC3246FD
:10596000D7F84015D7F8440506F09CFEC820C54B73
:10597000C7F844054FF00500C7F83C35A7F84C05BB
:1059800019EE100A1E99C7F8406506F0CBFC3246A6
:10599000D7F89015D7F8940506F084FEB94B192076
:1059A0001F99C7F88C35C7F8940519EE100AC7F887
:1059B0009065A7F89C6506F0A3FCB3491698C7F854
:1059C0008014269905F0B6FF169919EE100A87F88B
:1059D0006AA406F083FC2A46314619EE900A06F0C6
:1059E000C3FE2A46314619EE900A06F0E0FEED208D
:1059F0004FF4BB7352466FF00601009019EE900A07
:105A0000FDF7F6FE0E20022337220621009019EE44
:105A1000900A06F087FD6FF00F030922514619EE38
:105A2000900A009506F04FFC40F2AF42294619EE6D
:105A3000900AFEF739FAFA220A2119EE900AFEF7C7
:105A4000C4FA3246D4F88814D4F88C0406F02AFE3E
:105A50008B4A64202099C4F884241746C4F88C0427
:105A600019EE900AC4F8886484F8906406F036FC55
:105A70003246D4F8CC14D4F8D00406F013FE192022
:105A80002199C4F8C874C4F8D00419EE900AC4F877
:105A9000CC6484F8D46406F021FC3246D4F81015A6
:105AA000D4F8140506F0FEFDC820764FC4F814059E
:105AB0004FF004002299A4F81C0519EE900AC4F8CE
:105AC0000C75C4F8106506F02DFC3246D4F860154C
:105AD000D4F8640506F0E6FD4FF0190C239919EE91
