:020000040800F2
:100000000000052095230008A1220008A322000873
:10001000A5220008A7220008A9220008000000006D
:10002000000000000000000000000000AB220008FB
:10003000AD22000800000000AF220008B122000835
:10004000E5230008E5230008E5230008E523000870
:10005000E5230008E5230008E5230008E523000860
:10006000E5230008E5230008E5230008E523000850
:10007000E5230008E5230008E5230008E523000840
:10008000E5230008E5230008E5230008E523000830
:10009000E5230008E5230008E5230008E523000820
:1000A000E5230008E5230008E5230008E523000810
:1000B000E5230008E5230008B5220008E523000831
:1000C000E5230008E5230008E5230008E5230008F0
:1000D000E5230008E5230008E5230008E5230008E0
:1000E000E5230008E5230008E5230008E5230008D0
:1000F000E5230008E5230008E5230008E5230008C0
:10010000E5230008E5230008E5230008E5230008AF
:10011000E5230008E5230008C1220008E5230008C4
:10012000E5230008E5230008E5230008E52300088F
:10013000E5230008E5230008E5230008E52300087F
:10014000E5230008E5230008E5230008E52300086F
:10015000E5230008E5230008E5230008E52300085F
:10016000E5230008E5230008E5230008E52300084F
:10017000E5230008E5230008E5230008000000004F
:10018000E5230008E5230008E5230008E52300082F
:10019000E5230008E5230008E5230008E52300081F
:1001A000CD220008E5230008D9220008E523000835
:1001B000E5230008E5230008E5230008E5230008FF
:0801C000E5230008E523000817
:1001D00010B5054C237833B9044B13B10448AFF381
:1001E00000800123237010BD1C01002000000000CE
:1001F0000039020808B5034B1BB103490348AFF3AC
:10020000008008BD00000000200100200039020825
:1002100001F0FF01102A2BDB10F0070F08D010F8B7
:10022000013B013A8B422DD010F0070F42B3F6D1BB
:10023000F0B441EA012141EA014122F007047FF0D4
:1002400000070023F0E80256083C85EA010586EA2B
:10025000010685FA47F5A3FA87F586FA47F6A5FA67
:1002600087F68EB9EED1F0BC01F0FF0102F0070273
:1002700032B110F8013B013A83EA010313B1F8D11E
:100280000020704701387047002D06BF35460338FF
:10029000073815F0010F07D1013015F4807F02BF38
:1002A000013015F4C03F0130F0BC0138704700BF89
:1002B00070B54FF0FF0C4CF4E06C1CEA11541DBFFC
:1002C0001CEA135594EA0C0F95EA0C0F00F0DEF8C7
:1002D0002C4481EA030621EA4C5123EA4C5350EAAC
:1002E000013518BF52EA033541F4801143F48013FD
:1002F00038D0A0FB02CE4FF00005E1FB02E506F08E
:100300000042E0FB03E54FF00006E1FB03569CF0E2
:10031000000F18BF4EF0010EA4F1FF04B6F5007FE8
:1003200064F5407404D25FEA4E0E6D4146EB06065A
:1003300042EAC62141EA55514FEAC52040EA5E50E3
:100340004FEACE2EB4F1FD0C88BFBCF5E06F1ED88D
:10035000BEF1004F08BF5FEA500E50F1000041EBC4
:10036000045170BD06F0004646EA010140EA020071
:1003700081EA0301B4EB5C04C2BFD4EB0C0541EA93
:10038000045170BD41F480114FF0000E013C00F3A8
:10039000AB8014F1360FDEBF002001F0004170BDCC
:1003A000C4F10004203C35DA0C341BDC04F11404E5
:1003B000C4F1200500FA05F320FA04F001FA05F271
:1003C00040EA020001F0004221F0004110EBD3703E
:1003D00021FA04F642EB06015EEA430E08BF20EA6A
:1003E000D37070BDC4F10C04C4F1200500FA04F30D
:1003F00020FA05F001FA04F240EA020001F000419F
:1004000010EBD37041F100015EEA430E08BF20EA11
:10041000D37070BDC4F1200500FA05F24EEA020E59
:1004200020FA04F301FA05F243EA020321FA04F088
:1004300001F0004121FA04F220EA020000EBD3703F
:100440005EEA430E08BF20EAD37070BD94F0000F3F
:100450000FD101F00046400041EB010111F4801F73
:1004600008BF013CF7D041EA060195F0000F18BF24
:10047000704703F00046520043EB030313F4801F60
:1004800008BF013DF7D043EA0603704794EA0C0F1A
:100490000CEA135518BF95EA0C0F0CD050EA410630
:1004A00018BF52EA4306D1D181EA030101F00041AD
:1004B0004FF0000070BD50EA410606BF10461946D5
:1004C00052EA430619D094EA0C0F02D150EA0136E1
:1004D00013D195EA0C0F05D152EA03361CBF104622
:1004E00019460AD181EA030101F0004141F0FE41C1
:1004F00041F470014FF0000070BD41F0FE4141F445
:10050000780170BD81F0004102E000BF83F000433C
:1005100030B54FEA41044FEA430594EA050F08BF9E
:1005200090EA020F1FBF54EA000C55EA020C7FEA62
:10053000645C7FEA655C00F0E2804FEA5454D4EBDF
:100540005555B8BF6D420CDD2C4480EA020281EAA9
:10055000030382EA000083EA010180EA020281EAE1
:100560000303362D88BF30BD11F0004F4FEA013133
:100570004FF4801C4CEA113102D0404261EB410142
:1005800013F0004F4FEA03334CEA133302D05242C8
:1005900063EB430394EA050F00F0A780A4F1010484
:1005A000D5F1200E0DDB02FA0EFC22FA05F28018BE
:1005B00041F1000103FA0EF2801843FA05F35941A4
:1005C0000EE0A5F120050EF1200E012A03FA0EFC23
:1005D00028BF4CF0020C43FA05F3C01851EBE3714D
:1005E00001F0004507D54FF0000EDCF1000C7EEB6A
:1005F00000006EEB0101B1F5801F1BD3B1F5001FA8
:100600000CD349085FEA30004FEA3C0C04F10104C6
:100610004FEA445212F5800F80F09A80BCF1004FEF
:1006200008BF5FEA500C50F1000041EB045141EA71
:10063000050130BD5FEA4C0C404141EB0101013C3A
:1006400028BFB1F5801FE9D291F0000F04BF014629
:100650000020B1FA81F308BF2033A3F10B03B3F1FB
:1006600020020CDA0C3208DD02F1140CC2F10C028B
:1006700001FA0CF021FA02F10CE002F11402D8BFE9
:10068000C2F1200C01FA02F120FA0CFCDCBF41EAB5
:100690000C019040E41AA2BF01EB0451294330BD84
:1006A0006FEA04041F3C1CDA0C340EDC04F1140461
:1006B000C4F1200220FA04F001FA02F340EA030038
:1006C00021FA04F345EA030130BDC4F10C04C4F17E
:1006D000200220FA02F001FA04F340EA030029465E
:1006E00030BD21FA04F0294630BD94F0000F83F4A8
:1006F000801306BF81F480110134013D4EE77FEA8B
:10070000645C18BF7FEA655C29D094EA050F08BFD6
:1007100090EA020F05D054EA000C04BF19461046B7
:1007200030BD91EA030F1EBF0021002030BD5FEAFB
:10073000545C05D14000494128BF41F0004130BD23
:1007400014F580043CBF01F5801130BD01F0004577
:1007500045F0FE4141F470014FF0000030BD7FEAEA
:10076000645C1ABF194610467FEA655C1CBF0B46E5
:10077000024650EA013406BF52EA033591EA030FFC
:1007800041F4002130BD00BF90F0000F04BF0021F4
:10079000704730B54FF4806404F132044FF0000527
:1007A0004FF0000150E700BF90F0000F04BF0021A0
:1007B000704730B54FF4806404F1320410F0004506
:1007C00048BF40424FF000013EE700BF42004FEA01
:1007D000E2014FEA31014FEA02701FBF12F07F437E
:1007E00093F07F4F81F06051704732F07F4208BF35
:1007F000704793F07F4F04BF41F40021704730B53C
:100800004FF4607401F0004521F000411CE700BF87
:1008100050EA010208BF704730B54FF000050AE00A
:1008200050EA010208BF704730B511F0004502D50B
:10083000404261EB41014FF4806404F132045FEA0D
:10084000915C3FF4D8AE4FF003025FEADC0C18BFB6
:1008500003325FEADC0C18BF033202EBDC02C2F1A8
:10086000200300FA03FC20FA02F001FA03FE40EA3A
:100870000E0021FA02F11444BDE600BF4FF0FF3C28
:1008800006E000BF4FF0010C02E000BF4FF0010C8A
:100890004DF804CD4FEA410C7FEA6C5C4FEA430C03
:1008A00018BF7FEA6C5C1BD001B050EA410C0CBF52
:1008B00052EA430C91EA030F02BF90EA020F0020B4
:1008C000704710F1000F91EA030F58BF994208BF1B
:1008D00090422CBFD8176FEAE37040F001007047D8
:1008E0004FEA410C7FEA6C5C02D150EA013C07D12F
:1008F0004FEA430C7FEA6C5CD6D152EA033CD3D07A
:100900005DF8040B704700BF8446104662468C4673
:100910001946634600E000BF01B5FFF7B7FF0028A6
:1009200048BF10F1000F01BD4DF808EDFFF7F4FFCF
:100930000CBF012000205DF808FB00BF4DF808ED5A
:10094000FFF7EAFF34BF012000205DF808FB00BF7D
:100950004DF808EDFFF7E0FF94BF012000205DF89F
:1009600008FB00BF4DF808EDFFF7CEFF94BF012054
:1009700000205DF808FB00BF4DF808EDFFF7C4FF4D
:1009800034BF012000205DF808FB00BF4A0011D2EF
:1009900012F5001211D20DD56FF47873B3EB6252D9
:1009A0000ED44FEAC12343F0004343EA505323FAE5
:1009B00002F070474FF00000704750EA013002D15A
:1009C0004FF0FF3070474FF00000704753B94AB9FD
:1009D000002908BF00281CBF4FF0FF314FF0FF3047
:1009E00000F070B9ADF1080C6DE904CE00F006F826
:1009F000DDF804E0DDE9022304B070472DE9F0479B
:100A0000089E0D4604460F46002B4AD18A42944662
:100A100065D9B2FA82F343B102FA03FCC3F12002B2
:100A20009F4020FA02F217439C404FEA1C4E1FFAE7
:100A30008CF5B7FBFEF1220C0EFB117742EA074260
:100A400001FB05F090420AD91CEB020201F1FF37CD
:100A500080F01C81904240F2198102396244121ADE
:100A6000A4B2B2FBFEF00EFB102244EA024400FBEB
:100A700005F5A5420AD91CEB040400F1FF3280F011
:100A80000781A54240F204816444023840EA0140F3
:100A9000641B00211EB1DC400023C6E90043BDE811
:100AA000F0878B4208D9002E00F0ED800021C6E9C6
:100AB00000050846BDE8F087B3FA83F1002949D163
:100AC000AB4202D3824200F2F880841A65EB030243
:100AD00001201746002EE2D0C6E90047DFE702B941
:100AE000FFDEB2FA82F3002B40F090808A1A4FEAC0
:100AF0001C471FFA8CFE0121B2FBF7F507FB1520FE
:100B0000220C42EA00420EFB05F0904208D91CEB91
:100B1000020205F1FF3802D2904200F2CB80454636
:100B2000121AA4B2B2FBF7F007FB102244EA024407
:100B30000EFB00FEA64508D91CEB040400F1FF32B1
:100B400002D2A64500F2BB801046A4EB0E0440EA98
:100B500005409FE7C1F120078B4022FA07FC4CEAD1
:100B6000030C05FA01F420FA07F3FD404FEA1C4993
:100B70002343B5FBF9F81FFA8CFE09FB18551C0C32
:100B800044EA054408FB0EF5A54202FA01F200FA18
:100B900001F00BD91CEB040408F1FF3A80F08880C7
:100BA000A54240F28580A8F102086444641B9DB20E
:100BB000B4FBF9F309FB134445EA044403FB0EFEBE
:100BC000A64508D91CEB040403F1FF356CD2A645F9
:100BD0006AD9023B644443EA0843A3FB0295A4EBB1
:100BE0000E04AC42C846AE4656D353D056B1B0EB15
:100BF000080264EB0E0404FA07F7CA40CC4017431E
:100C0000C6E9007418460021BDE8F087C3F1200151
:100C100002FA03FC20FA01F225FA01F19D402A4371
:100C20004FEA1C471FFA8CFEB1FBF7F007FB1015CB
:100C3000110C41EA054100FB0EF58D4204FA03F464
:100C400008D91CEB010100F1FF382FD28D422DD9BC
:100C500002386144491B92B2B1FBF7F507FB15114D
:100C600042EA014205FB0EF1914208D91CEB020257
:100C700005F1FF3816D2914214D9023D6244521A4E
:100C800045EA004138E73146304608E73946E6E6AE
:100C90001046FBE64845A9D2B9EB020865EB0C0EFD
:100CA000013BA3E74546EAE72B4694E74046D1E7F8
:100CB000D0467BE7023D624432E708460AE76444D7
:100CC000023842E7704700BF10B594B010220021EF
:100CD00002240AA821F0F1FF1422002103A821F028
:100CE000ECFF1D4B192108A81A6C42F080521A64BF
:100CF0001B6C03F080530193019B184B1A6842F45C
:100D000040421A6001221B6803F440430293029B95
:100D10004FF48033CDE908234FF48003CDE90E432F
:100D20004FF4C873CDE91244CDE9101307F0E4FD88
:100D300007F08CFA0F2300200621CDE903344FF48D
:100D4000A053CDE905034FF4805303A8079307F0A0
:100D5000BBFF14B010BD00BF00380240007000405F
:100D600030B5002289B001212A480F242A4D06F00F
:100D700015FD00220221274806F010FD0122022164
:100D8000244806F00BFD4FF48041284606F000FD94
:100D900000222DF8140002211E4806F0FFFC013C41
:100DA000ECD201221B48114606F0F8FCBDF81C20CD
:100DB000BDF81A3003EB4203BDF8182002EB4302E2
:100DC000BDF8163003EB4203BDF8142002EB4302DA
:100DD000BDF8123003EB4203BDF8102002EB4302D2
:100DE000BDF80E3003EB4203BDF80C2002EB4302CA
:100DF000BDF80A3003EB4203BDF8082002EB4302C2
:100E0000BDF8063003EB420300EE103ABAEECF0A0B
:100E100009B030BD00200240000402400268034BCC
:100E20009A4201D106F0C2B8704700BF00100040DE
:100E300000232DE9F04F1A46674D2DED028B83B04C
:100E4000EA540133B3F57A6FFAD1644BB6EE007A07
:100E5000B3EE086A624C1869F0EE478AD3ED035A84
:100E600007EE900AF8EE676AF0EE467AE5EE877ACA
:100E7000F4EEE67AF1EE10FA5ED92288C0B2594952
:100E800092B25F694A800022BA4265DB2288B6EEE0
:100E9000007AD3F81C8017FA82F293ED066A07EE07
:100EA000908A92B2F8EE675A2280228892B28A80A3
:100EB000F0EE667AE6EE077AF4EEE57AF1EE10FAF5
:100EC00050D922885FFA88F6186A002392B2CA8045
:100ED000834265DB23880022B6EE008A10FA83F392
:100EE0009BB2238023889BB2EA5423880FF2E00B45
:100EF000DBE900AB9BB20B814046FFF745FC0646A1
:100F00000F4618EE100AFFF761FC52465B46FFF7EA
:100F1000CFF902460B4630463946FFF7F7FA002272
:100F2000314B06460F46FFF71DFD00283ED103B0AA
:100F3000BDEC028BBDE8F08FFCEEE77A218837EE3E
:100F4000287A89B2CDED017A9DF804206A5422886E
:100F5000013292B2228087E7268812FA86F60132A1
:100F6000A85591E7FCEEC77AB0EE665A37EE287ABC
:100F7000CDED017A9DF8042007EE902A2288F8EE44
:100F8000E77A92B2A7EE865AFCEEC57ACDED017AE9
:100F90009DF80400A8542288013292B2228087E78B
:100FA000228813FA82F20133AE5491E7B4F800902C
:100FB0003046394638EE288AFFF7E8FC1FFA89F9EF
:100FC000C0B205F80900238801339BB2238093E760
:100FD000CDCCCCCCCCCCFC3F76010020FC3F00201B
:100FE000040000206C0100200000384000000000D8
:100FF00000232DE9F04F1A46674D2DED028B83B08B
:10100000EA540133B3F57A6FFAD1644BB6EE007A45
:10101000B3EE086A624C986AF0EE478AD3ED095A3B
:1010200007EE900AF8EE676AF0EE467AE5EE877A08
:10103000F4EEE67AF1EE10FA5ED92288C0B2594990
:1010400092B2DF6A4A800022BA4265DB2288B6EE9D
:10105000007AD3F8348017FA82F293ED0C6A07EE27
:10106000908A92B2F8EE675A2280228892B28A80E1
:10107000F0EE667AE6EE077AF4EEE57AF1EE10FA33
:1010800050D922885FFA88F6986B002392B2CA8002
:10109000834265DB23880022B6EE008A10FA83F3D0
:1010A0009BB2238023889BB2EA5423880FF2E00B83
:1010B000DBE900AB9BB20B814046FFF765FB0646C0
:1010C0000F4618EE100AFFF781FB52465B46FFF70A
:1010D000EFF802460B4630463946FFF717FA002272
:1010E000314B06460F46FFF73DFC00283ED103B0CA
:1010F000BDEC028BBDE8F08FFCEEE77A218837EE7D
:10110000287A89B2CDED017A9DF804206A542288AC
:10111000013292B2228087E7268812FA86F60132DF
:10112000A85591E7FCEEC77AB0EE665A37EE287AFA
:10113000CDED017A9DF8042007EE902A2288F8EE82
:10114000E77A92B2A7EE865AFCEEC57ACDED017A27
:101150009DF80400A8542288013292B2228087E7C9
:10116000228813FA82F20133AE5491E7B4F800906A
:101170003046394638EE288AFFF708FC1FFA89F90D
:10118000C0B205F80900238801339BB2238093E79E
:10119000CDCCCCCCCCCCFC3F16110020FC3F0020A9
:1011A000060000206C010020000038400000000014
:1011B00000232DE9F04F1A46674D2DED028B83B0C9
:1011C000EA540133B3F57A6FFAD1644BB6EE007A84
:1011D000B3EE086A624C186CF0EE478AD3ED0F5AF2
:1011E00007EE900AF8EE676AF0EE467AE5EE877A47
:1011F000F4EEE67AF1EE10FA5ED92288C0B25949CF
:1012000092B25F6C4A800022BA4265DB2288B6EE59
:10121000007AD3F84C8017FA82F293ED126A07EE47
:10122000908A92B2F8EE675A2280228892B28A801F
:10123000F0EE667AE6EE077AF4EEE57AF1EE10FA71
:1012400050D922885FFA88F6186D002392B2CA80BE
:10125000834265DB23880022B6EE008A10FA83F30E
:101260009BB2238023889BB2EA5423880FF2E00BC1
:10127000DBE900AB9BB20B814046FFF785FA0646DF
:101280000F4618EE100AFFF7A1FA52465B46FFF729
:101290000FF802460B4630463946FFF737F9002271
:1012A000314B06460F46FFF75DFB00283ED103B0E9
:1012B000BDEC028BBDE8F08FFCEEE77A218837EEBB
:1012C000287A89B2CDED017A9DF804206A542288EB
:1012D000013292B2228087E7268812FA86F601321E
:1012E000A85591E7FCEEC77AB0EE665A37EE287A39
:1012F000CDED017A9DF8042007EE902A2288F8EEC1
:10130000E77A92B2A7EE865AFCEEC57ACDED017A65
:101310009DF80400A8542288013292B2228087E707
:10132000228813FA82F20133AE5491E7B4F80090A8
:101330003046394638EE288AFFF728FB1FFA89F92C
:10134000C0B205F80900238801339BB2238093E7DC
:10135000CDCCCCCCCCCCFC3FB6200020FC3F002038
:10136000080000206C010020000038400000000050
:1013700000232DE9F04F1A46674D2DED028B83B007
:10138000EA540133B3F57A6FFAD1644BB6EE007AC2
:10139000B3EE086A624C986DF0EE478AD3ED155AA9
:1013A00007EE900AF8EE676AF0EE467AE5EE877A85
:1013B000F4EEE67AF1EE10FA5ED92288C0B259490D
:1013C00092B2DF6D4A800022BA4265DB2288B6EE17
:1013D000007AD3F8648017FA82F293ED186A07EE68
:1013E000908A92B2F8EE675A2280228892B28A805E
:1013F000F0EE667AE6EE077AF4EEE57AF1EE10FAB0
:1014000050D922885FFA88F6986E002392B2CA807B
:10141000834265DB23880022B6EE008A10FA83F34C
:101420009BB2238023889BB2EA5423880FF2E00BFF
:10143000DBE900AB9BB20B814046FFF7A5F90646FE
:101440000F4618EE100AFFF7C1F952465B46FEF749
:101450002FFF02460B4630463946FFF757F8002269
:10146000314B06460F46FFF77DFA00283ED103B008
:10147000BDEC028BBDE8F08FFCEEE77A218837EEF9
:10148000287A89B2CDED017A9DF804206A54228829
:10149000013292B2228087E7268812FA86F601325C
:1014A000A85591E7FCEEC77AB0EE665A37EE287A77
:1014B000CDED017A9DF8042007EE902A2288F8EEFF
:1014C000E77A92B2A7EE865AFCEEC57ACDED017AA4
:1014D0009DF80400A8542288013292B2228087E746
:1014E000228813FA82F20133AE5491E7B4F80090E7
:1014F0003046394638EE288AFFF748FA1FFA89F94C
:10150000C0B205F80900238801339BB2238093E71A
:10151000CDCCCCCCCCCCFC3F56300020FC3F0020C6
:101520000A0000206C01002000003840BC4DEB6E2A
:10153000822B2DE98048A5B029D0E62429239620C6
:101540004FF07D51B74A6962E963A96469658221F8
:10155000EA60AA612A63A9652A66E966C5E90743C4
:101560006423C5E90A03C5E90D436B642B65EB658C
:10157000AB66A5236B66AC4BC5E904002B60AF20BE
:10158000AA4B2864F0206B60A94BE864AB60FFF7BE
:101590004FFC0126FFF72CFD0024FFF709FEFFF7A3
:1015A000E7FEA4482B68012183616B68C361AB68C7
:1015B000036221F03FF91022002117A821F07DFBE2
:1015C00005F07CFD4FF0104E9B4B17A8ADF85C600A
:1015D0001A94CDE918E305F08FFD172317A88DF8AD
:1015E0005D608DF864308DF86A6005F085FD04203B
:1015F00005F072FDBFF34F8FBFF36F8F8F4AC2F8B4
:101600005042BFF34F8FBFF36F8F536943F40033E2
:101610005361BFF34F8FBFF36F8FC2F88440BFF3A6
:101620004F8FD2F8803043F6E074C3F3C900C3F3A0
:101630004E335B0103EA0407014647EA817601392C
:10164000C2F86062F9D2203B13F1200FF2D1BFF350
:101650004F8F536943F480335361BFF34F8FBFF310
:101660006F8F05F091FC0024FFF72EFB1422002160
:1016700017A821F022FB724B082172481A6B012730
:10168000714E4FF0020942F010024FF0040ADFF8E9
:10169000D8B14FF010081A631A6B02F010020292D0
:1016A000029A1A6B42F001021A631A6B02F00102ED
:1016B0000392039A1A6B42F002021A631A6B02F049
:1016C00002020492049A1A6B42F040021A631A6BE7
:1016D00002F040020592059A1A6B42F400721A63F6
:1016E0001A6B02F400720692069A1A6B42F0080214
:1016F0001A631A6B02F008020792079A1A6B42F4F7
:1017000080621A631A6B02F480620892089A1A6B5C
:1017100042F020021A631A6B02F020020992099A21
:101720001A6B42F480721A631A6B02F480720A9286
:101730000A9A1A6B42F080021A631A6B02F0800256
:101740000B920B9A1A6B42F004021A6301221B6B74
:1017500003F004030C930C9B06F020F800220321F5
:101760003A4806F01BF801224FF48051374806F042
:1017700015F8082317A93348CDE91737CDE91944DF
:1017800005F084FE41F2030317A93048CDE917376D
:10179000CDE9194405F07AFE4FF4804317A92C488F
:1017A0001994CDE9173405F071FE2A482A4B84803C
:1017B00003600762C0E9054405F0CAFC274B3046C8
:1017C000C6E90A44C6E90C44C6E90034C6E9024445
:1017D00005F05BFD39463046214E05F00FFE214BEA
:1017E00040224FF400613046B460F461B462CDF839
:1017F0007490C6E900344FF4C073C6E905234FF472
:101800008053C6E90813072317A9CDE91793CDE93B
:1018100019A30323C6E903A8CDE91B3926E000BFBD
:10182000FC3F00209A99193F000070436666E6402D
:101830000000FA44480100201B00000300ED00E016
:10184000003802400028024094400020002002405E
:1018500000040240704000200030024000B002400E
:1018600018420020400100A03801002007F082FD4E
:1018700059464FF6FF7230460194CBE90274CBE92A
:10188000007807F097FD384605F0A2FB59464FF661
:10189000FF723046CBE90274CBE9009807F08AFD6D
:1018A000032359464FF6FF723046CBE90038082330
:1018B000CBE9023407F07EFD4FF40C734FF6FF7254
:1018C000594601933046019BCBF80870CBF80C3099
:1018D000CBE900A807F06EFD40F22B713046BF4EF9
:1018E00007F087FD43F2D2024FF02043BC4840F29C
:1018F000152B1A60BB4B3462C6E900033046C6E9BB
:101900000247C6E90444C6E9064406F0DEF821466B
:10191000304606F0B7FA21463046B34E06F0D8FA04
:101920002146342217A821F0C8F9B04B4FF0280CFB
:101930004FF0350E40F23522B4863046346186F8D9
:101940003640C6E900340923C6E905C30B23C6E9BE
:1019500007E340F21B13C6E909B340F21D13C6E9C1
:101960000244C6E90B2306F05BFBFF214FF48060C5
:101970004FF4F0724FF488731794ADF88C402293B3
:101980008DF88E40CDE91C140521CDE91E014FF0E4
:10199000404130461826CDE91824CDE920122246D0
:1019A00017A9CDE91A3906F006FC9148914B04625B
:1019B000C0E900374FF4A0638F4FC0E90463C0E96A
:1019C0000644C0E902A806F05BFD8C4E05F05AF90A
:1019D00005F09EF85C2005F05FFB21461C2210A854
:1019E0000F94CDE90D4421F068F92C22214617A867
:1019F00021F063F94FF4FA433046B460C6E900734E
:101A00004FF47A737E4FC6E90334C6E9054407F004
:101A100075FF0DA930460F94CDE90D4408F094F9F7
:101A20007023224610A930461694CDE91034CDE932
:101A30001244CDE9144407F0C9FF4FF4005317A92D
:101A400030461B941E942194CDE91C344FF0007352
:101A5000CDE91744CDE91F34CDE9194408F0C0F9A8
:101A6000304600F051FB4246214617A821F025F9E7
:101A7000DFF8CCC14FF47A433846BC60BC611294A5
:101A8000C7E900C34FF4FA73CDE91044C7E9033442
:101A900007F004FF4FF4805317A93846179308F056
:101AA0001DF810A938461094129408F04DF900F072
:101AB0009AFC21463046534C08F044F9524F3368A3
:101AC0000A225A6300F091FCFFF74AF94FF4FA70CA
:101AD00084ED000A05F07CFA4C4B39881A8889B2EB
:101AE00092B2914202D14A4A0121116079881A8842
:101AF00089B292B2914202D1454A02211160B9885D
:101B00001A8889B292B2914202D1414A03211160EE
:101B1000F9881A8889B292B2914202D13C4A0421D2
:101B2000116039891A8889B292B2914202D1384A39
:101B300005211160374A1178012905D119883648E5
:101B400089B2405C354908701178022905D119889D
:101B5000334889B2405C314908701178032905D1B6
:101B60001988304889B2405C2C4908701278042AE0
:101B700005D11A882C4992B2895C284A11702B48E9
:101B8000D6F800C002782A49012ADFED2A6A40F01F
:101B90008E80224A4FF0000ED4ED007A127807EEC4
:101BA000102A254AB8EEC77A37EE677A82ED007AB6
:101BB000224A92ED036AD2ED017AD2ED005A66EE26
:101BC000277A92ED025A82ED037AE7EE257AD2ED7A
:101BD000045A82ED046AE5EE257A33E0D84000200D
:101BE000005C0040FFEAC000244100200068014082
:101BF000CC410020001000A0000001404C42002019
:101C000098420020D44000206C010020F83F0020C2
:101C1000EC420020F042002076010020E842002043
:101C200016110020B620002056300020F63F00207C
:101C30006C40002000007A44E4420020480100206B
:101C400000080040D2ED055A77EEA57AF4EEE67A68
:101C5000C2ED057AC1ED007AF1EE10FA04DDC1EDB6
:101C6000006AC2F81CE006E0F5EEC07AF1EE10FA68
:101C70001AD5C1F800E0D1ED007AFCEEE77A17EE54
:101C8000902A92B2C2F57A72CCF834201A880132C6
:101C900092B21A803A891B8892B29BB29A427FF420
:101CA00011AF002303700DE7D5F804E0D9E7002257
:101CB000C1ED006A1A804FF47A73CCF8343001E732
:101CC000704700000A4B82B01A6C42F080521A64CE
:101CD0001A6C02F080520092009A5A6C42F48042D0
:101CE0005A645B6C03F480430193019B02B070471C
:101CF00000380240026882B0084B9A420BD1D3F8F8
:101D0000302803F5006342F480521A631B6B03F41E
:101D100080530193019B02B0704700BF0030024026
:101D20000E4B07B502689A4215D1A3F5F043052181
:101D30005A201A6B42F400021A6300221B6B03F450
:101D400000030193019B05F067F95A2003B05DF889
:101D500004EB05F093B903B05DF804FB00B002405A
:101D600010B5A8B004461422002102A820F0A5FF57
:101D70008422002107A820F0A0FF2268174B9A4276
:101D80002AD14FF4803307A8079307F069F808B108
:101D9000FFF796FF124C4FF4C07201211148236BDC
:101DA00043F080032363236B03F080030093009BC5
:101DB0001223CDE902230323CDE90413042302A94E
:101DC000069305F063FB236C43F400032364236C48
:101DD00003F400030193019B28B010BD005C004098
:101DE00000380240001C0240026808B5094B9A42C4
:101DF0000FD1094A80210948136C23F400031364AE
:101E000005F026FC4FF480710448BDE8084005F059
:101E10001FBC08BD005C004000380240001C0240AE
:101E200070B5ACB004461422002106A820F045FF8E
:101E3000842200210BA820F040FF2268484B9A42E0
:101E400040F08C800823052001240B934FF4C073CD
:101E500010930223CDE911304FF400330BA8CDE9E4
:101E6000154306F0FDFF08B1FFF72AFF3D4B0024A4
:101E700002250E265A6C06A93B4842F080625A643D
:101E80005A6C02F080620092009A1A6B42F01002C3
:101E90001A631A6B02F010020192019A1A6B42F453
:101EA00000721A631A6B02F400720292029A1A6BA1
:101EB00042F480621A631A6B02F480620392039AFE
:101EC0001A6B42F040021A631A6B02F0400204924D
:101ED000049A1A6B42F480721A631B6B03F48073CA
:101EE0000593059B1023CDE90635CDE908440A96F4
:101EF00005F0CCFA4EF6FF7306A91C480A96CDE908
:101F00000635CDE9084405F0C1FAF72306A91848BB
:101F10000A96CDE90635CDE9084405F0B7FA4FF445
:101F2000805306A91348CDE906350923CDE90844B5
:101F30000A9305F0ABFA4FF4464306A90E480A96F9
:101F4000CDE90635CDE9084405F0A0FA582022462F
:101F5000052105F061F8582005F090F82CB070BD0F
:101F60000068014000380240001002400024024096
:101F700000280240001802400020024014220021E4
:101F80002DE9F0418AB004460DEB020020F095FEE9
:101F900022682C4B9A4251D12B4B0225032409264F
:101FA0009A6B4FF0040805A9284842F00202002766
:101FB0009A639A6B02F002020192019A1A6B42F044
:101FC00010021A631A6B02F010020292029A1A6B44
:101FD00042F002021A631A6B02F002020392039AA1
:101FE0001A6B42F008021A631B6B03F00803049398
:101FF000049BCDE90585CDE9084605F047FA402365
:1020000005A91348CDE905350A23CDE907740993DD
:1020100005F03CFA05A90E480996CDE90585CDE9FC
:10202000077405F033FA4FF4605305A9094809967F
:10203000CDE90535CDE9077405F028FA0AB0BDE809
:10204000F08100BF001000A00038024000100240E4
:1020500000040240000C0240026808B50B4B9A4293
:1020600013D10B4A04210B48936B23F002039363B3
:1020700005F0EEFA4421084805F0EAFA4FF4605101
:102080000648BDE8084005F0E3BA08BD001000A00E
:10209000003802400010024000040240000C0240E0
:1020A000026882B0074B9A420AD103F59C335A6CFE
:1020B00042F001025A645B6C03F001030193019B3F
:1020C00002B07047000001400E4B07B502689A420B
:1020D00015D103F50C331E201A6C42F004021A6469
:1020E00000221B6C114603F004030193019B04F0D2
:1020F00093FF1E2003B05DF804EB04F0BFBF03B0F4
:102100005DF804FB0008004010B586B004461422B8
:10211000002101A820F0D1FD22680D4B9A4215D173
:1021200003F59C3301A90B481A6B42F001021A63B4
:102130004FF480721B6B03F001030093009B02239A
:10214000CDE901230123059305F0A0F906B010BDE8
:102150000000014000000240F0B5002387B0039367
:10216000294B1E68002E4DD10122022703250C2485
:102170001A6001A9254B26489A6B42F001029A6326
:102180009B6B03F001030093009B4FF68373CDE933
:102190000454CDE9013705F079F948F2331301A968
:1021A0001C480594CDE90137CDE9036505F06EF9CA
:1021B0004CF2037301A918480594CDE90137CDE924
:1021C000036505F063F94FF63F0301A91348059431
:1021D000CDE90137CDE9036505F058F9282301A9B8
:1021E0000F480594CDE90137CDE9036505F04EF9B7
:1021F000082301A90B480594CDE90137CDE9036512
:1022000005F044F907B0F0BDF44200200038024068
:102210000010024000180240000C0240001402406E
:10222000001C02400008024010B5014688B00022A0
:10223000362004F0F1FE362004F020FF144B01A9F3
:1022400003A81A6C134C42F010021A641B6C03F0C2
:1022500010030293029B06F0E5FD06F0D3FD0E4B42
:102260004000236040F2E733E3600C4BB0FBF3F037
:1022700001380023606020462361A36007F00EFB55
:1022800020B9204607F0B2F908B010BD0120FBE7E5
:1022900000380240F84200200010004040420F0089
:1022A0007047FEE7FEE7FEE7FEE7704770477047BE
:1022B00070470000014807F0DBB900BF98420020DA
:1022C000014807F0D5B900BFF8420020014805F0E9
:1022D00015BF00BF24410020014805F004B800BF2D
:1022E000944000200120704708B520F089FD162396
:1022F00003604FF0FF3008BD08B520F081FD1623C4
:102300000360FEE770B50D4614460E46731B9C42F3
:1023100001DC204670BDAFF3008006F8010BF5E745
:1023200070B50D4614460E46731B9C4201DC2046D8
:1023300070BD16F8010BAFF30080F5E74FF0FF30EA
:1023400070474FF4005300204B60704701207047E6
:10235000002070470B4A0346116810B509B90A49B5
:102360001160106809490A4C0344091B8B4206D9C5
:1023700020F046FD0C2303604FF0FF3010BD1360CA
:10238000FCE700BF444300203091022000000520FC
:10239000000A0000DFF834D0002103E00C4B5B584A
:1023A000435004310B480C4B42189A42F6D30B4A67
:1023B00002E0002342F8043B094B9A42F9D304F0AF
:1023C000F9FC20F023FDFFF7B1F87047000005206D
:1023D000FC980208000000201C0100201C010020C5
:1023E00030910220FEE700F025BC00F097BC406869
:1023F00070474160704700004FF0E022D2F8FC3D8A
:1024000043F08073C2F8FC3D054B064AD3F8B01F79
:102410000A43C3F8B02F1A6842F001021A607047ED
:10242000001000E055CEACC5511A01EB5301B1FBD1
:10243000F3F07047014B5868704700BF001000E090
:10244000704710B504460C2120F015FA204610BD47
:10245000036810B51B69044631B19847A2686368E8
:102460009B1A1844606010BD9847A060FBE700000D
:10247000024B7020024A1360DB68184714000020EA
:1024800048430020704710B50446042120F0F3F9BA
:10249000204610BD37B50A4D0C462B6813B90020F5
:1024A00003B030BD1B697020019298470199002844
:1024B000F5D02B68702022465B6998470120EFE732
:1024C000484300207FB501238DF817204FF47A721E
:1024D000CDE901320DF1170200920A460146054886
:1024E00005F05DFB10B1034805F040FB07B05DF857
:1024F00004FB00BFD84000207FB500230A464FF4FC
:102500007A718DF817300123CDE901310DF11701F2
:1025100000910146054805F0F9FB10B1034805F0AC
:1025200025FB9DF8170007B05DF804FBD84000209C
:10253000704770477047012380F8741080F8753039
:10254000704700207047000041640039024B18BFFB
:1025500001211970704700BF2F8D022000207047A5
:10256000836B0BB10846184770474FF6FF707047F2
:10257000406803689B6918477047000038B50446F7
:1025800000F0A4FC23682046D3F88850074BD4E918
:102590000F12A8470023064D84F84A302846FFF75B
:1025A0002BFF0123256184F86C3038BD000000C08A
:1025B0004C43002000F072BC00F076BC70B500F017
:1025C000B9FC10490023C1F88430BFF34F8FD1F814
:1025D000803043F6E074C3F3C900C3F34E335B01AC
:1025E00003EA0406024646EA8275013AC1F87452CB
:1025F000F9D2203B13F1200FF2D1BFF34F8FBFF37D
:102600006F8F70BD00ED00E000F0A2BC00F022BCB6
:1026100000F0A0BC00F0A8BC00F026BC10B5044639
:1026200008F088FE23682046D3F8AC30BDE810409F
:10263000184707F0FDBF10B504467C2120F01BF9B8
:10264000204610BD90F877301BB1406803681B68C6
:10265000184718467047000090F834100D4B10B51D
:1026600090F874401A788C4209D03AB90A490B4A5A
:1026700008881488108001220C801A7010BD002A6E
:10268000FCD0064A0449148808880C801080002277
:10269000F3E700BF288D0220268D0220248D022022
:1026A00070B50D46194635B9094B40F2BB21094AB0
:1026B000094820F00FF9C0E90F52003A074B18BF44
:1026C00001221A700368BDE87040D3F88C301847B7
:1026D00098390208D03902081E3A02082E8D0220CD
:1026E00008B5094B1B888B4203D8084B1B889342C3
:1026F00005D9074B9E21074A074820F0EBF8074B06
:102700001980074B1A8008BD248D0220268D0220D7
:10271000633A0208C63A02081E3A02082A8D0220CD
:102720002C8D0220034B00225A609A60024A1A60E4
:10273000704700BF4C430020603902080023024A62
:102740001360024A13607047584300205C43002026
:10275000034B1A68002AFCD101221A60704700BF9F
:1027600058430020014B00221A6070475843002054
:10277000014B01221A60704758430020014B002290
:102780001A60704758430020014B01221A607047BD
:102790005C430020014B00221A6070475C4300201C
:1027A000024B1868003818BF012070475C430020B6
:1027B000054B1A6832B100221A60044B186803688E
:1027C0001B6F1847704700BF5C430020308D02200C
:1027D00003685B6C18470120704703689B6A1847C1
:1027E0000D4B82B01A6B42F400021A631A6B02F4AA
:1027F00000020192019A1A6942F400021A611A69F0
:1028000022F400021A61054B054A1A614FF08062FA
:10281000044B9A6002B07047003802409440002098
:102820006928000800E100E040F2EF307047000046
:10283000054B4FF080620360044BC3F88820BFF360
:102840004F8FBFF36F8F7047643D020800E100E0D7
:1028500010B504464FF45A61FFF7EAFF204620F016
:102860000AF8204610BD0000024B1B685868036838
:102870005B691847308D022070B504460A4B0C3056
:1028800000262546602260602672667245F8203B6D
:10289000294608F0B7FE04F55A63EE602435AB42D2
:1028A000FBD1204670BD00BF643D020808B50B296E
:1028B0000BD8DFE801F01206100A0A0A0A08080815
:1028C0000808012008BD0520FCE7054B6621054AE4
:1028D00005481FF0FFFF0020F4E70220F2E700BFE9
:1028E000E43B0208FF3B0208493C020808B50A29FC
:1028F00009D8DFE801F010060E08080808060606E9
:102900000600012008BD054B8721054A05481FF038
:10291000E1FF0020F6E70220F4E700BFE43B0208F5
:10292000B83C0208493C02082DE9F84391F81D80A3
:102930000C4607464146FFF7B9FF94F81E9005463E
:1029400038464946FFF7B2FF494606463846FFF784
:10295000CDFFA18A628B434B521A1A649A61228B73
:10296000521A1A61E28A586342EA014220695A64A3
:102970006268D863DA602768802F28D0227F0FD85A
:10298000202F65D0402F63D0042F1AD045EA02656E
:10299000344BC84545F40035DD615FD0324A44E030
:1029A000B7F5807F04D0B7F5007FEFD12F4900E065
:1029B0002F4941EA0262DA61E2681A625E62586196
:1029C00032E045EA026242F40032DA61F6E7A768D3
:1029D0003A1DDA62217F3A7845EA016545F400350F
:1029E000DD615E62586142B1012A21D0214B40F283
:1029F0001111214A21481FF06DFFDA69798822F40C
:102A00007F42013922F0100242EA01220121DA61FB
:102A1000144BDA6942F02002DA61DA699206FCD4DA
:102A200010229A600029B9D0154A1A60BDE8F883CF
:102A3000DA69FF39788822F47F4218BF0121013812
:102A400022F0100242EA002242F01002DA61DFE7CF
:102A500045EA0262034B42F40032B6E740F201223B
:102A6000E3E700BF00B002400102010009000200DC
:102A70000A000200033D02081D3D0208493C02080D
:102A80000102020038B50C46897FFFF72FFF174B74
:102A9000A58AE28A586342EA054221695A64628B38
:102AA000D963521B1A642568082D0ED19A611A61E8
:102AB00058620F4A207F42EA0062DA61E2681A62D5
:102AC0000C4A5961D9601A6038BD0022D8611A6178
:102AD000E1680A0A4809C1F3C40102F4784200F42B
:102AE000FC6002430A439A63034AECE700B00240E9
:102AF00009000100010202000102030001207047E9
:102B00000C2070470C2303FB0100083070470C2396
:102B100003FB0100083070470120704700487047F0
:102B200090370200024B03FB01000830704700BFE2
:102B300090370200024B03FB01000830704700BFD2
:102B400090370200012070471020704700EB011001
:102B50000830704700EB011008307047084600F05D
:102B60004BBB0000034B10B50446036007F08AFA24
:102B7000204610BD1C3E020810B50446FFF7F2FFC8
:102B8000142120461FF077FE204610BD034B10B5E0
:102B90000446036007F076FA204610BDE83D0208BF
:102BA00010B50446FFF7F2FF024920461FF063FE0E
:102BB000204610BD98370200034B10B50446036051
:102BC00007F060FA204610BDB43D020810B5044677
:102BD000FFF7F2FF182120461FF04DFE204610BDE2
:102BE000094B10B50446036000F50D3000F5717017
:102BF000FFF7B8FF04F12C00FFF7C8FF04F1140041
:102C0000FFF7DAFF204610BD503E020808B5024823
:102C1000FFF7E6FF08BD00BF6443002010B504467F
:102C2000FFF7DEFF024920461FF025FE204610BDBB
:102C3000343902002DE9F34100F010FA0024054672
:102C400000F010FA2346014622462846009411F06F
:102C5000C5FF264B264A2046264D1A6003F054FC39
:102C6000254811F007FF2B68BFF35B8FDB0736D4D5
:102C700028461FF002FE90B3204C214F214B04F157
:102C8000140007F1180604F12C0823606060C4F8F2
:102C90000880E760266107F0F7F91B4B4046636147
:102CA00007F0F2F9194B3846E36207F0EDF904F545
:102CB0000C33174A03F5FB60C3F8C42703F0B0FCDC
:102CC000224607F11401304603F0A0FC304600F024
:102CD00093FA10481FF01CFE28461FF0DAFD0E483C
:102CE00002B0BDE8F041FFF749BC00BFAC8D022047
:102CF000B88A0220604300200C00002064430020BA
:102D0000287B0220503E0208B43D0208E83D02083C
:102D10001C3E02080D2C00083C8A022008B5FFF773
:102D20003FFD38B1044808F005FB0348BDE8084002
:102D300007F0F4BC08BD00BF3C8A022070B5234EEA
:102D4000234B244C3046244D2360FFF795FD284645
:102D500015F0F2F8214B00224FF4807120481A86BA
:102D60001A6683F86C201A67DC60C3E912121D49E9
:102D7000C3E919124FF080715967012183F8781067
:102D800019490B604FF4F0710180184801804FF42D
:102D900088711748C3E90422C3E90622C3E908225F
:102DA000C3E90A22C3E90E22C3E91022C3E91422AF
:102DB000C3E91622C3E9016501800E4883F8342077
:102DC00001800D490A700D4A1A6070BD9C7C02207A
:102DD00088390208987C0220BC8A02203C8A0220A2
:102DE000248D022001000001308D02202A8D022056
:102DF000268D02202C8D0220288D0220143B0208F3
:102E00000148FFF715BD00BF9C7C0220104900233C
:102E100070B5C1F88430BFF34F8FD1F8803043F6DE
:102E2000E074C3F3C900C3F34E335B0103EA040645
:102E3000024646EA8275013AC1F87452F9D2203B43
:102E400013F1200FF2D1BFF34F8FBFF36F8F70BD1F
:102E500000ED00E0034B902283F85A2383F85823B7
:102E6000704700BF00E100E0094A0A49D3680A48F8
:102E7000C3F30A03013B9BB20B801169C1F30A0142
:102E8000013901801364536B43F0010353637047AE
:102E900000680140388B0220368B0220014BD3F8AA
:102EA000AC00704700680140024B0122C3F8AC102F
:102EB0005A62704700680140034B5B69DB0301D530
:102EC000FFF7A4BF704700BF00ED00E070B50446F7
:102ED00007F003FC23685D6E0DF06CFF0146204691
:102EE000A84723682046D3F88030984723682046B7
:102EF0009B6F98472368054A2046D3F888500023E3
:102F0000A2F57F31AC46BDE87040604700F807C0CD
:102F100007F0CABB08B590F84B3013B1044B01223F
:102F20001A7007F0CDFBBDE80840FFF733BC00BFC7
:102F3000348B022008B507F081FB044B5B69DB038F
:102F400003D5BDE80840FFF761BF08BD00ED00E014
:102F500007F0DDBC034B4FF080629A604FF0807247
:102F60009A60704700E100E0084B4FF08062C3F8C0
:102F70008820BFF34F8FBFF36F8F4FF08072C3F87D
:102F80008820BFF34F8FBFF36F8F704700E100E0E1
:102F900010B5144C236823B3134B144A1B6C1188CF
:102FA0008B4213D1124B198805F032F9226892F83E
:102FB0006630013382F86630FFF7E6FB206808F0E0
:102FC000B9F90020BDE81040FFF7B2BA05F020F9CA
:102FD000206803681B6A98470020BDE81040FFF78F
:102FE000A8BA10BD308D022000680140388B022045
:102FF000368B0220704708B5082926D8DFE801F093
:1030000005090D111519211D210003F0C9FA0068E9
:1030100008BD03F0C5FA4068FAE703F0C1FA80681A
:10302000F6E703F0BDFAC068F2E703F0B9FA006909
:10303000EEE703F0B5FA4069EAE703F0B1FAC069D8
:10304000E6E703F0ADFA8069E2E70020E0E710B5BB
:10305000044604211FF00FFC204610BD00487047B5
:10306000703E02080520704713B5002451B1036873
:1030700001AA01948DF803409C680DF10303A04759
:1030800002B010BD0846FBE7408970478089704751
:103090008088704783798288981880B27047C07999
:1030A00000F07F007047C079C0097047704710B5C5
:1030B000044608211FF0DFFB204610BD7047704713
:1030C00000F596730868496803C3704770477047F6
:1030D0004160704770470000064BC0F84401C0F8DB
:1030E00048310023C0F84C3100F5A073C0F83C31E2
:1030F000704700BFFD34000801230372704770471A
:10310000704710B441680346C2689B68541001EBD5
:103110006200D20748BF0A595DF8044B48BFD35834
:10312000184743682BB183682BB9C06800F00100D1
:103130007047184670470120704710B504460C21AF
:103140001FF099FB204610BD10B5044610211FF05A
:1031500092FB204610BD10B504464FF4AC711FF031
:103160008AFB204610BD08B50DF024FEBDE80840DE
:103170000EF0FEB910B50446D0F83C0158B1036812
:10318000DB68984738B1D4F83C0103689B689847DE
:103190000023C4F83C3110BDF8B5044617460E466E
:1031A0000DF040FE104B00251C6029460F4BC4E972
:1031B00054760F4E236030680E4BC4E95255C4E973
:1031C00050350368C4E94E559B689847284603F07C
:1031D0009BF9336893F876200AB1D86C00B99868E7
:1031E00016F0F5FC2046F8BD9C8D02206C440208C8
:1031F000308D022054440208064BC0F84401C0F848
:1032000048310023C0F84C3100F5A073C0F83C31C0
:10321000704700BFFD340008064BC0F84401C0F8F9
:1032200048310023C0F84C3100F5A073C0F83C31A0
:10323000704700BFAD330008064BC0F84401C0F82A
:1032400048310023C0F84C3100F5A073C0F83C3180
:10325000704700BF6132000803685B6A18470000CE
:103260002DE9F14FD0E9545A0746A86803681B6A54
:103270009847B0F5257F05D2444BA321444A4548E1
:103280001FF028FB686803681B6A98470F2803D85B
:10329000414BA4213E4AF2E7E86803681B6A98475D
:1032A0000B2803D83D4BA521394AE8E7DFF8F49015
:1032B0000DF080FD0DF09AFDD9F8000010B1036803
:1032C000DB689847D9F8000010B103681B6898477D
:1032D000DFF8D480D8F8000010B103685B69984724
:1032E000D7F8380110B103685B689847D8F8000038
:1032F00010B103681B689847D7F8380110B103680C
:103300009B6898470021E868FFF7A6FF4FF0000B85
:10331000234B0446C0F804B05946036080F808B057
:10332000A86803685B6A9847064603F0A5F96868D1
:10333000594603685B6A98470546314603F082F9AF
:10334000C9F80040C7F83851C8F80060E5B12B1D36
:10335000CAF8003030463368C5F808A0DB68F5636A
:1033600098472B6828461B689847214630460FF03F
:10337000C1F9236820461B699847236820465B698A
:1033800001B0BDE8F04F18472B46E1E7E43E0208E4
:10339000723F02088E400208D540020878410208B8
:1033A000B8440208908D02208C8D02202DE9F14F47
:1033B000D0E9545A0746A86803681B6A9847464BE9
:1033C000984205D8454BA321454A46481FF082FA4A
:1033D000686803681B6A98470F2803D8424BA421EA
:1033E0003F4AF2E7E86803681B6A98470B2803D84E
:1033F0003E4BA5213A4AE8E7DFF8F8900DF0DAFCF9
:103400000DF0F4FCD9F8000010B10368DB689847B0
:10341000D9F8000010B103681B689847DFF8D8801E
:10342000D8F8000010B103685B699847D7F83801F5
:1034300010B103685B689847D8F8000010B10368C2
:103440001B689847D7F8380110B103689B68984704
:103450000021E868FFF700FF4FF0000B244B044603
:10346000C0F804B05946036080F808B0A868036843
:103470005B6A9847064603F0CBFA686859460368CA
:103480005B6A98470546314603F040F9C9F80040A9
:10349000C7F83851C8F80060E5B12B1DCAF80030F4
:1034A00030463368C5F808A0DB68F56398472B6899
:1034B00028461B689847214630460FF01BF92368C1
:1034C00020461B699847236820465B6901B0BDE828
:1034D000F04F18472B46E1E78F370200E43E020821
:1034E0001B4202088E400208D540020878410208BB
:1034F000B8440208908D02208C8D02202DE9F14FF6
:10350000D0E9545A0746A86803681B6A9847B0F583
:10351000EE5F05D2444BA321444A45481FF0DAF937
:10352000686803681B6A98470F2803D8414BA42199
:103530003E4AF2E7E86803681B6A98470B2803D8FD
:103540003D4BA521394AE8E7DFF8F4900DF032FC55
:103550000DF04CFCD9F8000010B10368DB68984707
:10356000D9F8000010B103681B689847DFF8D480D1
:10357000D8F8000010B103685B699847D7F83801A4
:1035800010B103685B689847D8F8000010B1036871
:103590001B689847D7F8380110B103689B689847B3
:1035A0000021E868FFF758FE4FF0000B234B04465C
:1035B000C0F804B05946036080F808B0A8680368F2
:1035C0005B6A9847064603F089F8686859460368BD
:1035D0005B6A98470546314603F066F8C9F8004033
:1035E000C7F83851C8F80060E5B12B1DCAF80030A3
:1035F00030463368C5F808A0DB68F56398472B6848
:1036000028461B689847214630460FF073F8236818
:1036100020461B699847236820465B6901B0BDE8D6
:10362000F04F18472B46E1E7E43E02082D4302081D
:103630008E400208D540020878410208B8440208CA
:10364000908D02208C8D0220006A7047406A70477E
:1036500070478B888069DB0A0A6850F823001044A1
:10366000704710B5C2B1137BB3B1547BD27A240238
:1036700004F4E0641443C26998B202EB8402138834
:103680008B4202D192F9020010BD05D801380432F4
:1036900080B20028F3D1F7E70020F5E710B5044623
:1036A00028211FF0E8F8204610BD000030B589B091
:1036B0000446BDF850500695BDF84C5005959DF850
:1036C000405004959DF83C5003959DF83850029564
:1036D0009DF8345001959DF8305000950EF098FB00
:1036E000064B20462360119BA361129BE361159B4F
:1036F0002362169B636209B030BD00BFDC44020840
:103700000020704781807047C180704701817047F9
:10371000418170477047704770477047704710B4D9
:10372000C4880368121B84885B6D091B12B25DF8A4
:10373000044B09B218474FF6FF7383814FF0FF33F4
:1037400003621368C3611060704770477047704729
:103750007047704790F825201AB190F8242002B1E4
:103760001860704770477047704730B4446803462C
:10377000C2689B68551004EB6200D20748BF6259CB
:1037800030BC48BFD358184743682BB183682BB966
:10379000C06800F00100704718467047012070476C
:1037A00010B5044610211FF066F8204610BD10B574
:1037B00004464FF425711FF05EF8204610BD90F8C6
:1037C000252012B103685B6918477047983088421A
:1037D00008B505D10DF0EEFABDE80840FFF71CBDB5
:1037E00008BD036870B504461B6B154698472368EF
:1037F000204629465B6BBDE87040184770B504460B
:103800001D46BDF91060FFF7ECFF236829462046EE
:103810009B6B9847236831462046DB6BBDE87040C0
:1038200018470000094A4FF4807102600022818429
:10383000FF21826280F82610C0E90122C0E903223C
:10384000C0E90522C0E90722704700BF5C79020881
:103850004FF48071002281840C49026301600C499D
:10386000028781624FF6FF71C26381854FF47F0149
:1038700041634FF0FF31C0E90122C0E90322C0E9F2
:103880000522C0E90722C0E9101270479C7802089F
:10389000DC3E02082DE9F04F044600264FF48875FF
:1038A00004F1D40B04F58E7A04F5B27904F5D678D8
:1038B0002DED068B8DB00EF071FD2246AF4B0AAF99
:1038C000E66342F8403B104608EE102AFFF7AAFFD5
:1038D00004F16C0318460AEE103AFFF7A3FF04F157
:1038E0009803184609EE903A0BF07CF85846FFF71B
:1038F000AFFF5046FFF7ACFF4846FFF7A9FF404631
:10390000FFF7A6FF04F5FA73184608EE903AFFF7A2
:103910009FFF04F50F73184609EE103AFFF798FF62
:10392000974B3246314618EE100A0095C4E9A1348F
:10393000944BC4E9A3364FF4F073FFF75FFF4FF0E9
:103940007F43324631461AEE100AA36600954FF4C3
:10395000F073FFF753FF4FF0FF3319EE900ACA22BE
:10396000C4F894301121FFF73CFF012308AA07A9EE
:1039700019EE900AADF82430ADF8283009AB009765
:1039800002ADADF81C60ADF820600AF078FF7E4B08
:103990000B2258469C21C4F8D03004F52173C4F89A
:1039A000C03022230093A923FFF728FF774B594605
:1039B0002846C4F80431A4F808610AF019FA04F59D
:1039C000887395E8070083E80700714B394658462D
:1039D0000A931623ADF82C300AF04EFD50463C22D7
:1039E0001A21FFF7FEFE4FF07F4251462846C4F8E9
:1039F0004C21A4F850610AF0FBF904F5AC7395E88A
:103A0000070083E80700624B394650460A930823B3
:103A1000ADF82C300AF030FD48465E221A21FFF73F
:103A2000E0FE4FF07F4249462846C4F89421A4F8AE
:103A300098610AF0DDF904F5D07395E8070083E892
:103A40000700534B394648460A930723ADF82C30FC
:103A50000AF012FD40467E221A21FFF7C2FE4FF007
:103A60007F4241462846C4F8DC21A4F8E0610AF010
:103A7000BFF904F5F47395E8070083E80700444BA9
:103A8000394640460A930623ADF82C300AF0F4FC80
:103A900018EE900A9F221A21FFF7A3FE4FF07F42F3
:103AA00018EE901A2846C4F82422A4F828620AF0D6
:103AB0009FF904F50C7395E8070083E80700344B81
:103AC000394618EE900A0A930523ADF82C300AF017
:103AD000D3FC0F2319EE100AF72240F227110093AE
:103AE000AF23FFF78BFE4FF07F4219EE101A2846E6
:103AF000C4F86C22A4F870620AF07AF904F51E7317
:103B000095E8070083E80700214B251D394619EE8B
:103B1000100A0A930423ADF82C300AF0ADFC18EE1D
:103B2000101A284606F032FB1AEE101A284606F044
:103B30002DFB19EE901A284606F028FB5946284618
:103B400006F024FB5146284606F020FB494628464D
:103B500006F01CFB4146284606F018FB18EE901AAA
:103B6000284606F013FB284619EE101A06F00EFB45
:103B700020460DB0BDEC068BBDE8F08F4C45020829
:103B800034450208CD37000814000F00EB9D0CFFF0
:103B9000DC3E0208704770470923A0F89C3170474B
:103BA00010B504464FF4EE511EF065FE204610BDE0
:103BB00008B5B0F89C3153B1013B9BB2A0F89C31E1
:103BC0002BB90DF0F7F8BDE80840FFF725BB08BD9D
:103BD0000022C0E90122C0E90322C0E90522C0E9B0
:103BE00007224FF480728284014A0260704700BF4E
:103BF000804502082DE9F04F044600264FF6FF7578
:103C0000A34604F1980704F1C40A04F5867904F583
:103C1000AA782DED028B8BB00EF0C0FB6B4BE663E8
:103C20004BF8403B5846FFF7FDFD04F16C03184686
:103C300008EE103AFFF7F6FD262231463846ADF879
:103C400020501FF03AF83846FFF7C2FF604B08A932
:103C50003846C4F89830BDF8203084F8C0504FF48E
:103C60008875A4F8BE300AF0E4FE5046FFF7F0FD78
:103C70004846FFF7EDFD4046FFF7EAFD04F5CF703B
:103C8000A4F89C614FF4E1510AF050FF32463146EE
:103C9000584600954FF4F073FFF7B0FD4FF07F43A7
:103CA0003246314618EE100AA36600954FF4F073C1
:103CB000FFF7A4FD4FF0FF3376223846C4F8943066
:103CC0008B21FFF78EFD042308A93846ADF820307C
:103CD0000AF0AFFE1E225046572104ADFFF781FDCA
:103CE0004FF07F4351462846C4F8F430A4F8F860FA
:103CF0000AF07EF804F5807395E8070083E8070072
:103D0000344B122208A950460893ADF824200AF03B
:103D1000B3FB552248465A21FFF763FD4FF07F431E
:103D200049462846C4F83C31A4F840610AF060F8DE
:103D300004F5A47C274B95E807008CE807001122C6
:103D400008A948460893ADF824200AF095FBF9220B
:103D500040469C21FFF745FD4FF07F4341462846F2
:103D6000C4F88431A4F8886104F5C8760AF040F8F4
:103D7000184B95E807000893092386E8070008A96F
:103D80004046ADF824300AF077FB201D59460390D9
:103D900006F0FCF918EE101A039806F0F7F9394608
:103DA000039806F0F3F95146039806F0EFF94946F7
:103DB000039806F0EBF90398414606F0E7F9204630
:103DC0000BB0BDEC028BBDE8F08F00BFE8450208E8
:103DD0006C7B0208DC3E0208806A704730B585B013
:103DE0000368044601816D460146D3F884303C34B3
:103DF0002846984795E8070084E8070005B030BDDD
:103E000030B585B00368044641816D460146D3F85C
:103E100084303C342846984795E8070084E807003A
:103E200005B030BD0022028042808280C28070478F
:103E300080F836107047036870B504461B6B154652
:103E400098472368204629465B6EBDE870401847B6
:103E50000020704700224FF0FF318260C0E900214E
:103E60007047806C7047006B7047406B704780F8FC
:103E70002C10704710B40368046BD3F8A43062436D
:103E800061435DF8044B1847D0ED0C7A0368F8EEF7
:103E9000E77A10B420EE270AD3F8A440B5EEC00AA2
:103EA000F1EE10FA1ADBB6EE007A30EE070ABDEE3C
:103EB000C07A17EE101A60EEA70AF5EEC00AF1EE0E
:103EC00010FA1EDBF6EE007A70EEA70AFDEEE07A3D
:103ED00017EE902A23465DF8044B1847BDEEC07AD2
:103EE000F8EEC76A17EE103A013B30EE660AF7EEBD
:103EF000086A30EE260ABDEEC00A10EE101A194408
:103F0000D9E7FDEEE07AB8EEE77A17EE903A013B9A
:103F100070EEC70AB7EE087A70EE870AFDEEE00A87
:103F200010EE902A1A44D5E710B40368046BD3F856
:103F3000B03062435DF8044B1847D0ED0C7A03684B
:103F4000F8EEE77A10B427EE800AD3F8B040B5EE69
:103F5000C00AF1EE10FA0BDBF6EE007A30EE270A1B
:103F6000FDEEC07A17EE902A23465DF8044B184701
:103F7000FDEEC07AB8EEE77A17EE903A013B30EEEC
:103F8000470AB7EE087A30EE070ABDEEC00A10EE17
:103F9000102A1A44E8E710B40368446BD3F8BC3025
:103FA000624361435DF8044B1847D0ED0D7A036816
:103FB000F8EEE77A10B420EE270AD3F8BC40B5EE4D
:103FC000C00AF1EE10FA1ADBB6EE007A30EE070AFC
:103FD000BDEEC07A17EE101A60EEA70AF5EEC00A21
:103FE000F1EE10FA1EDBF6EE007A70EEA70AFDEE97
:103FF000E07A17EE902A23465DF8044B1847BDEE91
:10400000C07AF8EEC76A17EE103A013B30EE660A46
:10401000F7EE086A30EE260ABDEEC00A10EE101A5E
:104020001944D9E7FDEEE07AB8EEE77A17EE903A58
:10403000013B70EEC70AB7EE087A70EE870AFDEE14
:10404000E00A10EE902A1A44D5E710B40368446BD6
:10405000D3F8C03062435DF8044B1847D0ED0D7AB9
:104060000368F8EEE77A10B427EE800AD3F8C04070
:10407000B5EEC00AF1EE10FA0BDBF6EE007A30EE88
:10408000270AFDEEC07A17EE902A23465DF8044B0E
:104090001847FDEEC07AB8EEE77A17EE903A013B8A
:1040A00030EE470AB7EE087A30EE070ABDEEC00AD6
:1040B00010EE102A1A44E8E7D0F82C31026B002BDE
:1040C00007DB02EB430090FBF2F000EBD0704010F6
:1040D00070476FF0010101FB0320013890FBF2F003
:1040E00000EBD070401040427047D0ED4B7A90ED1D
:1040F0000C0AF8EEE77AB8EEC00A87EE800A70473D
:10410000D0F82C017047D0F83031026B002B07DB60
:1041100002EB430090FBF2F000EBD07040107047D0
:104120006FF0010101FB0320013890FBF2F000EB7E
:10413000D070401040427047D0ED4C7A90ED0C0AA0
:10414000F8EEE77AB8EEC00A87EE800A7047D0F83A
:1041500030017047D0F83431426B002B07DB02EBA3
:10416000430090FBF2F000EBD070401070476FF00E
:10417000010101FB0320013890FBF2F000EBD0704D
:10418000401040427047D0ED4D7A90ED0D0AF8EEA8
:10419000E77AB8EEC00A87EE800A7047D0F834019B
:1041A0007047D0F83831426B002B07DB02EB43003D
:1041B00090FBF2F000EBD070401070476FF00101FF
:1041C00001FB0320013890FBF2F000EBD0704010AF
:1041D00040427047D0ED4E7A90ED0D0AF8EEE77A46
:1041E000B8EEC00A87EE800A7047D0F838017047F1
:1041F000036870B50446D3F888300D4616469847D4
:104200002368324629462046D3F89030BDE87040F6
:1042100018470368D3F8943018470368D3F8D430AC
:1042200018470368D3F8E03018470368002A10B431
:10423000D3F8A430046B0EDB04EB420292FBF4F1E2
:1042400001EBD1714910B0F91E215DF8044B013A20
:104250000A44494218476FF0010101FB024101394C
:1042600091FBF4F101EBD17149104942EBE703688E
:10427000D3F83C311847026B03685143D3F84831F7
:1042800018470368D3F844311847D0ED0C7A036817
:10429000F8EEE77AD3F8482127EE800AB5EEC00A97
:1042A000F1EE10FA08DBF6EE007A30EE270AFDEEAA
:1042B000C07A17EE901A1047FDEEC07AB8EEE77A92
:1042C00017EE903A013B30EE470AB7EE087A30EE2F
:1042D000070ABDEEC00A10EE101A1944EBE7C0F849
:1042E0003C1170470368D3F850311847036810B584
:1042F000D3F85C31044698470028236B07DB03EBB7
:10430000400090FBF3F000EBD070401010BD6FF058
:10431000010202FB0030013890FBF3F000EBD0709B
:1043200040104042F2E70368D3F858311847036859
:1043300010B5D3F85C310446984707EE900AB8EE02
:10434000E70AD4ED0C7AF8EEE77A80EE270A10BD82
:10435000D0F83C017047026B03685143D3F86831D1
:104360001847D0ED0C7A0368F8EEE77AD3F86821A5
:1043700027EE800AB5EEC00AF1EE10FA08DBF6EE81
:10438000007A30EE270AFDEEC07A17EE901A104739
:10439000FDEEC07AB8EEE77A17EE903A013B30EEC8
:1043A000470AB7EE087A30EE070ABDEEC00A10EEF3
:1043B000101A1944EBE7C0F840117047036810B5B4
:1043C000D3F87431044698470028236B07DB03EBCE
:1043D000400090FBF3F000EBD070401010BD6FF088
:1043E000010202FB0030013890FBF3F000EBD070CB
:1043F00040104042F2E7036810B5D3F87431044628
:10440000984707EE900AB8EEE70AD4ED0C7AF8EE7A
:10441000E77A80EE270A10BDD0F8400170470846C1
:10442000704703680029026BD3F8843110B5044645
:104430000EDB02EB410191FBF2F101EBD17149106E
:1044400009B220469847D4E94F2302FB003010BD43
:104450006FF0010000FB0121013991FBF2F101EB4A
:10446000D17149104942EBE7006B7047406B7047D0
:104470000368D3F8483118470368D3F85C3118470C
:10448000026B03685143D3F814311847036870B5C1
:10449000D3F818510446D0F84461D3F880319847D6
:1044A0002B4656F820102046BDE8704018471046AD
:1044B0007047D0F83C21036852F82110D3F814312A
:1044C0001847D0F84021036852F82110D3F818316A
:1044D0001847D0F84831B0F91E011944081A70473E
:1044E00080F82610704790F82600704701637047E7
:1044F000006B70470120704770477047006C18B11F
:104500000368D3F8843018477047B2F81A1130B5F1
:10451000B2F91441B2F940502144B2F8422044802B
:10452000521A002185800180C28030BD10B54280C2
:10453000BDF90840BDF90C2004808280C38010BD05
:104540000B680846D3F8D43018470B680846D3F8F0
:10455000E0301847B1F914017047B1F81431B1F8DF
:104560001A21B1F842001344C01A00B27047B1F9E1
:1045700016017047B1F81631B1F81821B1F84000B2
:104580001344C01A00B270470B6808461146D3F8AE
:104590001431184730B5B2F91651B2F81841B2F8D3
:1045A00040102C44B2F942200580091B0024C2802F
:1045B0004480818030BD02808380BDF90020BDF938
:1045C00004304280C38070470B680846D3F8EC3053
:1045D00018470B680846D3F8F8301847B1F91601A8
:1045E0007047B1F81631B1F81821B1F84000134402
:1045F000C01A00B27047B1F914017047B1F8143114
:10460000B1F81A21B1F842001344C01A00B2704741
:104610000B6808461146D3F81831184770477047A1
:1046200070477047704770477047704770477047D2
:1046300090F82C304BB100F17002126802663BB169
:1046400000F178031B684366704700F16C02F4E7E1
:1046500000F17403F6E708B590F82C303BB100F197
:10466000C8031B68C0F8AC30FFF7E2FF08BD00F1DB
:10467000C403F6E790F82C304BB100F16C021268DD
:10468000C2653BB100F174031B680366704700F11B
:104690006802F4E700F17003F6E708B590F82C30F3
:1046A0003BB100F1C4031B68C0F8A830FFF7E2FF7C
:1046B00008BD00F1C003F6E77047704770477047C8
:1046C0007047704770477047704730B4446803467E
:1046D000C2689B68551004EB6200D20748BF62595C
:1046E00030BC48BFD358184743682BB183682BB9F7
:1046F000C06800F0010070471846704701207047FD
:1047000030B444680346C2689B68551004EB6200ED
:10471000D20748BF625930BC48BFD35818474368D6
:104720002BB183682BB9C06800F0010070471846B0
:1047300070470120704790F82D3080F8AE3080F837
:104740005A30704790F82D3080F85A30704790F802
:104750002D3080F8B23080F85E30704790F82D3000
:1047600080F85E30704700F5E040A0F8481E7047C2
:1047700000F5E040B0F8480E704710B504464C21F3
:104780001EF079F8204610BD10B5044644211EF0F5
:1047900072F8204610BD10B5044644211EF06BF897
:1047A000204610BD10B5044641F208411EF063F8E2
:1047B000204610BD10B5044647F660611EF05BF858
:1047C000204610BD10B5044610211EF054F82046B6
:1047D00010BD10B5044610211EF04DF8204610BD46
:1047E00010B504467C211EF046F8204610BD10B5D9
:1047F0000446CC211EF03FF8204610BD10B50446FB
:1048000078211EF038F8204610BD10B50446C821A6
:104810001EF031F8204610BD10B5044602491EF0C6
:104820002AF8204610BD00BF7037020090F82C30E7
:104830000BB105F067BC704713B503460846D3E9D2
:104840000D1403680191D3F88C3098470199024602
:10485000204602B0BDE8104007F0E0BE13B50346A5
:104860000846D3E90D1403680191D3F894309847B2
:1048700001990246204602B0BDE8104007F0CEBEC6
:1048800010B50446006B50B10368DB68984730B13F
:10489000206B21460368BDE810409B68184710BD97
:1048A00000F5053210B402F54674A14204D1036844
:1048B0001B6B5DF8044B184702F57972914202D1E7
:1048C00003689B6BF5E700F5063202F1B004A142E4
:1048D00002D10368DB6BECE702F5BE74A14202D1A2
:1048E00003681B6CE5E702F51272914202D103687E
:1048F0005B6CDEE75DF8044B704700000A1E10B5E4
:1049000003DBB0F91E41944206DC084B40F23161F2
:10491000074A08481DF0DEFF0368D0F84441D3F889
:104920008031984754F8200010BD00BF144602089B
:1049300037460208864602080B1E10B5044603DB04
:10494000B0F91E219A4206DC074B40F22B61074A60
:1049500007481DF0BFFF0368D3F884319847D4E9B6
:104960004F2302FB003010BD14460208E346020844
:1049700086460208002908B503DBB0F91E318B42D8
:1049800006DC064B40F2EB61054A06481DF0A2FF2B
:10499000D0F8403153F8210008BD00BF144602088A
:1049A0003247020886460208002908B503DBB0F941
:1049B0001E318B4206DC064B40F2DB61054A06489D
:1049C0001DF088FFD0F83C3153F8210008BD00BF2E
:1049D0001446020880470208864602080368828D52
:1049E00070B55E6B0446114B8DB21B682BB9104B32
:1049F000AE21104A10481DF06DFF10490988914200
:104A000003D80F4BAF210B4AF4E713F812200D4BDC
:104A10001B6853F822000368DB6A9847281A33465C
:104A200001B22046BDE87040184700BFA08D0220AB
:104A3000CE470208104802083E480208A48D022012
:104A400085480208A88D022070B50D79044690F8BB
:104A50002C303DB93BB123682046D3F88830BDE8FF
:104A6000704018477BB1B5FA85F320465B0984F89E
:104A70002C302368D3F88C309847236820465B6934
:104A80009847002DE7D070BD00F5053310B503F54C
:104A9000BE74A14204D10368BDE810405B6B1847A7
:104AA00003F50173994205D10CF084F9BDE810407B
:104AB000FEF7C2BB10BD2DE9F04100F5E04406460B
:104AC00094F8443E002B54D0B4F8463EB4F8482E37
:104AD00001339BB29342A4F8463E4AD39B1AB4F8E2
:104AE000502ED4F8547E00219DB2B4F84C3ED21A18
:104AF0002846B4F84A3E12B2B847B4F84E3EB4F86D
:104B0000522E80460021D4F8587ED21A2846B4F896
:104B10004A3E12B2B847B4F84E3E1844B4F84C3E80
:104B200008EB030102B2304609B2FEF7F8FDB4F813
:104B3000483EB4F84A1EB4F8462E0B449A4218D3A5
:104B4000002384F8443EA4F8463E0CF033F9314685
:104B50000CF036F9D4F85C0E58B10368DB6898475E
:104B600038B1D4F85C0E31460368BDE8F0419B686B
:104B70001847BDE8F08170B50D46097990F83420EA
:104B80000446A1F1020C90F82C30DCF1000646EB53
:104B90000C06012980F8346016D0BAB983F00103FD
:104BA00080F82C300368D3F88C309847236820466F
:104BB0005B6998472B79012B08D123682046D3F8ED
:104BC0008830BDE870401847002AF6D070BD00005C
:104BD000074A02600022C0E90122C0E90322C0E9BD
:104BE0000522C0E907224FF480728284704700BF1B
:104BF000A87F0208036870B504469B6B154698476A
:104C0000236820462946DB6BBDE87040184700004A
:104C100010B50446FEF706FE034B20462360002332
:104C2000E362238610BD00BFF479020837B501ABFB
:104C300015460DF0E9F900282A4601994FEA40147B
:104C40004FF0200004DB0DF0FEF9204403B030BD2E
:104C50000DF0F9F9201AF9E770B5B0F81A310E46DF
:104C6000B0F91441B0F842502344ED1A2DB22C444F
:104C7000691ED0E94D32013CD21AF01AFFF7D6FF77
:104C8000C0EB441070BD38B504460846B4F8163180
:104C9000B4F818110B44B4F84010C91AD4E94B52B7
:104CA00009B2521B401B0139FFF7C0FFB4F916319E
:104CB00000EB431038BD000010B5044606F0FAFEC4
:104CC000014B2046236010BD584A020810B5044627
:104CD000FFF7F2FF064A00230A2120462260012244
:104CE000236384F83C202364C4E90D2110BD00BF78
:104CF000C075020870B50023FF22144E04460272EC
:104D00004360134AC0E903333368026093F87620A6
:104D10000AB1D86C00B998680368DB6A98473368B1
:104D2000B0FA80F5D86C6D0930B10368DB6A98473A
:104D3000002808BF45F001052DB9064B2C21064A75
:104D400006481DF0C7FD204670BD00BF308D022013
:104D5000006E0208C3480208214902085A490208A5
:104D600010B50446FFF7A8FF0B4A00232046226037
:104D70000122236384F84430A4F84630E364C4E994
:104D80000D23064AE2634FF6FF72A4F840202E225C
:104D9000A4F8482010BD00BFC8770208DC3E020816
:104DA00010B54FF47A61044607F0C6FB134B20465A
:104DB00040F69F72236004F5A2730021C4F83C31D1
:104DC00004F57F530433C4F84031FFF753F80C4B1C
:104DD00000222046236004F5E04383F8442EA3F824
:104DE000462EC3F8482EC3F84C2EC3F8502EC3F8F5
:104DF000542EC3F8582EC3F85C2E10BDB46F0208B1
:104E0000EC4D020870B50446FFF7E2FE4FF47F4315
:104E100000252646A3850123A56284F82430124B81
:104E2000256384F8345046F8383B3046FFF7F0FEEF
:104E30002A4629463046C4E91B55C4E91D55FEF7EC
:104E4000D0FC31462046264605F0A0F9074B46F82F
:104E50007C3B3046FEF7FCFC20463146C4E9315528
:104E600005F094F9204670BD304F0208CC4F02087F
:104E700010B44367019B5DF8044B83670368C0E986
:104E80001B12D3F88C30184713B504467C300190C0
:104E900009F0F2FAB4F90A20B4F908100198FFF702
:104EA000A9FE02B010BD0368C0E93112D3F88C30FE
:104EB000184700002DE9F04F834600250126E24FF8
:104EC0000BF5805A4FF00208E04C0BF510492DED20
:104ED000108BB3B00DF062FA5A46DD4BCBF83C5064
:104EE00042F8403B10460DEE902AFEF79BFC0BF17A
:104EF0006C0318461293FEF795FC0BF198031846C5
:104F00001393FFF785FE0BF1CC0318461493FFF7BC
:104F10007FFE0BF5807318460EEE103AFEF798FCF4
:104F2000CC4B40F2AF41CBF84851CBF800310BF5F8
:104F3000A67318460AEE103A07F0FEFAC64A29464A
:104F40001AEE100ACBF84C210BF52672CBE9A265BC
:104F5000CBE9A42540F2AE42FEF78CFF0BF5AA5335
:104F6000BE4A1433CBF84C2118460EEE903AFFF7A8
:104F7000A3FE0BF5AC53CAF8547504338AF8828546
:104F800018461093FFF7B6FE0BF5AC53CAF88445EC
:104F90001C33CAF8985518460693FFF7E1FE0BF547
:104FA000AF52AF4B0C32CAF89C3510460892FFF74F
:104FB000D7FE0BF5B151AB4A1C31CAF8EC250846B7
:104FC00008EE101AFFF7ECFE0BF514419C31084671
:104FD0000FEE101AFFF770FE0BF51441C9F89C7420
:104FE000CC3189F8CA840BF5883808460F91FFF751
:104FF00081FE0BF51441C9F8CC440BF58A34E43139
:10500000C9F8E05408460991FFF760FE0BF515401A
:1050100095492830C9F8E4140A90FFF757FE0BF5BC
:10502000154E92480EF16C0EC9F828057046CDF861
:105030002CE0FFF795FE0BF5154E894B0EF1BC0EDB
:10504000C9F86C357046CDF830E0FFF789FE0BF5F6
:10505000164E84480EF10C0EC9F8BC05704608EED9
:1050600090EAFFF79DFE04F16C0E7046CDF854E017
:10507000FFF722FE4FF0020C04F19C0EC8F86C748E
:1050800088F89AC40BF5C8377046CDF89CE0FFF756
:1050900031FE6E4A04F1B40EC8F8B054C8F89C242E
:1050A0007046CDF860E0FFF711FE04F1F80E6E498E
:1050B0007046CDF864E0C8F8B414FFF707FE04F5B5
:1050C0009E7E6A48CDF868E0C8F8F8047046FFF79D
:1050D00047FE634904F5C67E04F5EE74C8F83C1536
:1050E0007046CDF86CE0FFF73BFE5E4809EE104AD3
:1050F000C8F88C0520460BF5CA34FFF751FE04F1C1
:105100003C0E7046CDF858E0FFF7D6FD4E4B4FF001
:10511000020C04F16C0EC7F83C3487F86AC4704680
:10512000CDF898E0FFF7E6FD484A04F1840EC7F891
:105130008054C7F86C247046CDF870E0FFF7C6FDC8
:1051400004F1C80E48497046C7F88414CDF874E0DD
:10515000FFF7BCFD04F5867E4448C7F8C8047046D6
:10516000CDF878E0FFF7FCFD04F5AE7E3C4904F590
:10517000D6747046C7F80C15CDF87CE0FFF7F0FD4B
:10518000384809EE904AC7F85C0520460BF505340F
:10519000FFF706FE02940C34204617940BF50434F6
:1051A000FFF78AFD284B4FF0020CC4F80C34029B29
:1051B00084F83AC43C3318462593FFF79BFD029BC5
:1051C000224A5433C4F85054C4F83C24184620935F
:1051D000FFF77CFD029B244A9833C4F854241846F8
:1051E0002193FFF773FD214AC4F89824029ADC3218
:1051F00010462292FFF7B4FD029B194903F59673FE
:10520000C4F8DC1418462393FFF7AAFD029B154847
:1052100003F5BE73C4F82C0518460D9309F0E2FBA4
:10522000029B03F5DC7318460FEE903AFEF710FB75
:10523000084BC4F80056C4F8B835029B03F5017357
:1052400018460E9314E000BF3C750208E06D02089A
:10525000D0510208C8490208F0700208544C0208F4
:105260008076020824770208DC4A0208984B02087C
:1052700009F0B8FB029B03F5107318460BEE103AC9
:10528000FEF7E6FA029B03F5227318460493FEF735
:10529000DFFA029B03F5347318460593FEF7D8FA3C
:1052A000029B03F5467318460BEE903AFFF7AAFDF2
:1052B000029B03F5797318460CEE103AFFF7A2FD36
:1052C0000BF506330393B03318460CEE903AFFF714
:1052D00099FD039B03F5BE7318460DEE103AFFF7D8
:1052E00091FD039B03F5127318460AEE903AFFF7FF
:1052F0006FFC4FF47F43C4F8705AA4F8743A5F4BC4
:10530000C4F8785AC4F8483A039B84F86C6A03F5E9
:105310001F7318461193FFF77BFC2A462946119804
:10532000C4F8B05AC4F8B45AC4F8B85AC4F8BC5A4D
:10533000FEF757FA11991AEE900A04F027FF504B26
:10534000C4F8483A039B03F5307318460793FEF7F9
:105350007FFA07991AEE900AC4F8085BC4F80C5B50
:1053600004F014FF474B4FF4E151C4F834BBC4F8C8
:10537000303B454BC4F83C5BC4F8383B434BC4F866
:1053800044BBC4F8403B424BC4F84C5BC4F8483BB8
:10539000039B03F5547009F0C9FB4FF488732A4648
:1053A00029461DEE900A00934FF4F073FEF726FA9B
:1053B0004FF07F432A462946CBF868304FF4887374
:1053C000129800934FF4F073FEF718FA4FF0FF3382
:1053D0000A223921CBF89430CE23139800934FF44E
:1053E0009B73FEF70BFA2B4A2B4B40F28511149856
:1053F000CBE9302304231B22ABF8C83029230093C8
:105400004E23FEF7FBF92349244B28221EEE100AF7
:10541000CBE93D134FF0050340F29111ABF8FC309E
:10542000172300933723FEF7E9F91D4B1EEE101AE0
:1054300028A8CBF83031DBF80031ABF83451D3F881
:105440008430984728AA0BF59E7307CA83E80700A3
:10545000039B03F544732493124B1B682BB9124B27
:10546000AE21124A12481DF035FA124B1B881D2B33
:1054700024D8114BAF210D4AF4E700BF6850020851
:1054800004510208A0510208894A0008B8510208D4
:10549000A1480008F7F7F7FFDE5B09FF0707DEFF0B
:1054A0000A0AF2FFA08D0220CE4702081048020827
:1054B0003E480208A48D022085480208E84B1D21C1
:1054C000186801F05DF8E74A0346062124980FF0BA
:1054D00009F9E54B24991EEE100A30931E23CBF8F0
:1054E000481130A9ADF8C43008F0C6FF2A4631464D
:1054F0001AEE100AFEF77CFEED214FF4BB73032277
:105500001AEE100A00916FF00601FEF777F90E21EE
:10551000022337221AEE100A0091062106F0BEFF80
:105520006FF00F03092203211AEE100A009506F00E
:1055300086FEFA220A211AEE100AFEF72CFD3246E8
:10554000DAF8D015DAF8D40507F068F8C8211B237B
:105550001AEE100ACAF8D4154FF0FF31AAF8DC355C
:10556000CAF8CC15CAF8D065069906F097FE3246FF
:10557000DAF82016DAF8240607F050F81C2319216F
:105580001AEE100AAAF82C36B84BCAF82416CAF834
:105590001C360899CAF8206606F06EFEB44B1099C6
:1055A0001EEE900ACAF8983506F080F94FF0020115
:1055B0001AEE100A8AF882151EEE901A06F04AFEBC
:1055C0002A46314618EE100A07F08AF82A46314674
:1055D00018EE100A07F0A7F8ED214FF4BB73032271
:1055E00018EE100A00916FF006014FF0030AFEF763
:1055F00005F90E210223372218EE100A0091062128
:1056000006F04CFF6FF00F030922032118EE100A79
:10561000009506F014FE40F2AF42294618EE100A3B
:10562000FEF728FCFA220A2118EE100AFEF7B3FC56
:10563000D9F818153246D9F81C0506F0EFFF8D4A47
:10564000642118EE100AC9F81425C9F81C15C9F808
:105650001865099989F8206506F0FCFDD9F85C15F4
:105660003246D9F8600506F0D9FF824A192118EEB2
:10567000100AC9F85825C9F86015C9F85C650A9977
:1056800089F8646506F0E6FD3246D9F8A015D9F828
:10569000A40506F0C3FFC821774B18EE100AC9F81D
:1056A000A4154FF01901C9F89C35A9F8AC15C9F833
:1056B000A0650B9906F0F2FD3246D9F8F015D9F83D
:1056C000F40506F0ABFF1A23192118EE100AA9F809
:1056D000FC35694BC9F8F415C9F8EC350C99C9F8D3
:1056E000F06506F0C9FD65491FEE100AC9F8E0141F
:1056F0000F9906F0DBF81FEE101A18EE100A89F861
:10570000CAA406F0A7FD2A46314618EE900A06F014
:10571000E7FF2A46314618EE900A07F004F8ED201C
:105720004FF4BB7352466FF00601009018EE900ADA
:105730004FF00A09FEF762F80E20022337220621F5
:10574000009018EE900A06F0A9FE6FF00F030922F0
:10575000514618EE900A009506F071FD40F2AF42F6
:10576000294618EE900AFEF785FBFA220A2118EE68
:10577000900AFEF710FCD8F8E8143246D8F8EC048A
:1057800006F04CFF3B4A64201899C8F8E424C8F896
:10579000EC0418EE900AC8F8E86488F8F06406F0A3
:1057A00059FDD8F82C153246D8F8300506F036FFEA
:1057B000304A19201999C8F82825C8F8300518EE7C
:1057C000900AC8F82C6588F8346506F043FD324627
:1057D000D8F87015D8F8740506F020FF0B23C82000
:1057E0001A99A8F87C35244BC8F8740518EE900A6D
:1057F000C8F86C35C8F8706506F050FD3246D8F828
:10580000C015D8F8C40506F009FF1B4B19201B99D9
:10581000C8F8BC35C8F8C40518EE900AC8F8C065C9
:10582000A8F8CC9506F028FD14491598C8F8B014CE
:10583000279906F03BF8159918EE900A88F89AA473
:1058400006F008FD2A46314619EE100A06F048FF18
:105850002A46314619EE100A06F065FF10E000BF37
:10586000AC8D0220BC490208DC3E0208C9881EFF3C
:105870001616C4FFC59714FF0000FFFF20C217FFD4
:10588000ED204FF4BB7352466FF00601009019EE05
:10589000100AFDF7B3FF0E200223372206210090E5
:1058A00019EE100A06F0FAFD6FF00F0309225146B7
:1058B00019EE100A009506F0C2FC40F2AF422946EC
:1058C00019EE100AFEF7D6FAFA22494619EE100A26
:1058D000FEF761FBD7F8B8143246D7F8BC0406F0DF
:1058E0009DFEDD4A64201C99C7F8B424C7F8BC04A7
:1058F00019EE100AC7F8B86487F8C06406F0AAFC6D
:10590000D7F8FC143246D7F8000506F087FED24AD5
:1059100019201D99C7F8F824C7F8000519EE100AD8
:10592000C7F8FC6487F8046506F094FC3246D7F8A3
:105930004015D7F8440506F071FEC84BC8201E99E3
:10594000C7F83C35C7F8440519EE100AC7F840659A
:10595000A7F84CA506F0A2FC3246D7F89015D7F868
:10596000940506F05BFE1920BC4BC7F894054FF078
:105970000200C7F88C35A7F89C0519EE100A1F998C
:10598000C7F8906506F078FCB5491698C7F88014FA
:10599000269905F08BFF169919EE100A87F86AA46C
:1059A00006F058FC2A46314619EE900A06F098FE99
:1059B0002A46314619EE900A06F0B5FE4FF0ED0C7E
:1059C0004FF4BB7352466FF0060119EE900ACDF802
:1059D00000C0FDF713FF4FF00E0C02233722CDF865
:1059E00000C0062119EE900A06F058FD6FF00F0373
:1059F0000922514619EE900A009506F020FC40F26B
:105A0000AF42294619EE900AFEF734FAFA224946C7
:105A100019EE900AFEF7BFFA3246D4F88814D4F88B
:105A20008C0406F0FBFD8C4A4FF0640C209919EEB3
:105A3000900AC4F88424C4F88CC41746C4F8886457
:105A400084F8906406F006FC3246D4F8CC14D4F8FE
:105A5000D00406F0E3FD4FF0190C219919EE900ADD
:105A6000C4F8D0C4C4F8C874C4F8CC6484F8D4644E
:105A700006F0F0FB3246D4F81015D4F8140506F001
:105A8000CDFD764F4FF0C80C229919EE900AC4F85C
:105A90000C75C4F814C5C4F81065A4F81C6506F0AC
:105AA000FDFB3246D4F86015D4F8640506F0B6FD67
:105AB0004FF0190C239919EE900AC4F864C5C4F884
:105AC0005C75C4F86065A4F86C5506F0D5FB6449B4
:105AD0001798C4F85014259905F0E8FE179919EEA7
