:020000040800F2
:1000000000000520A51D0008B11C0008B31C000855
:10001000B51C0008B71C0008B91C0008000000004F
:10002000000000000000000000000000BB1C0008F1
:10003000BD1C000800000000BF1C0008C11C000817
:10004000F51D0008F51D0008F51D0008F51D000848
:10005000F51D0008F51D0008F51D0008F51D000838
:10006000F51D0008F51D0008F51D0008F51D000828
:10007000F51D0008F51D0008F51D0008F51D000818
:10008000F51D0008F51D0008F51D0008F51D000808
:10009000F51D0008F51D0008F51D0008F51D0008F8
:1000A000F51D0008F51D0008F51D0008F51D0008E8
:1000B000F51D0008F51D0008C51C0008F51D000809
:1000C000F51D0008F51D0008F51D0008F51D0008C8
:1000D000F51D0008F51D0008F51D0008F51D0008B8
:1000E000F51D0008F51D0008F51D0008F51D0008A8
:1000F000F51D0008F51D0008F51D0008F51D000898
:10010000F51D0008F51D0008F51D0008F51D000887
:10011000F51D0008F51D0008D11C0008F51D00089C
:10012000F51D0008F51D0008F51D0008F51D000867
:10013000F51D0008F51D0008F51D0008F51D000857
:10014000F51D0008F51D0008F51D0008F51D000847
:10015000F51D0008F51D0008F51D0008F51D000837
:10016000F51D0008F51D0008F51D0008F51D000827
:10017000F51D0008F51D0008F51D00080000000031
:10018000F51D0008F51D0008F51D0008F51D000807
:10019000F51D0008F51D0008F51D0008F51D0008F7
:1001A000DD1C0008F51D0008E91C0008F51D00080D
:1001B000F51D0008F51D0008F51D0008F51D0008D7
:0801C000F51D0008F51D000803
:1001D00010B5054C237833B9044B13B10448AFF381
:1001E00000800123237010BD1801002000000000D2
:1001F0004C2E020808B5034B1BB103490348AFF36B
:10020000008008BD000000001C0100204C2E0208E8
:1002100001F0FF01102A2BDB10F0070F08D010F8B7
:10022000013B013A8B422DD010F0070F42B3F6D1BB
:10023000F0B441EA012141EA014122F007047FF0D4
:1002400000070023F0E80256083C85EA010586EA2B
:10025000010685FA47F5A3FA87F586FA47F6A5FA67
:1002600087F68EB9EED1F0BC01F0FF0102F0070273
:1002700032B110F8013B013A83EA010313B1F8D11E
:100280000020704701387047002D06BF35460338FF
:10029000073815F0010F07D1013015F4807F02BF38
:1002A000013015F4C03F0130F0BC0138704700BF89
:1002B00070B54FF0FF0C4CF4E06C1CEA11541DBFFC
:1002C0001CEA135594EA0C0F95EA0C0F00F0DEF8C7
:1002D0002C4481EA030621EA4C5123EA4C5350EAAC
:1002E000013518BF52EA033541F4801143F48013FD
:1002F00038D0A0FB02CE4FF00005E1FB02E506F08E
:100300000042E0FB03E54FF00006E1FB03569CF0E2
:10031000000F18BF4EF0010EA4F1FF04B6F5007FE8
:1003200064F5407404D25FEA4E0E6D4146EB06065A
:1003300042EAC62141EA55514FEAC52040EA5E50E3
:100340004FEACE2EB4F1FD0C88BFBCF5E06F1ED88D
:10035000BEF1004F08BF5FEA500E50F1000041EBC4
:10036000045170BD06F0004646EA010140EA020071
:1003700081EA0301B4EB5C04C2BFD4EB0C0541EA93
:10038000045170BD41F480114FF0000E013C00F3A8
:10039000AB8014F1360FDEBF002001F0004170BDCC
:1003A000C4F10004203C35DA0C341BDC04F11404E5
:1003B000C4F1200500FA05F320FA04F001FA05F271
:1003C00040EA020001F0004221F0004110EBD3703E
:1003D00021FA04F642EB06015EEA430E08BF20EA6A
:1003E000D37070BDC4F10C04C4F1200500FA04F30D
:1003F00020FA05F001FA04F240EA020001F000419F
:1004000010EBD37041F100015EEA430E08BF20EA11
:10041000D37070BDC4F1200500FA05F24EEA020E59
:1004200020FA04F301FA05F243EA020321FA04F088
:1004300001F0004121FA04F220EA020000EBD3703F
:100440005EEA430E08BF20EAD37070BD94F0000F3F
:100450000FD101F00046400041EB010111F4801F73
:1004600008BF013CF7D041EA060195F0000F18BF24
:10047000704703F00046520043EB030313F4801F60
:1004800008BF013DF7D043EA0603704794EA0C0F1A
:100490000CEA135518BF95EA0C0F0CD050EA410630
:1004A00018BF52EA4306D1D181EA030101F00041AD
:1004B0004FF0000070BD50EA410606BF10461946D5
:1004C00052EA430619D094EA0C0F02D150EA0136E1
:1004D00013D195EA0C0F05D152EA03361CBF104622
:1004E00019460AD181EA030101F0004141F0FE41C1
:1004F00041F470014FF0000070BD41F0FE4141F445
:10050000780170BD81F0004102E000BF83F000433C
:1005100030B54FEA41044FEA430594EA050F08BF9E
:1005200090EA020F1FBF54EA000C55EA020C7FEA62
:10053000645C7FEA655C00F0E2804FEA5454D4EBDF
:100540005555B8BF6D420CDD2C4480EA020281EAA9
:10055000030382EA000083EA010180EA020281EAE1
:100560000303362D88BF30BD11F0004F4FEA013133
:100570004FF4801C4CEA113102D0404261EB410142
:1005800013F0004F4FEA03334CEA133302D05242C8
:1005900063EB430394EA050F00F0A780A4F1010484
:1005A000D5F1200E0DDB02FA0EFC22FA05F28018BE
:1005B00041F1000103FA0EF2801843FA05F35941A4
:1005C0000EE0A5F120050EF1200E012A03FA0EFC23
:1005D00028BF4CF0020C43FA05F3C01851EBE3714D
:1005E00001F0004507D54FF0000EDCF1000C7EEB6A
:1005F00000006EEB0101B1F5801F1BD3B1F5001FA8
:100600000CD349085FEA30004FEA3C0C04F10104C6
:100610004FEA445212F5800F80F09A80BCF1004FEF
:1006200008BF5FEA500C50F1000041EB045141EA71
:10063000050130BD5FEA4C0C404141EB0101013C3A
:1006400028BFB1F5801FE9D291F0000F04BF014629
:100650000020B1FA81F308BF2033A3F10B03B3F1FB
:1006600020020CDA0C3208DD02F1140CC2F10C028B
:1006700001FA0CF021FA02F10CE002F11402D8BFE9
:10068000C2F1200C01FA02F120FA0CFCDCBF41EAB5
:100690000C019040E41AA2BF01EB0451294330BD84
:1006A0006FEA04041F3C1CDA0C340EDC04F1140461
:1006B000C4F1200220FA04F001FA02F340EA030038
:1006C00021FA04F345EA030130BDC4F10C04C4F17E
:1006D000200220FA02F001FA04F340EA030029465E
:1006E00030BD21FA04F0294630BD94F0000F83F4A8
:1006F000801306BF81F480110134013D4EE77FEA8B
:10070000645C18BF7FEA655C29D094EA050F08BFD6
:1007100090EA020F05D054EA000C04BF19461046B7
:1007200030BD91EA030F1EBF0021002030BD5FEAFB
:10073000545C05D14000494128BF41F0004130BD23
:1007400014F580043CBF01F5801130BD01F0004577
:1007500045F0FE4141F470014FF0000030BD7FEAEA
:10076000645C1ABF194610467FEA655C1CBF0B46E5
:10077000024650EA013406BF52EA033591EA030FFC
:1007800041F4002130BD00BF90F0000F04BF0021F4
:10079000704730B54FF4806404F132044FF0000527
:1007A0004FF0000150E700BF90F0000F04BF0021A0
:1007B000704730B54FF4806404F1320410F0004506
:1007C00048BF40424FF000013EE700BF42004FEA01
:1007D000E2014FEA31014FEA02701FBF12F07F437E
:1007E00093F07F4F81F06051704732F07F4208BF35
:1007F000704793F07F4F04BF41F40021704730B53C
:100800004FF4607401F0004521F000411CE700BF87
:1008100050EA010208BF704730B54FF000050AE00A
:1008200050EA010208BF704730B511F0004502D50B
:10083000404261EB41014FF4806404F132045FEA0D
:10084000915C3FF4D8AE4FF003025FEADC0C18BFB6
:1008500003325FEADC0C18BF033202EBDC02C2F1A8
:10086000200300FA03FC20FA02F001FA03FE40EA3A
:100870000E0021FA02F11444BDE600BF4FF0FF3C28
:1008800006E000BF4FF0010C02E000BF4FF0010C8A
:100890004DF804CD4FEA410C7FEA6C5C4FEA430C03
:1008A00018BF7FEA6C5C1BD001B050EA410C0CBF52
:1008B00052EA430C91EA030F02BF90EA020F0020B4
:1008C000704710F1000F91EA030F58BF994208BF1B
:1008D00090422CBFD8176FEAE37040F001007047D8
:1008E0004FEA410C7FEA6C5C02D150EA013C07D12F
:1008F0004FEA430C7FEA6C5CD6D152EA033CD3D07A
:100900005DF8040B704700BF8446104662468C4673
:100910001946634600E000BF01B5FFF7B7FF0028A6
:1009200048BF10F1000F01BD4DF808EDFFF7F4FFCF
:100930000CBF012000205DF808FB00BF4DF808ED5A
:10094000FFF7EAFF34BF012000205DF808FB00BF7D
:100950004DF808EDFFF7E0FF94BF012000205DF89F
:1009600008FB00BF4DF808EDFFF7CEFF94BF012054
:1009700000205DF808FB00BF4DF808EDFFF7C4FF4D
:1009800034BF012000205DF808FB00BF4A0011D2EF
:1009900012F5001211D20DD56FF47873B3EB6252D9
:1009A0000ED44FEAC12343F0004343EA505323FAE5
:1009B00002F070474FF00000704750EA013002D15A
:1009C0004FF0FF3070474FF00000704753B94AB9FD
:1009D000002908BF00281CBF4FF0FF314FF0FF3047
:1009E00000F070B9ADF1080C6DE904CE00F006F826
:1009F000DDF804E0DDE9022304B070472DE9F0479B
:100A0000089E0D4604460F46002B4AD18A42944662
:100A100065D9B2FA82F343B102FA03FCC3F12002B2
:100A20009F4020FA02F217439C404FEA1C4E1FFAE7
:100A30008CF5B7FBFEF1220C0EFB117742EA074260
:100A400001FB05F090420AD91CEB020201F1FF37CD
:100A500080F01C81904240F2198102396244121ADE
:100A6000A4B2B2FBFEF00EFB102244EA024400FBEB
:100A700005F5A5420AD91CEB040400F1FF3280F011
:100A80000781A54240F204816444023840EA0140F3
:100A9000641B00211EB1DC400023C6E90043BDE811
:100AA000F0878B4208D9002E00F0ED800021C6E9C6
:100AB00000050846BDE8F087B3FA83F1002949D163
:100AC000AB4202D3824200F2F880841A65EB030243
:100AD00001201746002EE2D0C6E90047DFE702B941
:100AE000FFDEB2FA82F3002B40F090808A1A4FEAC0
:100AF0001C471FFA8CFE0121B2FBF7F507FB1520FE
:100B0000220C42EA00420EFB05F0904208D91CEB91
:100B1000020205F1FF3802D2904200F2CB80454636
:100B2000121AA4B2B2FBF7F007FB102244EA024407
:100B30000EFB00FEA64508D91CEB040400F1FF32B1
:100B400002D2A64500F2BB801046A4EB0E0440EA98
:100B500005409FE7C1F120078B4022FA07FC4CEAD1
:100B6000030C05FA01F420FA07F3FD404FEA1C4993
:100B70002343B5FBF9F81FFA8CFE09FB18551C0C32
:100B800044EA054408FB0EF5A54202FA01F200FA18
:100B900001F00BD91CEB040408F1FF3A80F08880C7
:100BA000A54240F28580A8F102086444641B9DB20E
:100BB000B4FBF9F309FB134445EA044403FB0EFEBE
:100BC000A64508D91CEB040403F1FF356CD2A645F9
:100BD0006AD9023B644443EA0843A3FB0295A4EBB1
:100BE0000E04AC42C846AE4656D353D056B1B0EB15
:100BF000080264EB0E0404FA07F7CA40CC4017431E
:100C0000C6E9007418460021BDE8F087C3F1200151
:100C100002FA03FC20FA01F225FA01F19D402A4371
:100C20004FEA1C471FFA8CFEB1FBF7F007FB1015CB
:100C3000110C41EA054100FB0EF58D4204FA03F464
:100C400008D91CEB010100F1FF382FD28D422DD9BC
:100C500002386144491B92B2B1FBF7F507FB15114D
:100C600042EA014205FB0EF1914208D91CEB020257
:100C700005F1FF3816D2914214D9023D6244521A4E
:100C800045EA004138E73146304608E73946E6E6AE
:100C90001046FBE64845A9D2B9EB020865EB0C0EFD
:100CA000013BA3E74546EAE72B4694E74046D1E7F8
:100CB000D0467BE7023D624432E708460AE76444D7
:100CC000023842E7704700BF10B594B010220021EF
:100CD00002240AA821F097FA1422002103A821F087
:100CE00092FA1D4B192108A81A6C42F080521A641E
:100CF0001B6C03F080530193019B184B1A6842F45C
:100D000040421A6001221B6803F440430293029B95
:100D10004FF48033CDE908234FF48003CDE90E432F
:100D20004FF4C873CDE91244CDE9101306F076FFF5
:100D300006F01EFC0F2300200621CDE903344FF4FA
:100D4000A053CDE905034FF4805303A8079307F0A0
:100D50004DF914B010BD00BF0038024000700040D3
:100D600030B5002289B001212A480F242A4D05F010
:100D7000A7FE00220221274805F0A2FE012202213F
:100D8000244805F09DFE4FF48041284605F092FE70
:100D900000222DF8140002211E4805F091FE013CAE
:100DA000ECD201221B48114605F08AFEBDF81C203A
:100DB000BDF81A3003EB4203BDF8182002EB4302E2
:100DC000BDF8163003EB4203BDF8142002EB4302DA
:100DD000BDF8123003EB4203BDF8102002EB4302D2
:100DE000BDF80E3003EB4203BDF80C2002EB4302CA
:100DF000BDF80A3003EB4203BDF8082002EB4302C2
:100E0000BDF8063003EB420300EE103ABAEECF0A0B
:100E100009B030BD00200240000402400268034BCC
:100E20009A4201D105F054BA704700BF001000404B
:100E300000232DE9F04F1A465F4D2DED028B83B054
:100E4000EA540133B3F57A6FFAD15C4BB6EE007A0F
:100E5000B3EE086A5A4C1869F0EE478AD3ED035A8C
:100E600007EE900AF8EE676AF0EE467A2168E5EE42
:100E7000877AF4EEE67AF1EE10FA57D989B2514A40
:100E80005F69C0B251800021B9425CDB2168B6EED7
:100E9000007AD3F81C80394493ED066A07EE908AF5
:100EA00021602168F8EE675A89B29180F0EE667A87
:100EB000E6EE077AF4EEE57AF1EE10FA48D9216809
:100EC0005FFA88F6186A002389B2D18083425BDB1F
:100ED00023680021B6EE008A034423602368E954A6
:100EE00023680FF2CC0BDBE900AB9BB213814046C9
:100EF000FFF74AFC06460F4618EE100AFFF766FC9D
:100F000052465B46FFF7D4F902460B463046394657
:100F1000FFF7FCFA00222C4B06460F46FFF722FD96
:100F2000B8BB03B0BDEC028BBDE8F08FFCEEE77AF6
:100F300037EE287ACDED017A9DF804206A542268B4
:100F40000132226090E726680E440131A8559BE7E4
:100F5000FCEEC77A2068B0EE665A37EE287ACDEDFF
:100F6000017A9DF8041007EE901AF8EEE77AA7EEE2
:100F7000865AFCEEC57ACDED017A9DF8041029540D
:100F800021680131216091E72168194401336E54D1
:100F90009CE730463946FFF7F9FCD4F80090C0B220
:100FA00038EE288A05F809002368013323609EE79C
:100FB000CDCCCCCCCCCCFC3F720100201811002051
:100FC000040000206801002000003840C34E736A0E
:100FD000822B2DE98048A5B012D0C14B4FF02808D4
:100FE0009622F360B361E623C6E90738BD4B336050
:100FF000BD4B7360BD4BB3608223C6E904227362AC
:10100000FFF716FFBA4833680121012500248361E8
:101010007368C361B368036220F0B2FE102200213E
:1010200017A821F0F0F805F0DBF94FF0104EB14BA6
:1010300017A8ADF85C501A94CDE918E305F0EEF965
:10104000172317A88DF85D508DF864308DF86A501D
:1010500005F0E4F9042005F0D1F9BFF34F8FBFF399
:101060006F8FA54AC2F85042BFF34F8FBFF36F8F07
:10107000536943F400335361BFF34F8FBFF36F8F56
:10108000C2F88440BFF34F8FD2F8803043F6E0744B
:10109000C3F3C900C3F34E335B0103EA04070146FF
:1010A00047EA81750139C2F86052F9D2203B13F149
:1010B000200FF2D1BFF34F8F536943F48033536154
:1010C000BFF34F8FBFF36F8F05F0F0F80024FFF7E9
:1010D000FBFD1422002117A821F095F8874B082169
:1010E00087481A6B0127874D4FF0020942F0100222
:1010F0004FF0040ADFF82CB24FF010081A631A6B95
:1011000002F010020292029A1A6B42F001021A6374
:101110001A6B02F001020392039A1A6B42F0020268
:101120001A631A6B02F002020492049A1A6B42F0DC
:1011300040021A631A6B02F040020592059A1A6B7C
:1011400042F400721A631A6B02F400720692069A55
:101150001A6B42F008021A631A6B02F00802079237
:10116000079A1A6B42F480621A631A6B02F4806267
:101170000892089A1A6B42F020021A631A6B02F066
:1011800020020992099A1A6B42F480721A631A6B50
:1011900002F480720A920A9A1A6B42F080021A6371
:1011A0001A6B02F080020B920B9A1A6B42F0040247
:1011B0001A6301221B6B03F004030C930C9B05F0D4
:1011C0007FFC00220321504805F07AFC01224FF4F5
:1011D00080514D4805F074FC082317A94848CDE913
:1011E0001737CDE9194405F0E3FA41F2030317A9D3
:1011F0004548CDE91737CDE9194405F0D9FA4FF440
:10120000804317A941481994CDE9173405F0D0FA65
:101210003F48404B848003600762C0E9054405F005
:1012200029F93D4B2846C5E90A44C5E90C44C5E9FE
:101230000034C5E9024405F0BAF939462846374D6D
:1012400005F06EFA364B40224FF400612846AC6040
:10125000EC61AC62CDF87490C5E900344FF4C07312
:10126000C5E905234FF48053C5E90813072317A9DF
:10127000CDE91793CDE919A30323C5E903A8CDE967
:101280001B3907F009FA59464FF6FF7228460194B8
:10129000CBE90274CBE9007807F01EFA384605F076
:1012A00029F859464FF6FF722846CBE90274CBE97C
:1012B000009807F011FA032359464FF6FF722846AB
:1012C000CBE900380823CBE9023407F005FA4FF4E4
:1012D0000C734FF6FF72594626E000BF181100202C
:1012E0009A99193F000070436666E6400000FA4490
:1012F000440100201B00000300ED00E00038024024
:101300000028024068110020002002400004024032
:10131000441100200030024000B00240EC120020D6
:10132000400100A03401002001932846019BCBF826
:101330000870CBF80C30CBE900A807F0CDF940F2EB
:101340002B712846C74D07F0E6F943F2D2024FF061
:101350002043C54840F2152B1A60C44B2C62C5E9E6
:1013600000032846C5E90247C5E90444C5E9064427
:1013700005F03DFD2146284605F016FF214628468A
:10138000BB4D05F037FF2146342217A820F03BFF64
:10139000B84B4FF0280C4FF0350E40F23522AC869A
:1013A00028462C6185F83640C5E900340923C5E993
:1013B00005C30B23C5E907E340F21B13C5E909B3D5
:1013C00040F21D13C5E90244C5E90B2305F0BAFF3D
:1013D000FF214FF480604FF4F0724FF4887317943C
:1013E000ADF88C4022938DF88E40CDE91C14052178
:1013F000CDE91E014FF0404128461825CDE91824BB
:10140000CDE92012224617A9CDE91A3906F065F870
:1014100099489A4B0462C0E900374FF4A063984F93
:10142000C0E90453C0E90644C0E902A806F0BAF9CD
:10143000944D04F0B9FD04F0FDFC5C2004F0BEFF07
:1014400021461C2210A80F94CDE90D4420F0DBFEAC
:101450002C22214617A820F0D6FE4FF4FA43284646
:10146000AC60C5E900734FF47A73874FC5E9033464
:10147000C5E9054407F0D4FB0DA928460F94CDE932
:101480000D4407F0F3FD7023224610A92846169458
:10149000CDE91034CDE91244CDE9144407F028FC1D
:1014A0004FF4005317A928461B941E942194CDE9AC
:1014B0001C344FF00073CDE91744CDE91F34CDE95A
:1014C000194407F01FFE284600F026FB424621463D
:1014D00017A820F098FEDFF8D8C14FF47A433846B9
:1014E000BC60BC611294C7E900C34FF4FA73CDE944
:1014F0001044C7E9033407F063FB4FF4805317A986
:101500003846179307F07CFC10A9384610941294C3
:1015100007F0ACFD00F06FFC214628465B4C07F05D
:10152000A3FD5B4F2B680A225A6300F066FCFFF7AD
:1015300017FC4FF4FA7084ED000A04F0DBFE554A04
:101540003988138889B29BB2994202D1524B01214A
:1015500019607988138889B29BB2994202D14E4BA7
:1015600002211960B988138889B29BB2994202D1CD
:10157000494B03211960F988138889B29BB29942BB
:1015800002D1454B042119603989138889B29BB275
:10159000994202D1404B052119604048D5F800C05E
:1015A00003783F49012BDFED3F6A40F088801388C4
:1015B000DFF800E19BB21EF803304FF0000ED4EDCF
:1015C000007A07EE103A384BB8EEC77A37EE677AF2
:1015D00083ED007A354B93ED036AD3ED017AD3EDB9
:1015E000005A66EE277A93ED025A83ED037AE7EE0E
:1015F000257AD3ED045A83ED046AE5EE257AD3ED1E
:10160000055A77EEA57AF4EEE67AC3ED057AC1EDD8
:10161000007AF1EE10FA04DDC1ED006AC3F81CE0B7
:1016200006E0F5EEC07AF1EE10FA45D5C1F800E01B
:10163000D1ED007AFCEEE77A17EE903A9BB2C3F553
:101640007A73CCF83430138801339BB21380398914
:10165000138889B29BB299427FF467AF002303706D
:1016600063E700BFAC110020005C0040FFEAC0004F
:10167000F811002000680140A0120020001000A016
:1016800000000140201300206C130020A81100204E
:101690006801002014110020BC130020121100204A
:1016A0004011002000007A44B813002044010020BB
:1016B0000008004072010020D6F804E0AEE70023E5
:1016C000C1ED006A13804FF47A73CCF834302CE704
:1016D000704700000A4B82B01A6C42F080521A64C4
:1016E0001A6C02F080520092009A5A6C42F48042C6
:1016F0005A645B6C03F480430193019B02B0704712
:1017000000380240026882B0084B9A420BD1D3F8ED
:10171000302803F5006342F480521A631B6B03F414
:1017200080530193019B02B0704700BF003002401C
:101730000E4B07B502689A4215D1A3F5F043052177
:101740005A201A6B42F400021A6300221B6B03F446
:1017500000030193019B04F0F1FD5A2003B05DF8F2
:1017600004EB04F01DBE03B05DF804FB00B00240C2
:1017700010B5A8B004461422002102A820F043FDB1
:101780008422002107A820F03EFD2268174B9A42D0
:101790002AD14FF4803307A8079306F0F3FC08B171
:1017A000FFF796FF124C4FF4C07201211148236BD2
:1017B00043F080032363236B03F080030093009BBB
:1017C0001223CDE902230323CDE90413042302A944
:1017D000069304F0EDFF236C43F400032364236CB1
:1017E00003F400030193019B28B010BD005C00408E
:1017F00000380240001C0240026808B5094B9A42BA
:101800000FD1094A80210948136C23F400031364A3
:1018100005F0B0F84FF480710448BDE8084005F0C9
:10182000A9B808BD005C004000380240001C02401E
:1018300070B5ACB004461422002106A820F0E3FCE9
:10184000842200210BA820F0DEFC2268484B9A423B
:1018500040F08C800823052001240B934FF4C073C3
:1018600010930223CDE911304FF400330BA8CDE9DA
:10187000154306F087FC08B1FFF72AFF3D4B002413
:1018800002250E265A6C06A93B4842F080625A6433
:101890005A6C02F080620092009A1A6B42F01002B9
:1018A0001A631A6B02F010020192019A1A6B42F449
:1018B00000721A631A6B02F400720292029A1A6B97
:1018C00042F480621A631A6B02F480620392039AF4
:1018D0001A6B42F040021A631A6B02F04002049243
:1018E000049A1A6B42F480721A631B6B03F48073C0
:1018F0000593059B1023CDE90635CDE908440A96EA
:1019000004F056FF4EF6FF7306A91C480A96CDE96F
:101910000635CDE9084404F04BFFF72306A9184823
:101920000A96CDE90635CDE9084404F041FF4FF4AD
:10193000805306A91348CDE906350923CDE90844AB
:101940000A9304F035FF4FF4464306A90E480A9661
:10195000CDE90635CDE9084404F02AFF5820224697
:10196000052104F0EBFC582004F01AFD2CB070BDEA
:10197000006801400038024000100240002402408C
:1019800000280240001802400020024014220021DA
:101990002DE9F0418AB004460DEB020020F033FC43
:1019A00022682C4B9A4251D12B4B02250324092645
:1019B0009A6B4FF0040805A9284842F0020200275C
:1019C0009A639A6B02F002020192019A1A6B42F03A
:1019D00010021A631A6B02F010020292029A1A6B3A
:1019E00042F002021A631A6B02F002020392039A97
:1019F0001A6B42F008021A631B6B03F0080304938E
:101A0000049BCDE90585CDE9084604F0D1FE4023CD
:101A100005A91348CDE905350A23CDE907740993D3
:101A200004F0C6FE05A90E480996CDE90585CDE965
:101A3000077404F0BDFE4FF4605305A909480996E8
:101A4000CDE90535CDE9077404F0B2FE0AB0BDE872
:101A5000F08100BF001000A00038024000100240DA
:101A600000040240000C0240026808B50B4B9A4289
:101A700013D10B4A04210B48936B23F002039363A9
:101A800004F078FF4421084804F074FF4FF46051DB
:101A90000648BDE8084004F06DBF08BD001000A076
:101AA000003802400010024000040240000C0240D6
:101AB000026882B0074B9A420AD103F59C335A6CF4
:101AC00042F001025A645B6C03F001030193019B35
:101AD00002B07047000001400E4B07B502689A4201
:101AE00015D103F50C331E201A6C42F004021A645F
:101AF00000221B6C114603F004030193019B04F0C8
:101B00001DFC1E2003B05DF804EB04F049BC03B0DB
:101B10005DF804FB0008004010B586B004461422AE
:101B2000002101A820F06FFB22680D4B9A4215D1CD
:101B300003F59C3301A90B481A6B42F001021A63AA
:101B40004FF480721B6B03F001030093009B022390
:101B5000CDE901230123059304F02AFE06B010BD50
:101B60000000014000000240F0B5002387B003935D
:101B7000294B1E68002E4DD10122022703250C247B
:101B80001A6001A9254B26489A6B42F001029A631C
:101B90009B6B03F001030093009B4FF68373CDE929
:101BA0000454CDE9013704F003FE48F2331301A9D0
:101BB0001C480594CDE90137CDE9036504F0F8FD33
:101BC0004CF2037301A918480594CDE90137CDE91A
:101BD000036504F0EDFD4FF63F0301A9134805949A
:101BE000CDE90137CDE9036504F0E2FD282301A921
:101BF0000F480594CDE90137CDE9036504F0D8FD20
:101C0000082301A90B480594CDE90137CDE9036507
:101C100004F0CEFD07B0F0BDC01300200038024034
:101C20000010024000180240000C02400014024064
:101C3000001C02400008024010B5014688B0002296
:101C4000362004F07BFB362004F0AAFB144B01A9DC
:101C500003A81A6C134C42F010021A641B6C03F0B8
:101C600010030293029B06F06FFA06F05DFA0E4B2A
:101C70004000236040F2E733E3600C4BB0FBF3F02D
:101C800001380023606020462361A36006F098FFBE
:101C900020B9204606F03CFE08B010BD0120FBE74D
:101CA00000380240C41300200010004040420F00E2
:101CB0007047FEE7FEE7FEE7FEE7704770477047B4
:101CC00070470000014806F065BE00BF6C1300209D
:101CD000014806F05FBE00BFC4130020014805F0B4
:101CE0009FBB00BFF8110020014804F08EBC00BF6C
:101CF000681100200120704708B520F027FB16234B
:101D000003604FF0FF3008BD08B520F01FFB16231D
:101D10000360FEE770B50D4614460E46731B9C42E9
:101D200001DC204670BDAFF3008006F8010BF5E73B
:101D300070B50D4614460E46731B9C4201DC2046CE
:101D400070BD16F8010BAFF30080F5E74FF0FF30E0
:101D500070474FF4005300204B60704701207047DC
:101D6000002070470B4A0346116810B509B90A49AB
:101D70001160106809490A4C0344091B8B4206D9BB
:101D800020F0E4FA0C2303604FF0FF3010BD136025
:101D9000FCE700BF10140020D8DE00200000052062
:101DA000000A0000DFF834D0002103E00C4B5B5840
:101DB000435004310B480C4B42189A42F6D30B4A5D
:101DC00002E0002342F8043B094B9A42F9D304F0A5
:101DD00083F920F0C1FAFFF7F9F8704700000520F9
:101DE000288B0208000000201801002018010020A4
:101DF000D4DE0020FEE700F01FBC00F091BC40687C
:101E000070474160704700004FF0E022D2F8FC3D7F
:101E100043F08073C2F8FC3D054B064AD3F8B01F6F
:101E20000A43C3F8B02F1A6842F001021A607047E3
:101E3000001000E055CEACC5511A01EB5301B1FBC7
:101E4000F3F07047014B5868704700BF001000E086
:101E5000704710B504460C211FF0B3FF204610BD9B
:101E6000036810B51B69044631B19847A2686368DE
:101E70009B1A1844606010BD9847A060FBE7000003
:101E8000024B7020024A1360DB68184710000020E4
:101E900014140020704710B5044604211FF091FF70
:101EA000204610BD37B50A4D0C462B6813B90020EB
:101EB00003B030BD1B69702001929847019900283A
:101EC000F5D02B68702022465B6998470120EFE728
:101ED000141400207FB501238DF817204FF47A7277
:101EE000CDE901320DF1170200920A46014605487C
:101EF00004F0E7FF10B1034804F0CAFF07B05DF833
:101F000004FB00BFAC1100207FB500230A464FF44C
:101F10007A718DF817300123CDE901310DF11701E8
:101F200000910146054805F083F810B1034804F01C
:101F3000AFFF9DF8170007B05DF804FBAC1100205F
:101F4000704770477047012380F8741080F875302F
:101F5000704700207047000041640039024B18BFF1
:101F600001211970704700BFD3DA002000207047AC
:101F7000836B0BB10846184770474FF6FF707047E8
:101F8000406803689B6918477047000038B50446ED
:101F900000F09EFC23682046D3F88850074BD4E914
:101FA0000F12A8470023064D84F84A302846FFF751
:101FB0002BFF0123256184F86C3038BD000000C080
:101FC0001814002000F06CBC00F070BC70B500F07C
:101FD000B3FC10490023C1F88430BFF34F8FD1F810
:101FE000803043F6E074C3F3C900C3F34E335B01A2
:101FF00003EA0406024646EA8275013AC1F87452C1
:10200000F9D2203B13F1200FF2D1BFF34F8FBFF372
:102010006F8F70BD00ED00E000F09CBC00F01CBCB8
:1020200000F09ABC00F0A2BC00F020BC10B5044641
:1020300008F012FB23682046D3F8AC30BDE810400E
:10204000184707F087BC10B504467C211FF0B9FE85
:10205000204610BD90F877301BB1406803681B68BC
:10206000184718467047000090F834100D4B10B513
:1020700090F874401A788C4209D03AB90A490B4A50
:1020800008881488108001220C801A7010BD002A64
:10209000FCD0064A0449148808880C80108000226D
:1020A000F3E700BFCCDA0020CADA0020C8DA00204B
:1020B00070B50D46194635B9094B40F2BB21094AA6
:1020C00009481FF0ADFEC0E90F52003A074B18BF98
:1020D00001221A700368BDE87040D3F88C301847AD
:1020E000E42E02081C2F02086A2F0208D2DA002010
:1020F00008B5094B1B888B4203D8084B1B889342B9
:1021000005D9074B9E21074A07481FF089FE074B58
:102110001980074B1A8008BDC8DA0020CADA0020EF
:10212000AF2F0208123002086A2F0208CEDA002010
:10213000D0DA0020034B00225A609A60024A1A60EB
:10214000704700BF18140020AC2E02080023024A7A
:102150001360024A136070472414002028140020E2
:10216000034B1A68002AFCD101221A60704700BF95
:1021700024140020014B00221A6070472414002010
:10218000014B01221A60704724140020014B0022E9
:102190001A60704724140020014B01221A60704716
:1021A00028140020014B00221A60704728140020D8
:1021B000024B1868003818BF01207047281400200F
:1021C000054B1A6832B100221A60044B1868036884
:1021D0001B6F1847704700BF28140020D4DA002076
:1021E00003685B6C18470120704703689B6A1847B7
:1021F0000D4B82B01A6B42F400021A631A6B02F4A0
:1022000000020192019A1A6942F400021A611A69E5
:1022100022F400021A61054B054A1A614FF08062F0
:10222000044B9A6002B070470038024068110020E9
:102230007922000800E100E040F2EF307047000032
:10224000054B4FF080620360044BC3F88820BFF356
:102250004F8FBFF36F8F7047B032020800E100E08C
:1022600010B504464FF45A61FFF7EAFF20461FF00D
:10227000A8FD204610BD0000024B1B68586803688B
:102280005B691847D4DA002070B504460A4B0C305D
:1022900000262546602260602672667245F8203B63
:1022A000294608F041FB04F55A63EE602435AB4241
:1022B000FBD1204670BD00BFB032020808B50B2923
:1022C0000BD8DFE801F01206100A0A0A0A0808080B
:1022D0000808012008BD0520FCE7054B6621054ADA
:1022E00005481FF09DFD0020F4E70220F2E700BF43
:1022F000303102084B3102089531020808B50A292D
:1023000009D8DFE801F010060E08080808060606DE
:102310000600012008BD054B8721054A05481FF02E
:102320007FFD0020F6E70220F4E700BF303102080D
:1023300004320208953102082DE9F84391F81D8016
:102340000C4607464146FFF7B9FF94F81E90054634
:1023500038464946FFF7B2FF494606463846FFF77A
:10236000CDFFA18A628B434B521A1A649A61228B69
:10237000521A1A61E28A586342EA014220695A6499
:102380006268D863DA602768802F28D0227F0FD850
:10239000202F65D0402F63D0042F1AD045EA026564
:1023A000344BC84545F40035DD615FD0324A44E026
:1023B000B7F5807F04D0B7F5007FEFD12F4900E05B
:1023C0002F4941EA0262DA61E2681A625E6258618C
:1023D00032E045EA026242F40032DA61F6E7A768C9
:1023E0003A1DDA62217F3A7845EA016545F4003505
:1023F000DD615E62586142B1012A21D0214B40F279
:102400001111214A21481FF00BFDDA69798822F465
:102410007F42013922F0100242EA01220121DA61F1
:10242000144BDA6942F02002DA61DA699206FCD4D0
:1024300010229A600029B9D0154A1A60BDE8F883C5
:10244000DA69FF39788822F47F4218BF0121013808
:1024500022F0100242EA002242F01002DA61DFE7C5
:1024600045EA0262034B42F40032B6E740F2012231
:10247000E3E700BF00B002400102010009000200D2
:102480000A0002004F320208693202089531020840
:102490000102020038B50C46897FFFF72FFF174B6A
:1024A000A58AE28A586342EA054221695A64628B2E
:1024B000D963521B1A642568082D0ED19A611A61DE
:1024C00058620F4A207F42EA0062DA61E2681A62CB
:1024D0000C4A5961D9601A6038BD0022D8611A616E
:1024E000E1680A0A4809C1F3C40102F4784200F421
:1024F000FC6002430A439A63034AECE700B00240DF
:1025000009000100010202000102030001207047DE
:102510000C2070470C2303FB0100083070470C238C
:1025200003FB010008307047012070474BF2684000
:1025300070474BF2684303FB0100083070474BF2D1
:10254000684303FB010008307047012070471020EA
:10255000704700EB01100830704700EB01100830A5
:102560007047084600F04ABB034B10B504460360B1
:1025700006F01AFF204610BD6833020810B5044665
:10258000FFF7F2FF142120461FF01BFC204610BD70
:10259000034B10B50446036006F006FF204610BD4D
:1025A0003433020810B50446FFF7F2FF4BF27041D6
:1025B00020461FF006FC204610BD0000034B10B55E
:1025C0000446036006F0F0FE204610BD003302080A
:1025D00010B50446FFF7F2FF182120461FF0F1FB6B
:1025E000204610BD094B10B50446036000F5344089
:1025F0009C30FFF7B9FF04F12C00FFF7C9FF04F18D
:102600001400FFF7DBFF204610BD00BF9C3302081B
:1026100008B50248FFF7E6FF08BD00BF30140020F0
:1026200010B50446FFF7DEFF4BF20C6120461FF0A9
:10263000C8FB204610BD00002DE9F34100F010FA60
:102640000024054600F010FA23460146224628469B
:10265000009411F029FE264B264A2046264D1A608A
:1026600003F086F9254811F06BFD2B68BFF35B8FF3
:10267000DB0736D428461FF0A6FB90B3204C214F31
:10268000214B04F1140007F1180604F12C08236013
:102690006060C4F80880E760266106F087FE1B4B87
:1026A0004046636106F082FE194B3846E36206F04D
:1026B0007DFE04F53043174A03F59660C3F89C2469
:1026C00003F0E2F9224607F11401304603F0D2F993
:1026D000304600F093FA10481FF0C0FB28461FF068
:1026E0007EFB0E4802B0BDE8F041FFF74FBC00BFD3
:1026F00050DB00205CD800202C14002008000020B3
:1027000030140020CCC800209C330208003302089B
:10271000343302086833020811260008E0D700208D
:1027200008B5FFF745FD38B1044807F095FF0348A9
:10273000BDE8084007F084B908BD00BFE0D700201D
:1027400070B5234E234B244C3046244D2360FFF7B5
:102750009BFD284614F056FF214B00224FF4807158
:1027600020481A861A6683F86C201A67DC60C3E971
:1027700012121D49C3E919124FF0807159670121E6
:1027800083F8781019490B604FF4F07101801848F4
:1027900001804FF488711748C3E90422C3E9062277
:1027A000C3E90822C3E90A22C3E90E22C3E91022C1
:1027B000C3E91422C3E91622C3E9016501800E486A
:1027C00083F8342001800D490A700D4A1A6070BDEB
:1027D00040CA0020D42E02083CCA002060D8002045
:1027E000E0D70020C8DA002001000001D4DA002080
:1027F000CEDA0020CADA0020D0DA0020CCDA0020BD
:10280000603002080148FFF71BBD00BF40CA00202E
:102810001049002370B5C1F88430BFF34F8FD1F851
:10282000803043F6E074C3F3C900C3F34E335B0159
:1028300003EA0406024646EA8275013AC1F8745278
:10284000F9D2203B13F1200FF2D1BFF34F8FBFF32A
:102850006F8F70BD00ED00E0034B902283F85A2388
:1028600083F85823704700BF00E100E0094A0A4995
:10287000D3680A48C3F30A03013B9BB20B8011697A
:10288000C1F30A01013901801364536B43F0010362
:102890005363704700680140DCD80020DAD800207C
:1028A000014BD3F8AC00704700680140024B012295
:1028B000C3F8AC105A62704700680140034B5B6973
:1028C000DB0301D5FFF7A4BF704700BF00ED00E0B8
:1028D00070B5044607F093F823685D6E0DF0D0FDE7
:1028E00001462046A84723682046D3F88030984701
:1028F000236820469B6F98472368054A2046D3F8F3
:1029000088500023A2F57F31AC46BDE87040604797
:1029100000F807C007F05AB808B590F84B3013B16B
:10292000044B01221A7007F05DF8BDE80840FFF77C
:1029300039BC00BFD8D8002008B507F011F8044B07
:102940005B69DB0303D5BDE80840FFF761BF08BD45
:1029500000ED00E007F06DB9034B4FF080629A6024
:102960004FF080729A60704700E100E0084B4FF032
:102970008062C3F88820BFF34F8FBFF36F8F4FF093
:102980008072C3F88820BFF34F8FBFF36F8F7047FB
:1029900000E100E010B5144C236823B3134B144A34
:1029A0001B6C11888B4213D1124B198804F0C2FDA5
:1029B000226892F86630013382F86630FFF7ECFB4C
:1029C000206807F049FE0020BDE81040FFF7B8BAC4
:1029D00004F0B0FD206803681B6A98470020BDE83A
:1029E0001040FFF7AEBA10BDD4DA002000680140F5
:1029F000DCD80020DAD80020704708B5072925D890
:102A0000DFE801F004080C1014181C2002F0FCFF91
:102A1000006808BD02F0F8FF4068FAE702F0F4FF32
:102A20008068F6E702F0F0FFC068F2E702F0ECFF22
:102A30000069EEE702F0E8FF4069EAE702F0E4FF30
:102A40008069E6E702F0E0FFC069E2E70020E0E726
:102A500010B5044604211FF0B4F9204610BD000053
:102A600000487047BC3302080720704713B50024A4
:102A700051B1036801AA01948DF803409C680DF1DF
:102A80000303A04702B010BD0846FBE7408970472A
:102A9000808970478088704783798288981880B2CF
:102AA0007047C07900F07F007047C079C009704757
:102AB000704710B5044608211FF083F9204610BD69
:102AC0007047704700F596730868496803C37047FC
:102AD000704770474160704770470000064BC0F870
:102AE0004401C0F848310023C0F84C3100F5A07310
:102AF000C0F83C31704700BF052F00080123037266
:102B000070477047704710B441680346C2689B68BD
:102B1000541001EB6200D20748BF0A595DF8044B1C
:102B200048BFD358184743682BB183682BB9C06896
:102B300000F001007047184670470120704710B53B
:102B400004460C211FF03DF9204610BD10B5044687
:102B500010211FF036F9204610BD10B504464FF481
:102B6000AC711FF02EF9204610BD08B50DF088FCA1
:102B7000BDE808400EF062B810B50446D0F83C013C
:102B800058B10368DB68984738B1D4F83C01036852
:102B90009B6898470023C4F83C3110BDF8B5044643
:102BA00017460E460DF0A4FC104B00251C6029466C
:102BB0000F4BC4E954760F4E236030680E4BC4E9C6
:102BC0005255C4E950350368C4E94E559B6898478F
:102BD000284602F0CDFE336893F876200AB1D86C0F
:102BE00000B9986816F059FB2046F8BD40DB00207C
:102BF000E0390208D4DA0020C8390208064BC0F8D0
:102C00004401C0F848310023C0F84C3100F5A073EE
:102C1000C0F83C31704700BF052F0008064BC0F8D4
:102C20004401C0F848310023C0F84C3100F5A073CE
:102C3000C0F83C31704700BFB52D0008064BC0F806
:102C40004401C0F848310023C0F84C3100F5A073AE
:102C5000C0F83C31704700BF652C000803685B6A10
:102C6000184700002DE9F14FD0E9545A0746A868EB
:102C700003681B6A98474BF26743984205D8454B57
:102C8000A321454A45481FF0CBF8686803681B6AD2
:102C900098470F2803D8424BA4213F4AF2E7E8683F
:102CA00003681B6A98470B2803D83E4BA5213A4A74
:102CB000E8E7DFF8F8900DF0E3FB0DF0FDFBD9F845
:102CC000000010B10368DB689847D9F8000010B124
:102CD00003681B689847DFF8D880D8F8000010B167
:102CE00003685B699847D7F8380110B103685B68DF
:102CF0009847D8F8000010B103681B689847D7F8C8
:102D0000380110B103689B6898470021E868FFF715
:102D1000A5FF4FF0000B244B0446C0F804B0594601
:102D2000036080F808B0A86803685B6A98470646A5
:102D300002F0F8FF6868594603685B6A98470546E1
:102D4000314602F049FFC9F80040C7F83851C8F8C9
:102D50000060E5B12B1DCAF8003030463368C5F875
:102D600008A0DB68F56398472B6828461B689847DE
:102D7000214630460FF024F8236820461B69984707
:102D8000236820465B6901B0BDE8F04F18472B4629
:102D9000E1E700BF58340208E6340208F8350208BB
:102DA0003F360208E23602082C3A020834DB0020E3
:102DB00030DB00202DE9F14FD0E9545A0746A868CE
:102DC00003681B6A984740F29363984205D8454BC5
:102DD000A321454A45481FF023F8686803681B6A29
:102DE00098470F2803D8424BA4213F4AF2E7E868EE
:102DF00003681B6A98470B2803D83E4BA5213A4A23
:102E0000E8E7DFF8F8900DF03BFB0DF055FBD9F843
:102E1000000010B10368DB689847D9F8000010B1D2
:102E200003681B689847DFF8D880D8F8000010B115
:102E300003685B699847D7F8380110B103685B688D
:102E40009847D8F8000010B103681B689847D7F876
:102E5000380110B103689B6898470021E868FFF7C4
:102E6000FDFE4FF0000B244B0446C0F804B0594659
:102E7000036080F808B0A86803685B6A9847064654
:102E800002F05AFE6868594603685B6A984705462F
:102E9000314602F00BFEC9F80040C7F83851C8F8B7
:102EA0000060E5B12B1DCAF8003030463368C5F824
:102EB00008A0DB68F56398472B6828461B6898478D
:102EC000214630460EF07CFF236820461B69984758
:102ED000236820465B6901B0BDE8F04F18472B46D8
:102EE000E1E700BF5834020885370208F8350208C8
:102EF0003F360208E23602082C3A020834DB002092
:102F000030DB00202DE9F14FD0E9545A0746A8687C
:102F100003681B6A984741F67753984205D8454B9A
:102F2000A321454A45481EF07BFF686803681B6A79
:102F300098470F2803D8424BA4213F4AF2E7E8689C
:102F400003681B6A98470B2803D83E4BA5213A4AD1
:102F5000E8E7DFF8F8900DF093FA0DF0ADFAD9F844
:102F6000000010B10368DB689847D9F8000010B181
:102F700003681B689847DFF8D880D8F8000010B1C4
:102F800003685B699847D7F8380110B103685B683C
:102F90009847D8F8000010B103681B689847D7F825
:102FA000380110B103689B6898470021E868FFF773
:102FB00055FE4FF0000B244B0446C0F804B05946B0
:102FC000036080F808B0A86803685B6A9847064603
:102FD00002F0EAFD6868594603685B6A984705464F
:102FE000314602F0C7FDC9F80040C7F83851C8F8AB
:102FF0000060E5B12B1DCAF8003030463368C5F8D3
:1030000008A0DB68F56398472B6828461B6898473B
:10301000214630460EF0D4FE236820461B699847AF
:10302000236820465B6901B0BDE8F04F18472B4686
:10303000E1E700BF58340208A1380208F835020859
:103040003F360208E23602082C3A020834DB002040
:1030500030DB0020006A7047406A704770478B88F9
:103060008069DB0A0A6850F823001044704710B5E5
:10307000C2B1137BB3B1547BD27A240204F4E0646E
:103080001443C26998B202EB840213888B4202D1C6
:1030900092F9020010BD05D80138043280B2002830
:1030A000F3D1F7E70020F5E710B5044628211EF01C
:1030B00088FE204610BD000030B589B00446BDF83A
:1030C00050500695BDF84C5005959DF8405004951C
:1030D0009DF83C5003959DF8385002959DF834506A
:1030E00001959DF8305000950EF0F8F9064B2046FA
:1030F0002360119BA361129BE361159B2362169BC6
:10310000636209B030BD00BF503A0208002070472A
:1031100081807047C180704701817047418170474D
:103120007047704770477047704710B4C488036891
:10313000121B84885B6D091B12B25DF8044B09B247
:1031400018474FF6FF7383814FF0FF330362136814
:10315000C361106070477047704770477047704791
:1031600090F825201AB190F8242002B11860704719
:1031700030B585B00368044601816D460146D3F839
:1031800084303C342846984795E8070084E80700D7
:1031900005B030BD30B585B00368044641816D4649
:1031A0000146D3F884303C342846984795E8070018
:1031B00084E8070005B030BD002202804280828092
:1031C000C280704780F836107047036870B50446B7
:1031D0001B6B154698472368204629465B6EBDE861
:1031E0007040184700207047806C704770477047E8
:1031F00070477047704770477047704730B44468F5
:103200000346C2689B68551004EB6200D20748BFB2
:10321000625930BC48BFD358184743682BB1836804
:103220002BB9C06800F001007047184670470120B4
:10323000704710B504464C211EF0C3FD204610BD5A
:1032400010B5044610211EF0BCFD204610BD10B57F
:10325000044640F28C611EF0B4FD204610BD90F88B
:10326000252012B103685B69184770470368828D97
:1032700070B55E6B0446114B8DB21B682BB9104BB9
:10328000AE21104A10481EF0CBFD1049098891422A
:1032900003D80F4BAF210B4AF4E713F812200D4B64
:1032A0001B6853F822000368DB6A9847281A3346E4
:1032B00001B22046BDE87040184700BF44DB002043
:1032C000A03A0208E23A0208103B020848DB00205C
:1032D000573B02084CDB002000F19803994210B5DF
:1032E000044605D10DF0CCF8BDE81040FFF7A6BCB0
:1032F00000F53973994204D103681B6BBDE8104097
:10330000184700F55373994202D103685B6BF5E7E8
:1033100000F20463994206D10368DB6A9847236888
:1033200020469B6BEAE710BD00224FF0FF31826020
:10333000C0E900217047036870B504461B6B154651
:1033400098472368204629465B6BBDE870401847C4
:1033500070B504461D46BDF91060FFF7ECFF236809
:10336000294620469B6B9847236831462046DB6BF5
:10337000BDE87040184700000022C0E90122C0E902
:103380000322C0E90522C0E907224FF4807282843B
:10339000014A0260704700BFA03B020810B5044616
:1033A000262200211EF02FFF2046FFF7E5FF044BE9
:1033B00020462360FF2384F826300023A36210BD3B
:1033C0000C6B020810B50446262200211EF01BFFDC
:1033D0002046FFF7D1FF00232046A36284F82C305B
:1033E000012384F82430044B23604FF6FF73E385F8
:1033F000238684F8323010BDD86B020810B504461D
:10340000262200211EF0FFFE2046FFF7B5FF0A4BE3
:103410004FF47F0220462360084BA3624FF6FF73F0
:10342000A3850023C4E90C324FF0FF322387E36306
:10343000C4E9102310BD00BF4C6A020850340208D2
:1034400010B50446FFF7DAFF024B20462360002345
:10345000A36410BD083C02082DE9F04F0446002784
:103460004FF488754FF0110804F57F7A04F29C49F7
:1034700004F59D6B2DED108B97B00EF0F5FA2246FA
:10348000DC4B14AEE76342F8403B104608EE102ACE
:10349000FFF784FF04F16C0318460693FFF77EFFE5
:1034A00004F1980318460CEE103A0AF007FD04F1F7
:1034B000D403184608EE903AFFF7A0FF04F58E7388
:1034C000184609EE103AFFF799FF04F5B273184653
:1034D00009EE903AFFF792FF04F5D67318460AEE0C
:1034E000103AFFF78BFF04F5FA7318460793FFF7BE
:1034F00055FF04F5087318460893FFF74FFF04F5CE
:10350000137318460AEE903AFFF79AFF04F52673F4
:1035100018460BEE103AFFF793FF04F5397318467F
:103520000CEE903AFFF74EFF04F5467318460DEE89
:10353000103AFFF747FF04F5537318460DEE903A23
:10354000FFF740FF04F5607318460EEE103AFFF7E0
:1035500039FF04F56D7318460BEE903AFFF74EFFF6
:103560005046FFF74BFF04F2444318460993FFF718
:1035700015FF04F58E6318460A93FFF70FFF4846C0
:10358000FFF75EFF5846FFF75BFF04F2345318461F
:103590000EEE903AFFF716FF04F5AD6318460FEEF6
:1035A000103AFFF70FFF04F29C5318460FEE903AC3
:1035B000FFF708FF04F5BA6318460393FFF702FF0D
:1035C00004F2046318460493FFF7FCFE8A4B3A4664
:1035D0003946C4F87C3618EE100A884B0095C4F8BA
:1035E00084364FF4F073C4F88046C4F88876FFF749
:1035F000AFFE4FF07F433A4639460698A3664FF434
:10360000F07300950CADFFF7A3FE4FF0FF337F2260
:103610004FF4D2711CEE100AC4F89430FFF78BFE01
:10362000012312AA11A91CEE100AADF84C30ADF816
:10363000503013AB0096ADF84470ADF848700AF006
:103640009AFB6F4B0B22112118EE900AC4F8D03070
:1036500004F27C630593C4F8C0301E230093E42376
:10366000FFF776FE674B18EE901A2846C4F804312F
:10367000A4F8087109F04EFD04F5887395E8070079
:1036800083E80700604B4FF01202314618EE900AB3
:103690001493ADF854200AF08FF81D22DE23142174
:1036A00019EE100A00922922FFF752FE4FF07F42D6
:1036B00019EE101A2846C4F84C21A4F8507109F0EC
:1036C00029FD04F5AC7395E8070083E807004E4B2D
:1036D000314619EE100AADF8548014930AF06CF8D4
:1036E0001F2241464FF4827319EE900A00928F22F6
:1036F000FFF72EFE454B19EE901A2846C4F8943178
:1037000004F5C768A4F8987109F004FD04F5D073B6
:1037100095E8070083E807003B4B314619EE900A15
:1037200014931023ADF854300AF046F81D22782384
:103730004FF490711AEE100A00922922FFF708FE4A
:103740004FF07F421AEE101A2846C4F8DC21A4F884
:10375000E07109F0DFFC04F5F47395E8070083E8F5
:103760000700294B31461AEE100A14934FF00F034D
:10377000ADF854300AF020F846221F23079811466E
:1037800000937B23FFF7E4FD214B1F2240F21F1122
:103790000898C4F81C327B2300924622FFF7D8FD1C
:1037A0001B4B4C226521C4F8483212231AEE900AB2
:1037B00000933D23FFF7CCFD4FF07F431AEE901AA4
:1037C0002846C4F87C32D4F84C32A4F88072D3F87E
:1037D0008430984704F5227395E8070083E80700D2
:1037E0000C4B1B68F3B90C4BAE210C4A0C481EF075
:1037F00017FB00BFB03C0208983C0208D932000811
:1038000016000F002BCF4CFF503402081818EDFFA4
:10381000AD8F57FF44DB0020A03A0208E23A0208CD
:10382000103B0208034B1B880D2B09D8024BAF211C
:10383000024ADBE748DB0020573B0208E23A020875
:10384000E04B0D21186802F0CFF8DF4A034604214F
:10385000404610F0ADFADD4B31461AEE900A149353
:103860000E23C4F8948204F5C868ADF8543009F00A
:10387000A3FF12214C223D231BEE100A00914FF4AE
:103880009F71FFF765FD4FF07F41D4F898322846CD
:10389000C4F8C8121BEE101AD3F88430A4F8CC7206
:1038A000984704F5357395E8070083E80700C84991
:1038B0000B68002B97D0C74803880B2BB6D9C14A99
:1038C0000B21106802F090F8BF4A03460A214046D7
:1038D00010F06EFABD4B31461BEE100A14930C2308
:1038E000C4F8E0824FF00508ADF8543009F064FFE9
:1038F0006E2246211CEE900AFFF71DFD0DF14C0CC7
:1039000032461CEE900A6146ADF84C80ADF850800E
:1039100009F0B0FF059A4FF490711DEE100AC4F83B
:103920000C236E22FFF707FD0DF14C0C32461DEE05
:10393000100A6146ADF84C80ADF8508009F09AFF4E
:103940006E22A2211DEE900AFFF7F5FC0DF14C0E40
:103950004FF0020C324671461DEE900AADF84CC095
:10396000ADF850C009F086FF059A4FF4BE711EEE07
:10397000100AC4F874236E22FFF7DDFC0DF14C0E23
:103980004FF0020C324671461EEE100AADF84CC0E4
:10399000ADF850C009F06EFF4FF01D0EDE23AE22D1
:1039A0000F211BEE900ACDF800E0FFF7D1FC4FF09D
:1039B0007F4E1BEE901A2846C4F8E4E3A4F8E8739F
:1039C00009F0A8FB04F57C734FF00A0E95E8070098
:1039D00083E807007D4B31461BEE900AADF854E0BA
:1039E000149309F0E9FE4FF01D0E7823AE2240F249
:1039F0001B115046CDF800E0FFF7AAFC4FF07F4EB8
:103A000051462846C4F82CE4A4F8307409F082FB2F
:103A100004F5876395E8070083E807006B4B3146A0
:103A2000504614930923ADF8543009F0C5FE4FF009
:103A30001F0E7B23CB2241210998CDF800E0FFF730
:103A400087FC4FF01F0E644A7B234FF48D710A9858
:103A5000C4F86C24CB22CDF800E0FFF779FC4FF0DE
:103A6000120E5D4A3D2360214846C4F89824D122B5
:103A7000CDF800E0FFF76CFC4FF07F4ED4F89C349B
:103A800049462846C4F8CCE4D3F88430A4F8D0746E
:103A9000984704F59B6304F2546E95E8070083E8A9
:103AA00007004B49CDF82CE00B68002B3FF49BAE90
:103AB00048480388072B7FF6B9AE424A07211068B1
:103AC00001F092FF404A03460A210B9810F070F96A
:103AD0003E4B0B9A3146149308234846C4F8E4241D
:103AE000ADF8543009F068FE4FF0120ED1223D239C
:103AF00040F239115846CDF800E0FFF729FC4FF0AD
:103B00007F4ED4F8E83428465946C4F818E5D3F86F
:103B10008430A4F81C75984704F2245395E80700F4
:103B200083E807002A4904F5CD650B68002B3FF4B4
:103B30005AAE2848038843457FF678AE214A41466D
:103B4000106801F051FF204A03460A21284610F070
:103B50002FF91E4B3146584614930623C4F83055AE
:103B6000ADF8543009F028FE1EEE900AF3224121F0
:103B7000FFF7E1FB324613A91EEE900AADF84C8028
:103B8000ADF8508009F076FE1FEE100AF32240F2E5
:103B90001B11FFF7D0FB324613A91FEE100AADF838
:103BA0004C80ADF8508009F065FE1FEE900AF322BC
:103BB0009D21FFF7C0FB4FF0020C324613A91FEE08
:103BC000900A0BE050DB0020953B020850340208BD
:103BD00044DB002048DB0020AD8F57FF6546ADF881
:103BE0004CC0ADF850C009F045FE0398F32240F2F6
:103BF0007711FFF7A0FB324613A90398ADF84C509C
:103C0000ADF8505009F036FE0498C8224FF4D27136
:103C1000251DFFF790FB324613A90498ADF84C70B0
:103C2000ADF8507009F026FE059B18EE101A2846D4
:103C3000C4F82C3605F03CFC0699284605F038FC03
:103C40001CEE101A284605F033FC18EE901A284690
:103C500005F02EFC19EE101A284605F029FC19EE85
:103C6000901A284605F024FC1AEE101A284605F092
:103C70001FFC0799284605F01BFC0899284605F00B
:103C800017FC1AEE901A284605F012FC1BEE101ACB
:103C9000284605F00DFC1CEE901A284605F008FC9D
:103CA0001DEE101A284605F003FC1DEE901A28465A
:103CB00005F0FEFB1EEE101A284605F0F9FB1BEE80
:103CC000901A284605F0F4FB5146284605F0F0FB13
:103CD0000999284605F0ECFB0A99284605F0E8FB0F
:103CE0004946284605F0E4FB5946284605F0E0FB26
:103CF0001EEE901A284605F0DBFB1FEE101A284630
:103D000005F0D6FB1FEE901A284605F0D1FB03996B
:103D1000284605F0CDFB2846049905F0C9FB20464E
:103D200017B0BDEC108BBDE8F08F00BF7047704737
:103D30000923A0F85431704710B5044641F6785174
:103D40001EF03FF8204610BD08B5B0F8543153B10D
:103D5000013B9BB2A0F854312BB90CF091FBBDE8AC
:103D60000840FEF75BBF08BD2DE9F04F04468BB05D
:103D700000250DF079FEA1465A4B04F16C0A04F1BE
:103D80009806E5634FF6FF7749F8403B4846FFF752
:103D900005FB5046FFF702FB262229463046ADF8C8
:103DA00020701EF030FA304604F1C408FFF7E4FA40
:103DB0004D4B08A93046C4F898304FF4887BBDF8C5
:103DC000203084F8C07004F58677A4F8BE300AF07D
:103DD0009CF84046FFF712FB3846FFF70FFB04F54F
:103DE000AB704FF4E151A4F854510AF005FA2A4699
:103DF00029464846CDF800B04FF4F073FFF7A8FA13
:103E00004FF07F432A4629465046A366CDF800B0BE
:103E10004FF4F073FFF79CFA4FF0FF339B223046CC
:103E2000C4F894308B21FFF786FA062308A93046A0
:103E3000ADF820300AF069F81E22404657210DF1F6
:103E4000100BFFF778FA4FF07F4341465846C4F80D
:103E5000F430A4F8F85009F05DF904F580739BE89C
:103E6000070083E80700214B012208A94046089378
:103E7000ADF8242009F0A0FC7D2238465A21FFF736
:103E80005AFA4FF07F4339465846C4F83C31A4F8FB
:103E9000405109F03FF904F5A47C144B9BE807005E
:103EA0008CE8070008A938460893ADF8245009F0BB
:103EB00083FC201D4946039005F0FAFA5146039809
:103EC00005F0F6FA3146039805F0F2FA41460398F8
:103ED00005F0EEFA0398394605F0EAFA20460BB0F1
:103EE000BDE8F08FF43C0208C46D020850340208AB
:103EF000806A7047006B7047406B704780F82C10E9
:103F0000704710B40368046BD3F8A4306243614374
:103F10005DF8044B1847D0ED0C7A0368F8EEE77AA9
:103F200010B420EE270AD3F8A440B5EEC00AF1EE93
:103F300010FA1ADBB6EE007A30EE070ABDEEC07A50
:103F400017EE101A60EEA70AF5EEC00AF1EE10FAAD
:103F50001EDBF6EE007A70EEA70AFDEEE07A17EEB1
:103F6000902A23465DF8044B1847BDEEC07AF8EE60
:103F7000C76A17EE103A013B30EE660AF7EE086AA0
:103F800030EE260ABDEEC00A10EE101A1944D9E729
:103F9000FDEEE07AB8EEE77A17EE903A013B70EE6C
:103FA000C70AB7EE087A70EE870AFDEEE00A10EE57
:103FB000902A1A44D5E710B40368046BD3F8B030E4
:103FC00062435DF8044B1847D0ED0C7A0368F8EEB5
:103FD000E77A10B427EE800AD3F8B040B5EEC00AF5
:103FE000F1EE10FA0BDBF6EE007A30EE270AFDEE6A
:103FF000C07A17EE902A23465DF8044B1847FDEE71
:10400000C07AB8EEE77A17EE903A013B30EE470AF5
:10401000B7EE087A30EE070ABDEEC00A10EE102A9D
:104020001A44E8E710B40368446BD3F8BC30624329
:1040300061435DF8044B1847D0ED0D7A0368F8EE44
:10404000E77A10B420EE270AD3F8BC40B5EEC00AD8
:10405000F1EE10FA1ADBB6EE007A30EE070ABDEE8A
:10406000C07A17EE101A60EEA70AF5EEC00AF1EE5C
:1040700010FA1EDBF6EE007A70EEA70AFDEEE07A8B
:1040800017EE902A23465DF8044B1847BDEEC07A20
:10409000F8EEC76A17EE103A013B30EE660AF7EE0B
:1040A000086A30EE260ABDEEC00A10EE101A194456
:1040B000D9E7FDEEE07AB8EEE77A17EE903A013BE9
:1040C00070EEC70AB7EE087A70EE870AFDEEE00AD6
:1040D00010EE902A1A44D5E710B40368446BD3F865
:1040E000C03062435DF8044B1847D0ED0D7A036889
:1040F000F8EEE77A10B427EE800AD3F8C040B5EEA8
:10410000C00AF1EE10FA0BDBF6EE007A30EE270A69
:10411000FDEEC07A17EE902A23465DF8044B18474F
:10412000FDEEC07AB8EEE77A17EE903A013B30EE3A
:10413000470AB7EE087A30EE070ABDEEC00A10EE65
:10414000102A1A44E8E7D0F82C31026B002B07DB69
:1041500002EB430090FBF2F000EBD0704010704790
:104160006FF0010101FB0320013890FBF2F000EB3E
:10417000D070401040427047D0ED4B7A90ED0C0A61
:10418000F8EEE77AB8EEC00A87EE800A7047D0F8FA
:104190002C017047D0F83031026B002B07DB02EBAB
:1041A000430090FBF2F000EBD070401070476FF0CE
:1041B000010101FB0320013890FBF2F000EBD0700D
:1041C000401040427047D0ED4C7A90ED0C0AF8EE6A
:1041D000E77AB8EEC00A87EE800A7047D0F830015F
:1041E0007047D0F83431426B002B07DB02EB430001
:1041F00090FBF2F000EBD070401070476FF00101BF
:1042000001FB0320013890FBF2F000EBD07040106E
:1042100040427047D0ED4D7A90ED0D0AF8EEE77A06
:10422000B8EEC00A87EE800A7047D0F834017047B4
:10423000D0F83831426B002B07DB02EB430090FBD8
:10424000F2F000EBD070401070476FF0010101FBFD
:104250000320013890FBF2F000EBD0704010404298
:104260007047D0ED4E7A90ED0D0AF8EEE77AB8EE91
:10427000C00A87EE800A7047D0F83801704703689B
:1042800070B50446D3F888300D4616469847236823
:10429000324629462046D3F89030BDE87040184792
:1042A0000368D3F8943018470368D3F8D43018471C
:1042B0000368D3F8E03018470368002A10B4D3F835
:1042C000A430046B0EDB04EB420292FBF4F101EB31
:1042D000D1714910B0F91E215DF8044B013A0A442E
:1042E000494218476FF0010101FB0241013991FB7E
:1042F000F4F101EBD17149104942EBE70368D3F8BF
:104300003C311847026B03685143D3F848311847D2
:104310000368D3F844311847D0ED0C7A0368F8EEFF
:10432000E77AD3F8482127EE800AB5EEC00AF1EE0D
:1043300010FA08DBF6EE007A30EE270AFDEEC07ABE
:1043400017EE901A1047FDEEC07AB8EEE77A17EE36
:10435000903A013B30EE470AB7EE087A30EE070A92
:10436000BDEEC00A10EE101A1944EBE7C0F83C117C
:1043700070470368D3F850311847036810B5D3F875
:104380005C31044698470028236B07DB03EB4000B1
:1043900090FBF3F000EBD070401010BD6FF0010205
:1043A00002FB0030013890FBF3F000EBD0704010BE
:1043B0004042F2E70368D3F858311847036810B554
:1043C000D3F85C310446984707EE900AB8EEE70A46
:1043D000D4ED0C7AF8EEE77A80EE270A10BDD0F81B
:1043E0003C017047026B03685143D3F868311847AA
:1043F000D0ED0C7A0368F8EEE77AD3F8682127EE5F
:10440000800AB5EEC00AF1EE10FA08DBF6EE007A8B
:1044100030EE270AFDEEC07A17EE901A1047FDEE37
:10442000C07AB8EEE77A17EE903A013B30EE470AD1
:10443000B7EE087A30EE070ABDEEC00A10EE101A89
:104440001944EBE7C0F840117047036810B5D3F882
:104450007431044698470028236B07DB03EB4000C8
:1044600090FBF3F000EBD070401010BD6FF0010234
:1044700002FB0030013890FBF3F000EBD0704010ED
:104480004042F2E7036810B5D3F874310446984708
:1044900007EE900AB8EEE70AD4ED0C7AF8EEE77A68
:1044A00080EE270A10BDD0F84001704708467047DB
:1044B00003680029026BD3F8843110B504460EDB83
:1044C00002EB410191FBF2F101EBD171491009B20C
:1044D00020469847D4E94F2302FB003010BD6FF00F
:1044E000010000FB0121013991FBF2F101EBD171D7
:1044F00049104942EBE7006B7047406B7047036817
:10450000D3F8483118470368D3F85C311847026B79
:1045100003685143D3F814311847036870B5D3F8D2
:1045200018510446D0F84461D3F8803198472B469F
:1045300056F820102046BDE87040184710467047D6
:10454000D0F83C21036852F82110D3F814311847F1
:10455000D0F84021036852F82110D3F818311847D9
:10456000D0F84831B0F91E011944081A704780F894
:104570002610704790F82600704701637047006B63
:1045800070470120704770477047006C18B103688E
:10459000D3F8843018477047B2F81A1130B5B2F921
:1045A0001441B2F940502144B2F842204480521ADA
:1045B000002185800180C28030BD10B54280BDF9E8
:1045C0000840BDF90C2004808280C38010BD0B68B8
:1045D0000846D3F8D43018470B680846D3F8E030C3
:1045E0001847B1F914017047B1F81431B1F81A2124
:1045F000B1F842001344C01A00B27047B1F9160175
:104600007047B1F81631B1F81821B1F840001344E1
:10461000C01A00B270470B6808461146D3F814312F
:10462000184730B5B2F91651B2F81841B2F8401037
:104630002C44B2F942200580091B0024C28044802A
:10464000818030BD02808380BDF90020BDF9043037
:104650004280C38070470B680846D3F8EC30184797
:104660000B680846D3F8F8301847B1F916017047BF
:10467000B1F81631B1F81821B1F840001344C01A4E
:1046800000B27047B1F914017047B1F81431B1F8B4
:104690001A21B1F842001344C01A00B270470B68E7
:1046A00008461146D3F818311847704770477047CD
:1046B00070477047704770477047704730B4446820
:1046C0000346C2689B68551004EB6200D20748BFDE
:1046D000625930BC48BFD358184743682BB1836830
:1046E0002BB9C06800F001007047184670470120E0
:1046F000704700F5E040A0F8481E704700F5E04024
:10470000B0F8480E704710B5044644211DF059FB1F
:10471000204610BD10B5044644211DF052FB204632
:1047200010BD10B5044641F208411DF04AFB204679
:1047300010BD10B5044647F660611DF042FB2046EF
:1047400010BD10B5044610211DF03BFB204610BDE6
:1047500010B504464BF240411DF033FB204610BD1E
:1047600090F82C300BB104F05FBE704713B50346D0
:104770000846D3E90D1403680191D3F88C309847AB
:1047800001990246204602B0BDE8104007F0D8B8B3
:1047900013B503460846D3E90D1403680191D3F815
:1047A0009430984701990246204602B0BDE8104077
:1047B00007F0C6B80A1E10B503DBB0F91E419442DB
:1047C00006DC084B40F23161074A08481DF028FB1F
:1047D0000368D0F84441D3F88031984754F820005A
:1047E00010BD00BF203D0208433D0208923D020873
:1047F0000B1E10B5044603DBB0F91E219A4206DCFD
:10480000074B40F22B61074A07481DF009FB03687C
:10481000D3F884319847D4E94F2302FB003010BD10
:10482000203D0208EF3D0208923D0208002908B52C
:1048300003DBB0F91E318B4206DC064B40F2EB6124
:10484000054A06481DF0ECFAD0F8403153F8210033
:1048500008BD00BF203D02083E3E0208923D02080E
:10486000002908B503DBB0F91E318B4206DC064B8C
:1048700040F2DB61054A06481DF0D2FAD0F83C311F
:1048800053F8210008BD00BF203D02088C3E0208FD
:10489000923D020800F516420C32914210B504D147
:1048A00003685B6BBDE81040184700F51642943270
:1048B000914202D103681B6BF4E700F51643DC3329
:1048C000994205D10BF0DCFDBDE81040FEF7A6B91A
:1048D00010BD2DE9F04100F5E044064694F8443E51
:1048E000002B54D0B4F8463EB4F8482E01339BB2A6
:1048F0009342A4F8463E4AD39B1AB4F8502ED4F8FB
:10490000547E00219DB2B4F84C3ED21A2846B4F829
:104910004A3E12B2B847B4F84E3EB4F8522E804622
:104920000021D4F8587ED21A2846B4F84A3E12B272
:10493000B847B4F84E3E1844B4F84C3E08EB0301B7
:1049400002B2304609B2FEF7F0FBB4F8483EB4F8C4
:104950004A1EB4F8462E0B449A4218D3002384F81A
:10496000443EA4F8463E0BF08BFD31460BF08EFD25
:10497000D4F85C0E58B10368DB68984738B1D4F8B6
:104980005C0E31460368BDE8F0419B681847BDE8FE
:10499000F08137B501AB15460CF09CFE00282A4685
:1049A00001994FEA40144FF0200004DB0CF0B1FEF7
:1049B000204403B030BD0CF0ACFE201AF9E770B50E
:1049C000B0F81A310E46B0F91441B0F84250234401
:1049D000ED1A2DB22C44691ED0E94D32013CD21A99
:1049E000F01AFFF7D6FFC0EB441070BD38B504468F
:1049F0000846B4F81631B4F818110B44B4F8401056
:104A0000C91AD4E94B5209B2521B401B0139FFF7B6
:104A1000C0FFB4F9163100EB431038BD70B5002368
:104A2000FF22144E044602724360134AC0E9033366
:104A30003368026093F876200AB1D86C00B99868A0
:104A40000368DB6A98473368B0FA80F5D86C6D0963
:104A500030B10368DB6A9847002808BF45F00105BC
:104A60002DB9064B2C21064A06481DF0D9F92046DF
:104A700070BD00BFD4DA00206C600208DA3E020884
:104A8000383F0208713F020810B5044606F0A4F949
:104A90000B4A0023204622600122236384F844301D
:104AA000A4F84630E364C4E90D23064AE2634FF6F6
:104AB000FF72A4F840202E22A4F8482010BD00BFA9
:104AC00078690208503402081A4B73B51B880646F1
:104AD000018F8B422CD9184B1B682BB9174BAE2179
:104AE000174A18481DF09CF913F81120164B1B6843
:104AF00053F82250154B186800F076FF2B680146DA
:104B000001909B6A284698472B68044601991B6CC4
:104B10002846984714FB00F42B682846E4B2019914
:104B20005B6A98472318DBB286F8453002B070BD47
:104B30000023F9E748DB002044DB0020A03A02080C
:104B4000E23A0208103B02084CDB002050DB002058
:104B50002DE9F04F05460026E54C4FF0010905F51B
:104B6000A67A05F58057DFF8DC8305F5B15B2DEDFE
:104B70000E8B97B00BF11C0B0CF076FF2A46DD4B29
:104B8000EE6342F8403B10460BEE902AFEF706FC1F
:104B900005F16C0318460DEE903AFEF7FFFB05F1A8
:104BA000980318460EEE103AFEF7F8FB05F1CC0319
:104BB000C5F898401846C5F8C460A5F8C8600EEE60
:104BC000903AFEF7EBFB05F58073C5F8CC4005F590
:104BD00010441846C5F8F860A5F8FC600CEE103AD1
:104BE000FEF70CFCC44B40F2AF415046C5F8003113
:104BF000C5F8486106F032FEC04B314640F2AE4285
:104C0000C5F84C3105F526735046C5E9A436C5E90B
:104C1000A296FFF776F905F5AA52B94B1432C5F8FA
:104C20004C3110460CEE902A06F0D6F84FF00201F7
:104C3000B44A87F8821505F5AC51C7F854250431FC
:104C400008460B91FFF7EAFE05F5AC51C7F88485DD
:104C50001C31C7F8986508460391FFF715FF05F565
:104C6000AF51A94B0C31C7F89C3508460491FFF7AA
:104C70000BFFA6495846C7F8EC154FF47A6106F0C9
:104C8000EDFDA34A31465846C7F83C2605F5BC520F
:104C9000C7F8782705F5AC42C7F87C2740F69F7225
:104CA000FFF72FF905F514409A4A9C30C7F83C26C7
:104CB00084F880640DEE100AA4F88264C4F8846459
:104CC000C4F88864C4F88C64C4F89064C4F894642C
:104CD000C4F8986406F080F88A4AC4F89C244FF01F
:104CE000020284F8CA2405F51442CC3210460A9216
:104CF000FFF794FE05F51442C4F8CC844FF488788D
:104D0000E432C4F8E0641046059206F065F80A2221
:104D1000C4F81465C4F81C257F4AC4F81895C4F873
:104D2000E42405F5154284F820952832C4F824655A
:104D30001046069206F050F80A22C4F85865C4F8E6
:104D40006025764AC4F85C95C4F8282505F5154217
:104D500084F864956C32C4F8686510460792FFF7D2
:104D600093FE05F51542684BBC32C4F86C3510460D
:104D70000892FFF789FE05F5164264490C32C4F823
:104D8000BC1510460AEE902A09F098F805F516426F
:104D90004832104608EE102AFEF730FB564BC4F896
:104DA0009066C4F8483605F51643943318460AEE63
:104DB000103A09F0F3F905F51643DC3318460BEE0B
:104DC000103A09F07BF805F517431833184608EE3A
:104DD000903AFEF713FB05F517436033184609EECA
:104DE000103AFEF70BFB05F51743A833184609EEFA
:104DF000903AFEF703FB4A4B05F518404FF4E1519A
:104E0000C4F81038474B2030C4F81458C4F8183888
:104E1000C4F81C6809F0F0F94FF4F07332463146DB
:104E20001BEE900ACDF80080FEF792FA4FF07F4318
:104E3000324631461DEE900AAB66CDF800804FF445
:104E4000F073FEF785FA4FF0FF3311224E21C5F8BB
:104E50009430CE231EEE100ADFF8EC8000934FF45E
:104E60009B73FEF775FA304B1B224FF4C5711EEE93
:104E7000900AC5E930834FF00403A5F8C830292310
:104E800000934E23FEF764FA284B28224FF4C57195
:104E9000C5F8F83005231CEE100AC5F8F480A5F813
:104EA000FC301C230DF1300800934E23FEF750FA1E
:104EB0001F4B1CEE101A4046C5F83031D5F80031B2
:104EC000A5F83461D3F88430984705F59E7398E8C7
:104ED000070083E8070005F51743F0330993154BE6
:104EE0001B689BBB144BAE21144A15481CF098FF5D
:104EF000B06C020848440208083C02085C630208DF
:104F000054410208A867020830680208D468020801
:104F100020620208EC420208DC3F020898400208C6
:104F20003044020895480008DE5B09FF0707DEFFF2
:104F30000A0AF2FF44DB0020A03A0208E23A020823
:104F4000103B02084C600208F7F7F7FF034B1B8881
:104F50001A2B09D8024BAF21024AC6E748DB0020D2
:104F6000573B0208E23A0208E34B1A21186800F0A6
:104F70003BFDE24A0346062109980EF019FFE04B7B
:104F8000099A14A914931B231CEE100AC5F8482192
:104F9000ADF8543008F010FC494632465046FFF751
:104FA0006EF9ED224FF4BB730E21504600920A2297
:104FB000FEF7CEF90E220223062150460092372238
:104FC00006F0FEFB6FF00F03092203215046009606
:104FD00006F0C7FAFA220A215046FFF723F84A469C
:104FE000D7F8D015D7F8D40506F0AAFCC8221823A4
:104FF000C7F8D095C7F8D4254FF0FF32A7F8DC35B5
:105000005046C7F8CC25039906F0DAFA4A46D7F895
:105010002016D7F8240606F093FC1922C7F820962C
:105020005046C7F82426A7F82C264FF00202049910
:10503000A7F832264FF0FF32C7F81C2606F0AEFA6A
:10504000B04B0B991CEE900AC7F8983505F0C0FDDF
:105050004FF002021CEE901A504687F8822506F0A7
:105060008BFA49463246584606F0CCFC4946324651
:10507000584606F0EAFCED224FF4BB730E21584669
:1050800000920A22A04FFEF763F90E2202230621A6
:1050900058460092372206F093FB6FF00F03092267
:1050A00003215846009606F05CFA40F2AF423146C2
:1050B0005846FEF726FFFA220A215846FEF7B2FFAD
:1050C0004A46D4F81815D4F81C0506F039FC6423B8
:1050D00005995846C4F81C35C4F81895C4F81475D9
:1050E00084F8209506F048FA4A46D4F85C15D4F8BE
:1050F000600506F025FC192206995846C4F85C950F
:10510000C4F85875C4F8602584F8649506F034FA3C
:105110004A46D4F8A015D4F8A40506F011FC7B4F3C
:105120001623C82207995846A4F8AC35C4F8A095B0
:10513000C4F8A425C4F89C7506F042FA4A46D4F88F
:10514000F015D4F8F40506F0FBFB19221723089993
:10515000C4F8F4254FF002025846C4F8F095A4F8BC
:1051600002264FF00309A4F8FC35C4F8EC7505F5E8
:10517000184706F013FA664B0A991DEE100AC4F898
:10518000E034103705F024FD1DEE101A584684F85F
:10519000CA9406F0F1F991224FF4CB711AEE900AFD
:1051A000FEF7C9F814A91AEE900AADF84460009110
:1051B00013A9ADF848600B4612A9ADF84C900A4609
:1051C00011A9ADF8509008F0D6FD4FF0101344220D
:1051D00040F2991118EE100AC4F84436C4F8347637
:1051E000FEF7A9F84FF07F41D4F848364046C4F89E
:1051F000781618EE101AD3F88430A4F87C66984715
:1052000018EE101A01F13C0398E8070083E8070044
:1052100005F51741FC3103913E490B68002B3FF423
:1052200061AE3D490B88142B7FF694AE32481421B1
:10523000006800F0D9FB314A03460A2103980EF0BA
:10524000B7FD039918EE100AC4F8901608F094FA06
:105250002B4B14A918EE100A14931523ADF85430F3
:1052600008F0AAFA1AEE100A55224FF4CB71FEF795
:1052700062F814A91AEE100AADF84C600A4613A998
:10528000ADF8506008F0F6FA13231AEE100AA4F8ED
:10529000CC36FFF719FC4FF0FF311BEE100AC4F8B3
:1052A000BC76C4F8D016CD22C4F8D4164FF4CB7116
:1052B000FEF741F813A84FF00401ADF8446003462F
:1052C00012A8ADF84C100246ADF8501011A814A960
:1052D000ADF84860009101461BEE100A08F04BFD46
:1052E0004FF00F13C4F8047718EE900AC4F814377F
:1052F000AE23312212E000BF50DB0020953B0208B4
:10530000503402081616C4FFC59714FF0000FFFFB3
:1053100020C217FF44DB002048DB00200721009358
:105320000F23FEF715F85D4A18EE901A4046C4F8B0
:105330004827A4F84C6707F0EDFE18EE901A01F12B
:105340003C0798E8070087E8070018EE901A4046E7
:1053500084F8509707F0DEFE98E8070087E807001A
:105360004FF004014E4F18EE900AADF8541014A9F6
:10537000149708F021FA112319EE100AFF22B42124
:1053800000934823FDF7E4FF444A19EE101A404603
:10539000C4F89027A4F8946707F0BCFE19EE103A01
:1053A00098E807003C331497ADF8549083E8070061
:1053B00014A919EE100A08F0FFF90D2319EE900A4E
:1053C0000A2200934FF4C2715923FDF7C1FF334AFB
:1053D00019EE901A4046C4F8D827A4F8DC672C1DB3
:1053E00007F098FE19EE903A98E807003C331497BE
:1053F00083E807004FF0020214A919EE900AADF8F5
:10540000542008F0D9F91BEE901A204604F050F809
:105410001DEE901A204604F04BF81EEE101A20469E
:1054200004F046F81EEE901A204604F041F81CEEF7
:10543000101A204604F03CF85146204604F038F893
:105440005946204604F034F81AEE901A204604F02B
:105450002FF818EE101A204604F02AF81AEE101A47
:10546000204604F025F81BEE101A204604F020F820
:1054700018EE901A204604F01BF819EE101A204678
:1054800004F016F8204619EE901A04F011F8284698
:1054900017B0BDEC0E8BBDE8F08F00BF0000FFFF22
:1054A000503402087047000030B5164D8DB02C689E
:1054B000BFF35B8F14F0010420D128461CF083FC5D
:1054C000E0B1114B0422114911480894CDE9094378
:1054D0003F2307930F4B06930F4B05930123CDE911
:1054E0000032CDE90343272202931423FDF7E4FDA4
:1054F0000A481CF0B3FC28461CF071FC04480DB0AF
:1055000030BD00BFE0D80020B8480208C47901903F
:10551000E4D8002030890208E08A0208A554000877
:105520007047000030B5164D8DB02C68BFF35B8F0F
:1055300014F0010421D128461CF045FCE8B1114BC0
:105540000422114911480894CDE909433F230793E8
:105550000F4B06930F4B05930123CDE903430293B1
:105560000223CDE900320B231B22FDF7A5FD0A48DB
:105570001CF074FC28461CF032FC04480DB030BD11
:105580000CD90020104D0208E87B019010D90020B2
:10559000BC890208E48A020821550008704700000F
:1055A00030B5164D8DB02C68BFF35B8F14F001043D
:1055B00021D128461CF007FCE8B1114B0422114907
:1055C00011480894CDE909433F2307930F4B0693F5
:1055D0000F4B05930123CDE9034302930323CDE948
:1055E00000320E231D22FDF767FD0A481CF036FC31
:1055F00028461CF0F4FB04480DB030BD38D900201B
:10560000104D0208647D01903CD90020C489020835
:10561000E88A02089D5500087047000030B5164D15
:105620008DB02C68BFF35B8F14F0010420D12846A5
:105630001CF0C9FBE0B1114B042211491148089438
:10564000CDE909433F2307930F4B06930F4B059377
:105650000123CDE90032CDE903431B2202930F233E
:10566000FDF72AFD0A481CF0F9FB28461CF0B7FBA1
:1056700004480DB030BD00BF64D90020104D0208B1
:10568000FC7E019068D90020E0890208EC8A0208BB
:10569000195600087047000030B5154D8DB02C68C4
:1056A000BFF35B8F14F001041FD128461CF08BFB65
:1056B000D8B13F230B220F4907930F4B0F48069396
:1056C0000F4B089405930123CDE903430293042370
:1056D000CDE90944CDE900430F23FDF7EDFC09486E
:1056E0001CF0BCFB28461CF07AFB04480DB030BD12
:1056F00090D9002078800190088A020894D900206F
:10570000F08A0208955600087047000030B5154D24
:105710008DB02C68BFF35B8F14F001041FD12846B5
:105720001CF051FBD8B13F2301220F4907930F4BC7
:105730000F4806930F4B08940394CDE904430423C8
:10574000CDE90944CDE90132009321221423FDF76C
:10575000B3FC09481CF082FB28461CF040FB0448BF
:105760000DB030BDBCD90020148101901C8A020804
:10577000C0D90020F48A02080957000870470000C9
:1057800030B5164D8DB02C68BFF35B8F14F001045B
:1057900020D128461CF017FBE0B1114B0122114922
:1057A0001148089403940094CDE909433F230793DB
:1057B0000E4B06930E4BCDE904430423CDE9013291
:1057C00024230B22FDF778FC0A481CF047FB2846EF
:1057D0001CF005FB04480DB030BD00BFE8D9002027
:1057E00068510208E4820190ECD90020C48A0208C2
:1057F000F88A02087D5700087047000030B5164D42
:105800008DB02C68BFF35B8F14F0010420D12846C3
:105810001CF0D9FAE0B13F23012210490793104B45
:1058200010480693104B08940394CDE904430423D5
:10583000CDE9013203231B2200930E23CDE9094455
:10584000FDF73AFC09481CF009FB28461CF0C7FA92
:1058500004480DB030BD00BF14DA002080830190F1
:10586000D88A020818DA0020FC8A0208F9570008D2
:1058700000207047002070470EB403B503AB002131
:1058800053F8042B01930BF07DFC02B05DF804EBA0
:1058900003B070470CB407B504AB53F8042B019365
:1058A0000BF070FC03B05DF804EB02B07047000031
:1058B00010B504460CF020FBE38E04EB4303588440
:1058C000636C5BB3238F2BB9174BC021174A184861
:1058D0001CF0A6FA10B320460DF0A2FC238F012B7A
:1058E00003D8144BC521144AF1E7E28E40F63F106D
:1058F000531C9BB2092B194688BFA3F10A0104EB84
:105900004101498C814209D10A2B04EB420228BF94
:105910000023508C04EB4303588451842046BDE897
:1059200010400DF061BB00BF885102089151020880
:105930003C520208865202089452020810B50446EE
:105940000DF00AFB2046BDE810400CF0D1BA10B5AE
:1059500086B002AC84E806001A460AAB21460593DD
:105960000193099B0093089B0AF0ECF806B010BD68
:1059700038B518BB124B13481C681349B4B12268E0
:1059800022440260626822440A60A26814440F4BF9
:1059900000221A8000F038F8054600F033F80C4B6E
:1059A0001C600C4B1D600C4B188007E00B4B036018
:1059B0000B4B0B600B4B1C68002CE8D138BD00BFB3
:1059C00040DA002044DA002048DA00204CDA0020D7
:1059D00044DB00204CDB002048DB00206C8501907C
:1059E000FC840190F4860190044B1B6853F821005D
:1059F000034B1B6803EB4000704700BF48DA0020F0
:105A000044DA00201C2070470048704750DA00201C
:105A100010B50D4CFFF740FE2060FFF7B1FE60604F
:105A2000FFF780FDA060FFF7BBFDE060FFF7E6FE3B
:105A30002061FFF76BFE6061FFF736FDA061FFF7A5
:105A4000EDFDE06110BD00BF50DA0020704710B5D9
:105A500004464FF4AC711CF0B4F9204610BD10B5EB
:105A60000446D0F8540100F012F82046BDE810407A
:105A70000AF0EEBB10B50446FDF790F8014B204646
:105A8000236010BD70530208002202607047704707
:105A9000704704387047704710B5044610211CF059
:105AA00090F9204610BDA0F10400F5E70022C16086
:105AB0008260044A10B502F108042032046042609A
:105AC00010BD00BFB453020870477047FDF793BB89
:105AD000B0F88C360421084A01339BB210B5044655
